:020000022000DC
:1070000080300020659F0200D52C0300519F0200B4
:10701000519F0200519F0200519F0200000000009A
:1070200000000000000000000000000081A002003D
:10703000519F020000000000E59F0200519F0200E6
:1070400015A3020015A3020015A3020015A3020058
:1070500015A3020015A3020015A3020015A3020048
:1070600015A3020015A3020015A3020015A3020038
:1070700015A3020015A3020015A3020015A3020028
:1070800015A3020015A3020015A3020015A3020018
:1070900015A3020015A3020015A3020015A3020008
:1070A00015A3020015A3020015A3020015A30200F8
:1070B00015A3020015A3020015A3020015A30200E8
:1070C00015A3020015A3020015A3020015A30200D8
:1070D00015A3020015A3020015A3020015A30200C8
:1070E00015A3020015A3020015A3020015A30200B8
:1070F00015A3020015A3020015A3020015A30200A8
:1071000053B94AB9002908BF00281CBF4FF0FF310E
:107110004FF0FF3000F00CB8ADF1080C6DE904CE73
:1071200000F01AF8DDF804E0DDE9022304B070474E
:10713000704700BF10F8012B11F8013B012A28BF4E
:107140009A42F7D0D01A7047034613F8012B002A51
:10715000FBD1181A013870472DE9F04786468C4656
:107160000846089E154674461946002B40F0C2801A
:107170008542B2FA82F245D94AB1C2F1200300FA3F
:1071800002FC2EFA03F3954043EA0C0C94404FEABC
:10719000154EA8B2BCFBFEF8230C0EFB18CC08FB66
:1071A00000F943EA0C43994528D9EB1808F1FF3759
:1071B00004D2994502D9A8F102072B44A3EB090395
:1071C000A4B2B3FBFEFC0EFB1C330CFB00F044EA44
:1071D0000344A04214D92C190CF1FF3304D2A0426D
:1071E00002D9ACF102032C44241A43EA07401EB131
:1071F000D440002334607360BDE8F0874746DDE784
:107200006346F1E792BB431B01214FEA154EAFB233
:10721000B3FBFEFC200C0EFB1C330CFB07F840EA12
:107220000343984562D9EB180CF1FF3004D298451E
:1072300002D9ACF102002B44A3EB0803A4B2B3FBC8
:10724000FEFC0EFB1C330CFB07F744EA0344A74289
:107250004ED92C190CF1FF3304D2A74202D9ACF15C
:1072600002032C44E41B43EA0040C0E7C2F12003C0
:1072700020FA03F1954090402EFA03F303434FEABE
:10728000154EAFB2B1FBFEFC0EFB1C10190C0CFB33
:1072900007F841EA0041884504FA02F422D9691846
:1072A0000CF1FF3004D2884502D9ACF10200294428
:1072B000A1EB08019BB2B1FBFEFC0EFB1C110CFB09
:1072C00007F743EA01439F420ED9EB180CF1FF3157
:1072D00004D29F4202D9ACF102012B44DB1B41EAEC
:1072E000004192E76046E3E76146F7E76046A3E7BF
:1072F0006346B7E7834206D916B9002108467BE703
:10730000C6E900E0F9E7B3FA83F78FB9834201D306
:10731000724508D8BEEB020460EB030301209C46D3
:107320001EB9002168E73846FAE7C6E9004CF8E7DD
:10733000C7F1200CBB4022FA0CF41C432EFA0CF1CE
:1073400020FA0CF3B84001434FEA14490EFA07F54E
:10735000B3FBF9F81FFA84FE09FB18300B0C08FB8D
:107360000EFA43EA00439A4502FA07F240D9E318BD
:1073700008F1FF3004D29A4502D9A8F10200234453
:10738000A3EB0A0389B2B3FBF9F809FB183308FB36
:107390000EFE41EA03418E452CD9611808F1FF33F6
:1073A00004D28E4502D9A8F10203214443EA0040E9
:1073B000A0FB0298A1EB0E014145CE46434602D305
:1073C00006D14D4504D2B9EB020E68EB0403013837
:1073D000002EA6D0B5EB0E0261EB030101FA0CFC06
:1073E00022FA07F34CEA0303F940C6E9003198E7B3
:1073F0004046C5E74346D9E701480BF081BD00BFD1
:1074000094450300012B07B50FD112780848012AD3
:1074100014BF002257228DF8072000210DF107022A
:107420000BF0E1FC03B05DF804FB6FF08500F9E7B9
:1074300094450300012B13B5144611D10A480DF1F0
:10744000070200210BF0F4FC002807DB9DF8073051
:10745000A3F15702534253412370002002B010BDE4
:107460006FF08500FAE700BF94450300014807F07C
:10747000A3BF00BFB000002007B50CF071FC4FF4B3
:107480007A72A0FB020302FB0131C00B074A40EAFB
:107490004140106000234FF400420548CDE900232D
:1074A00008F0DEFD002003B05DF804FBD0090020E9
:1074B00050020020014B187800F070B99C18002091
:1074C000044B1A78824202D01870FFF7F3BF0020F5
:1074D000704700BF9C18002008B50CF041FC4FF429
:1074E0007A72A0FB020302FB0131084AC30B126847
:1074F00043EA41439B1A47F23052934204DDBDE810
:1075000008400120FFF7DCBF08BD00BFD009002004
:1075100008B50CF025FC4FF47A72A0FB020302FBC5
:107520000131C00B044A40EA41401060BDE8084008
:107530000020FFF7C5BF00BFD0090020F8B5044602
:1075400010B900252846F8BD0378002BF9D00F4E5E
:107550000F4FBE420FD30D4EBE42F2D230680CF038
:10756000E6F830B1356821462868FFF7E3FD0028CA
:10757000E8D00436F0E730680CF0D9F818B1356877
:107580002B68A342DED00436E3E700BF8C5603002D
:10759000A056030070B5194C194D8CB00022002381
:1075A00003A9204607F052FC08B10CB070BD2B684F
:1075B000059E5868DDE9031209F0F3FF0028EDDBB2
:1075C000FF238DF81830B6FA86F35B0907908DF823
:1075D00020300CF0C5FB4FF47A72A0FB020302FBD3
:1075E0000131C00B40EA4140C90B8DE8030006ABF6
:1075F000CDE90A010FCB00F0E1F8CFE7CC02002083
:10760000E40900201FB50A4C2468A46884420DD107
:1076100083F00103CDE90112039306480022002301
:1076200001A907F0BBFB044807F0C6FE04B010BD7B
:10763000E4090020CC020020D40900201FB500235B
:10764000CDE90233044B8DF80C0001A8019309F039
:10765000CFFF05B05DF804FB3C4B030038B5044692
:1076600028B3144D2B6883421FD02BB1986818B1F2
:1076700083685B6803B198470F49104B00228C4226
:1076800014BFED211146104609F0A5FF00280DDBBF
:10769000A0682C6048B1836809491B6898472B682B
:1076A000986883689B6803B19847002038BD6FF0E5
:1076B0001200FBE7E4090020284B0300D409002056
:1076C0000576020038B5054648B90648FFF7C6FFFB
:1076D000041E02DB2846FFF7B1FF204638BD6FF0DD
:1076E0001504FAE7284B0300F7B50C4615460D497B
:1076F00001AA1E460BF0BCF968B1019B6BB9012CC5
:107700000DD1094F224639463046A847002802DDF0
:107710003878FFF7D7FF03B0F0BD0020FBE76FF02C
:107720001500F8E76F4E0300100200200148FFF734
:1077300095BF00BF284B030008B5044904480CF06E
:10774000ABF9BDE80840FFF7F1BF00BF9575020037
:10775000D4090020F8B50F4D0F4E761B07460C4696
:1077600005EBC105C6F3C706A64201DC00200CE00C
:107770002A683B689A4209D13C716B6838461B689D
:10778000984718B1431E012BF0D9F8BD01340835D4
:10779000EAE700BF245203004C5203001FB5002348
:1077A000CDE90233044B8DF80C0001A8019309F0D8
:1077B0001FFF05B05DF804FB404B030084B030B5FB
:1077C00089B00CAC84E80F00002301930CAD084B8A
:1077D00000930FCD02AC0FC495E8030084E80300CA
:1077E000684609F005FF09B0BDE8304004B07047B5
:1077F000444B03000268034B9A420CBF0830002040
:10780000704700BF444B03001FB50023CDE902338E
:10781000044B8DF80C0001A8019309F0E9FE05B0B6
:107820005DF804FB4C4B030082B038B504A981E835
:107830000C000546114807F013F90446A0B16B6827
:10784000012B0CD0022B05D0A3B9BDE8384002B003
:1078500009F0EEBE09F0F3FE00282046F5DCBDE895
:10786000384002B009F0DDBE6FF00400BDE83840DA
:1078700002B070476FF08500F8E700BF2D4F03009E
:1078800082B010B502A981E80C0004460B4807F04D
:10789000E7F878B16368022B04D00020BDE81040FF
:1078A00002B0704709F0CBFE0028CCBF00200120B9
:1078B0006060F2E76FF00400F0E700BF2D4F0300B7
:1078C0000D4A52F82030013342F820300B4A012390
:1078D000117883400B430A490978DBB2137023EA1D
:1078E00001030849084A097850780B43181A537065
:1078F00018BF0120704700BFE80900209F18002032
:107900009D1800209E1800201E02002010B5114A6C
:1079100052F82030002B19DD013B42F820300E4A8E
:107920002BB913780121814023EA010313700B481E
:107930000B4B047810780B4A5978127820EA04002F
:1079400010435870401A18BF012010BD6FF0150089
:10795000FBE700BFE80900209F1800209D180020C9
:107960001E0200209E180020044A01231278834042
:10797000D8B213401B1A5842584170479F18002034
:1079800010B5084B084A1870084B51781C78084B02
:107990001B7823EA040318435070401A18BF0120D3
:1079A00010BD00BF9E1800201E0200209D18002060
:1079B0009F180020074B00221A70074B074A1978BE
:1079C000074B50781B7823EA0103181A537018BF2D
:1079D000012070479E1800209D1800201E020020E4
:1079E0009F180020A0F1E003072B03D82030C0B27D
:1079F000FFF766BF064B062213F8011F19B1013AC3
:107A0000FAD10020704718700028F8D0F9E700BFBD
:107A100020020020A0F1E003072B10B405D820308D
:107A20005DF8044BC0B2FFF771BF0023064A194648
:107A300012F8014F0133A04208BF1170062BF7D195
:107A400000205DF8044B704720020020A0F1E00305
:107A5000072B03D82030C0B2FFF786BF064A0023A9
:107A600012F8011F884204D00133062BF8D1002000
:107A700070470120704700BF20020020024B002207
:107A80001A605A60704700BF1F020020B0F5805F87
:107A900010B510D20949002301EB4302B2F80140AE
:107AA00024B10133062BF7D1002010BDA2F801004C
:107AB0000028F6D0F8E76FF08500F6E71102002005
:107AC00030B50023074C194604EB43020133B2F8EA
:107AD0000150854204BF51709170062BF4D10020F3
:107AE00030BD00BF11020020024B00221A605A6014
:107AF0009A60704712020020074A002302EB4301FC
:107B0000B1F80110814204D00133062BF6D10020D8
:107B100070470120704700BF1102002000487047E5
:107B20001E020020004870471102002013B50B4BC5
:107B30001B78013B012B04460ED800F0CFF96B46B1
:107B4000002200925A608DF8000093E8030084E858
:107B50000300204602B010BD0020F0E727020020FD
:107B6000044B187828B1012801D109F01CBF6FF02F
:107B700085007047080A0020044B187828B10128B6
:107B800001D109F018BF6FF085007047080A002086
:107B900002490348012201F083BE00BF27020020F2
:107BA0005B4F030037B508490848094D6C460BF098
:107BB0009FFF2046FFF7BAFF94E8030085E8030023
:107BC000002003B030BD00BF917B020040040020C4
:107BD000080A0020F7B50C4615461B490022074647
:107BE0001E460AF045FF024648B1012C29D117492B
:107BF00022463046A84700EAE07003B0F0BD1449C1
:107C000038460AF035FF0028F7D0012C19D122465A
:107C10000DF107013046A8470028EEDB9DF807303C
:107C20000A4D0C48012B0CBF022301232B700AF0D4
:107C30001BFF0028E1D122462946074801F030FE0B
:107C4000DBE76FF01500D8E7654F0300270200203F
:107C50007A4F0300704F03005B4F030082B00DF1B9
:107C6000080C0CE9030019469DF80030012B104662
:107C700006D0022B06D053B9064A02B008F0AABAC1
:107C8000054AFAE7019B054A02B008F0A3BA044A84
:107C9000F3E700BF844F0300894F03008D4F0300BB
:107CA000944F030030B589B001AD0F4C2846FFF763
:107CB0003DFF94E80C0095E8030009F080FD80B9D1
:107CC00009F0A5FD95E803000A2305AA84E803004E
:107CD000FFF7C4FF94E8030003AB83E8030000F060
:107CE00005F809B030BD00BF080A00207FB56B461B
:107CF00083E8030093E80300002206AB03E90300D6
:107D0000039202A8034A029209F072FC07B05DF8E0
:107D100004FB00BFB44B030030B585B078BB11B98C
:107D2000002005B030BD1848184D01682C6841F09E
:107D30000103036032B344F00100994228601BD074
:107D40004FF48073ADF800308DF802200CF008F885
:107D50004FF47A72A0FB020302FB0131C00B40EA30
:107D60004140C90BCDE9020104AB13E90F0005B096
:107D7000BDE8304000F030B88442E1D1D0E76FF088
:107D80001500CEE79942F8E7100A0020140A0020F7
:107D900073B50F4B06460C4615461AB10D4A1268CC
:107DA00043F8212053F82410002009F090FD58B129
:107DB000DDE906230021CDE9002330462B4622468B
:107DC00009F097FD002801DD6FF0850002B070BD5D
:107DD000100A0020100A002010B58AB06C4684E812
:107DE0000F0000230593064B049394E80F000AACA0
:107DF00004E90F0004A809F0FBFB0AB010BD00BFA6
:107E0000C04B030084B030B589B00CAC84E80F00DF
:107E1000002301930CAD084B00930FCD02AC0FC4AF
:107E200095E8030084E80300684609F0E1FB09B027
:107E3000BDE8304004B07047C84B03000268034BF4
:107E40009A420CBF08300020704700BFC84B0300A7
:107E500008B5044800F0D0FF002818BF6FF01500E7
:107E600008BD00BF9D7E0200014B1878704700BF1F
:107E700028020020084B1B780B2B4FF001000AD87A
:107E8000984010F4CD6F05D110F4016F0CBF0120A4
:107E90000020704702207047280200200A2808B5F9
:107EA000024613D00A4B0B491870FFF7E3FF022874
:107EB0000AD10B78032A08BF43F001030B70BDE819
:107EC0000840054807F078BA0023F7E708BD00BF6F
:107ED00028020020A0180020C000002008B5FFF7ED
:107EE000C9FF022806BF034B1878002000F00100EC
:107EF00008BD00BFA018002010B50948094C06F0C5
:107F0000AFFD206048B1084B08494D2202F070FCDB
:107F100020680AF026FF002010BD6FF01500FBE777
:107F200009500300180A0020CC4B03000F50030037
:107F300038B504460D46FFF797FF0B280BD8DFE84E
:107F400000F01E1E0A0A1E060A0A0A0A0A1EBDE8D8
:107F5000384000F02FBF4FF476720023094807F035
:107F600005F909482146006800232A460AF003FF64
:107F7000044610B1034807F0C5F8204638BD6FF03D
:107F80001204FAE704030020180A0020014807F051
:107F9000B9B800BF0403002010B5094C0A4491424F
:107FA00000D110BD11F8013B584003090001E35C0A
:107FB000C0B2434018091B01205CDBB25840EEE719
:107FC0005C500300014B1B68184700BFD000002025
:107FD000014B1860704700BFD000002030B585B05D
:107FE00004460D461022002168460CF0D0F802230A
:107FF0008DF802302A46044B01932146684608F06A
:10800000B1F905B030BD00BFC57F020080B505469F
:108010000E461746984607F045FD03460CF088F9D2
:10802000DFF81890044649F8003042463046394699
:10803000A84754F8090001F0BFFF00BF0800000086
:1080400008B50446EFF31183202383F31288BFF3AE
:108050006F8F05F05BFA204601F09CFF024809F0A3
:1080600099FE0AF049FEFCE76C5003002DE9F04749
:10807000058B04462807904611D4022905F0070510
:1080800040F0CC80204609F0ADFE78B10138218B5C
:10809000042811D8DFE800F0C2106D859500012991
:1080A0000CBF45F0100545F02005258388F31188A5
:1080B000BFF36F8FBDE8F08701F0070AAA4500F013
:1080C000A5800027B9463E46A368002B00F0BC807F
:1080D00041F00801218388F31188BFF36F8FA168F5
:1080E000002900F0BA800D68002900F0B680D1F8B0
:1080F0000480334652462046C047002D76D02B6878
:1081000029461D46F0E701F007035A1F012A1BD834
:10811000002221F00701062B276889B2C4E900225A
:1081200009D13B4603E0628B013262831B68002B5E
:10813000F9D141F002012183204609F053FE0028C5
:108140007AD041F0200176E0042B0AD121F007011A
:1081500089B22183204609F045FE10B141F020018B
:108160002183218B01F0070AAA454FD00027B94689
:10817000AAE7236921F0070141F00601062DD3F893
:10818000009021832DD1B9F1000F3FD041F00801BB
:10819000218388F31188BFF36F8F3A492046C8477F
:1081A00029E021F00701236941F0040189B2042D7F
:1081B000D3F804902183E6D000273E464FF0040A0E
:1081C00082E721F00701236941F0050189B2052DFD
:1081D000D3F808902183D6D000273E464FF0050AF9
:1081E00072E700273E464FF0060A6DE72B4687E709
:1081F000B9F1000FD1D1EFF31188202383F3128856
:10820000BFF36F8F238B23F008032383258BEA06AC
:108210002ED525F01003238305F007056669218B11
:10822000002EBFF670AF00232768C4E9003321F0A9
:10823000070141F001012183218B01F0070AAA45C2
:108240004FF000097FF440AF002F9CD041F00801AF
:10825000218388F31188BFF36F8F002FC8D03D684A
:10826000394633465246204609F0E8FD2F46F4E7EA
:10827000AB067FF51BAF25F02003238305F0070530
:1082800000E700BF691E03002DE9F7430F460646CD
:108290000821C06ADFF8509009F0B0FF3C68241A4A
:1082A00080463C6004EA0905AC4203D8002003B0D4
:1082B000BDE8F08308236A462146304609F036FFC0
:1082C0000028F4D16946304609F0A2FF40B1BDF85C
:1082D0000230BDF804203C6005EA090513441D4442
:1082E000A4EB0804E0E700BF0000FFFF73B50446FD
:1082F0000821C06A124E09F081FF4FF6FF726368D1
:10830000ADF800208DF80620A289191833401344D7
:10831000181A002560606846ADF80210ADF80450E8
:1083200009F063FF694620460AF032F82046211D15
:1083300009F035FF636828463340A36002B070BD82
:108340000000FFFF2DE9F047044688B000F1140754
:1083500038460BF090FAA06A8368DB689847E062C1
:1083600028B96FF01505284608B0BDE8F087A06A67
:108370008368DB6898470368013B1F2BF1D8A06A2C
:10838000216805AA0AF018FF0028EAD1A589002D66
:10839000E7D0069BB5FBF3F203FB1255002DE0D1AD
:1083A000E389012BDDD9E36A009593F805904FF03E
:1083B000FF334FF0FF32384606F0AAFDE06A08218D
:1083C00009F01CFFA8460646E3891FFA85FA5345C3
:1083D00008D8E389434523D1384606F011FE6FF0F3
:1083E0002C05C0E7A1892B04891B13FA81F14A46A9
:1083F00008232046009109F0A7FE78B1694620467F
:1084000009F0CDFE08F10108009908234A462046EC
:108410001FFA88F809F098FE0028DAD00135D3E772
:1084200053450BD1009908234A46891B204609F081
:108430008BFE18B96946204609F0B1FE6946204610
:10844000FFF722FF054618B1384606F0D9FD8AE746
:10845000009B63604FEA13484FEA0848C4F808805D
:10846000D4E9011399420FD3082301AA204609F049
:108470005DFE05460028E7D101AB13F8012B9145BD
:1084800033D10135082DF8D163681B0C1B046946F4
:108490002046009309F083FEA38900994A462046AE
:1084A00009F052FE051ECFDB636876D006EB0308A9
:1084B0004FF6FF79A389CDF800801FFA88F29B1B45
:1084C0009A422ED300236168002B43D0090C090483
:1084D00000912046694609F062FE0099204609F0A5
:1084E0006BFE0546002D74D0AEE701A9204609F0C9
:1084F0008FFE626810B9921B6260B1E7BDF8085048
:10850000BDF80610E06AC4F80880294409F076FE38
:1085100040449042A060EED1002DECD06FF01C05DD
:1085200068E0082303AA4146204609F0FFFD0546FE
:10853000002889D103A9204609F06AFE30B1BDF8B0
:108540000C304B4502D1BDF810300BB1B044B1E74F
:108550000123B8E7204609F02FFE054600287FF4E6
:1085600073AF6368264AA18913400B44A3EB46030B
:1085700063601340A360204609F032FFB1E75B1A45
:108580004A46204609F0E0FD051EFFF65DAF08D023
:10859000E26AA36812681344A360D4E901318B42F4
:1085A000EDD86168A38901EB46029A429AD1DFF8BF
:1085B0005080A26801EA08039A4293D0204609F04D
:1085C000FBFD054600287FF43FAF636803EA08031C
:1085D000A360A389A288A3EB46039A4206D038463B
:1085E00006F00EFD012323740025BCE6204609F0A9
:1085F000E0FE0546384606F003FD002DF2D0B2E657
:108600000000FFFF014B036000207047E44B0300B4
:1086100070B5104B1C680D46B4B10F4B19680023A0
:108620008B4202DB6FF0010070BD224612F8106B26
:10863000864202D001331446F2E7E0680BF077F887
:1086400028B12C600020EFE76FF00C00ECE76FF032
:108650001200E9E7D4000020E44B030010B588B015
:10866000436802938368C068CDE903320A68002337
:10867000CDE906230C4601AA044905930AF0A0FDA2
:10868000079808B9059B236008B010BD2328030094
:10869000F0B40C4B0C4E5F6A0C4BB34203D36FF03B
:1086A0008500F0BC70475D68BD4209D31C693CB1D0
:1086B00095F802C00579AC4502D12346F0BC1847B5
:1086C0002433EAE71C0A002040040020F8030020BD
:1086D0002DE9F047134CDFF85080DFF85090054645
:1086E0000E461746444503D36FF08500BDE8F0877A
:1086F0006268D9F824309A4212D3A36983B1907882
:108700002979884205D13A4631462846BDE8F047E6
:1087100018475279012A03D13A46314628469847EC
:108720002434DFE7F8030020400400201C0A002066
:108730002DE9F0410B4CDFF8308005460E46174618
:10874000444502D36FF0850009E063690BB9243416
:10875000F6E73A463146284698470028F7D1BDE863
:10876000F08100BFF80300204004002010B504464B
:108770000AF01EFC10F1780F00D050B9054A2046CF
:108780000AF08AF8D2F8C43023EA0003C2F8C430F1
:10879000002010BD1C0A0020024B00221A605A6003
:1087A000704700BFD70A002070B50B4B0B4CA3429B
:1087B00001D3002070BD196A1E7F00220439D5B292
:1087C000AE4201D82433F2E7013211F8325085422B
:1087D000F5D10120EEE700BFF8030020400400209F
:1087E00008B509480378C3F341130A3350F823301E
:1087F0003BB100F1080200F110019847C043C00FDF
:1088000008BD1846FCE700BF1C0A002004282DE91B
:10881000F14FDFF8A09004460F4616D001282DD165
:10882000DFF88C8098F8B93043B300F00BFE1F4D91
:108830004D4520D2D5F820B04FF0000A2B7F5FFACB
:108840008AF6B34204D82435F2E7FFF7A5FFE7E73D
:108850000BEBC6060AF1010A30790AF0A9FB0246C1
:1088600030790AF019F8D8F8C430002A23EA000356
:10887000C8F8C430E2DA002388F8B9300B4D4D4512
:1088800008D30B4B1B6A6BB13946204601B0BDE8DB
:10889000F04F1847EB681BB13A46214628469847E7
:1088A0002435ECE701B0BDE8F08F00BFF8030020ED
:1088B0001C0A00204004002073B5C4B263060D46B4
:1088C0008DF8074007D02046FFF76EFF78B10D4BBB
:1088D00093F8BA0058B10B4E204655B102F09CFBFC
:1088E000F3691BB10DF1070108209847012002B080
:1088F00070BD02F0B9FBF369002BF7D00DF1070151
:108900000920F2E71C0A002073B586788DF8006014
:10891000037942791C4C43EA0223ADF80230C37854
:10892000304603F003038DF8043009F0B5FFD4F8A6
:10893000C430184205460BD0304600F065FD304685
:10894000FFF714FF0BF0F3F810B9962007F068F862
:10895000684602F03DFB10F1780F03D010B1002003
:1089600002B070BD9DF8000002F0BAFB10F1780F64
:1089700001D00028F3D1D4F8C43001202B4384F86F
:10898000B900C4F8C430EBE71C0A00202DE9F04719
:10899000A34EB36904460F461546FBB9237803F08E
:1089A0001F03012B00F09D80022B00F0048133BBDC
:1089B00094F900002A686178002834DA062912D078
:1089C00008292BD0D9B901231370517096F8C33000
:1089D0005B0043F00103137002232AE1984700284B
:1089E000DCD100200DE06288100A011F01298446B5
:1089F00005D9072803D8716AD2B20C781CB96FF078
:108A00001500BDE8F0874E78664503D19A4200F024
:108A10000B8101332144F0E70B780AE196F8BA3074
:108A20001370012305E101390829E8D801A353F89F
:108A300021F000BFCD8A0200FF890200DB8A02001C
:108A4000FF890200598A0200FF890200FF890200A3
:108A5000FF890200658A0200A07802F0A7FA0028C8
:108A6000BFD0CCE76388756A63BBFFF795FE638868
:108A700086F8BA30F369002BB3D06A4903209847CF
:108A8000AFE76B78042B10D0052B11D0022B04D14B
:108A90006F796388BB4208BF01202B781D442B7877
:108AA000002BEED10028AAD0DFE795F80380F4E789
:108AB0006388BB42F1D1B8F1000FEED12846FFF731
:108AC00023FFEAE7FF270020B846E8E76388012B89
:108AD00095D1002386F8C33083E76388012B8ED1BC
:108AE000F8E796F8BA30D5F800C0002B87D0756A41
:108AF000A38894F804E02A46107800283FF47FAF5A
:108B00005178022904D192F80480F04500F2938054
:108B10000244F1E78CF800208CF80120396060E70E
:108B2000154494E00B2A7FF46AAF00274FF0FF084A
:108B3000C146BA4606E06B78042B0FD0052B21D036
:108B40002B781D442B78002BF5D1F36913B15146D6
:108B500007209847002F7FF444AF50E795F8028034
:108B6000A38895F803909845EAD163889945E7D1A1
:108B7000B8F1070F1CD806EB0803AA4683F8BB9090
:108B80000127DDE7A3884345DAD1A3784B450AD016
:108B9000AF78384600F038FC3846FFF7E7FDB0FA0A
:108BA00080F77F09CCE72846FFF7AEFE0746C7E708
:108BB000AA460027C4E794F900206378002A18DA4F
:108BC000002B7FF41CAF24792D6863060AD0204661
:108BD000FFF7EAFD00283FF412AF96F8BA30002BF9
:108BE0003FF40DAF2946204602F05EFA00236B7079
:108BF000F2E6012B08D0032B7FF401AF6388002B32
:108C00007FF4FDAE012103E0618800297FF4F7AE17
:108C1000A088FFF751FE00287FF4E3AEEFE600BF27
:108C20001C0A0020D60A0020022829607FF4F4AE36
:108C30004B883B60D5E694F9000062780028BFF6C7
:108C400071AF002A3FF466AF0A2A7FF4D8AE2A78C3
:108C5000002A3FF4D4AE697804297FF461AFA97883
:108C60008B427FF45DAF072B96BF9B19002393F8CF
:108C7000BB308CF80030D4E613B5164C237DF3B925
:108C8000E268A168019201AB802009F013FE019A0D
:108C9000A3681344A360E3689B1AE3606BB962B1F5
:108CA0002369E2889A4208DD94F8C82093FBF2F128
:108CB00002FB11330BB90123237502B010BD002351
:108CC0001A4619468020237502B0BDE8104002F014
:108CD00031BA00BF1C0A002030B585B0002302461F
:108CE0000D460193002858D1002935D108220B46A2
:108CF0000DEB02010AF075F9002804DA802002F079
:108D00008BF905B030BD2A4C029A2260039A62604A
:108D100004F13802A2609DF90820BDF80E302575D7
:108D2000002AC4E903550ADB802B04D9802002F015
:108D300073F90020E3E713B1C4E90333E1E7FFF778
:108D40004FFD0028DAD0E28823699A42D4BFE2605E
:108D5000E360FFF791FFD4E7154CD4E90215002D2D
:108D600001AB04DC0AF03DF90028CADAC6E72A465E
:108D70000AF037F90028D9DB019AA3681344A360ED
:108D8000E3689B1AE360002BBBD104F13803A360B6
:108D9000FFF726FD0028DCD1B0E78028B1D1044BD5
:108DA000DA68002AD5D11B7D002BD2D1A9E700BFFC
:108DB0001C0A0020044B93F8C3300BB10AF020B911
:108DC0006FF00C00704700BF1C0A0020054B064ADC
:108DD0009A62064ADA62064A1A63064A58629A6139
:108DE000002070471C0A00208D8902009186020035
:108DF00031870200D18602002DE9F3410446474D38
:108E000047484FF0FF334FF0FF3206F081F895F8F6
:108E1000B830002B7BD16B6A83B142482C62E86189
:108E20006E6A02F0A1FA02F08FF8041E10DA3C48D4
:108E300006F0E6F8204602B0BDE8F08100F0BEF88A
:108E4000FFF7C4FF6B6A002BE7D14FF0FF34EEE76A
:108E500000F01AFB041EEADB7378012B5AD1F37978
:108E6000002B57D00026684685F8C830ADF8023090
:108E70008DF804608DF8006002F0AAF8041ED6DBBD
:108E8000802768468DF8007002F0A2F8041ECEDB41
:108E90002549304602F054FA041EC8DB2249384600
:108EA00002F04EFA041EC2DB204CDFF884804445F9
:108EB0001AD3002002F014F9041EB8DBD5F8C43030
:108EC000802043F00103C5F8C43002F009F9041E04
:108ED000ADDBD5F8C43043F48033C5F8C43001238A
:108EE00085F8B8300024A2E7276A0026227FF3B273
:108EF0009A4201D82434DAE707EBC30257F833105B
:108F0000107902F01DFA01360028EFD09DE76FF0CE
:108F100077048CE76FF0150489E700BF1C0A002076
:108F2000B80200200D880200D98C0200F80300204E
:108F30004004002030B51F4B8BB005AA03F110058B
:108F400018685968144603C40833AB422246F7D167
:108F50001B7823701022002101A80BF018F91222AF
:108F6000002115480BF013F9102101A80AF077FA37
:108F700000281BDD0828B8BF0820093801AB0E49BE
:108F80001A18002012F8013F0AAC04EB131403F086
:108F90000F0328336B44013014F8144C13F8143CBD
:108FA0000C7008284B7001F10201EBD102480BB0A4
:108FB00030BD00BF95500300A21800202DE9F04FEE
:108FC000724B93F800B087B0BBF1000F03D070482C
:108FD00007B0BDE8F08F6E4C00264FF0011AB04686
:108FE0003546B14623783BB96A4B02349C42F3D1F3
:108FF000664A01231370EAE76378052B1BD8DFE884
:1090000003F08E03C38E1D39402304A88DF810B0E1
:10901000ADF812308DF814B009F0B5FF40B1082357
:1090200004A8ADF8123009F0AEFF08B1ADF812B0E7
:10903000BDF81230E37123781C44D3E7E378002BAA
:10904000F9D1A3786BB108F101085FFA88F8F2E76B
:109050006B689C4207D024354F4B9D42F8D30020CB
:10906000B6E74E4DF8E7AB68002BECD04146204602
:109070009847E8E7002DF2D000222B7F9A42EED2EB
:10908000296AA07801EBC2010B79984201D0013224
:10909000F3E70127E07800F003008DF81400207951
:1090A00094F805C040EA0C20ADF8120094F90200D3
:1090B0000028FBB228DA07F110004FF0010C0CFA7F
:1090C00000F010EA0A0F26D143F080008DF810005E
:1090D00004A8CDE90213019209F055FFDDE9012151
:1090E000039BC0B99DF81020A27012F0800F18BF2A
:1090F00010330A7118BFDBB24FF0010214BF9A405F
:10910000BA404AEA020A96E70120B84010EA0A0F7C
:1091100001D11846DAE70137102FBBD1B7E7032E8C
:109120001AD1FFF707FF074650B1FEF70DF80246C8
:1091300030B11028A8BF10223946A01C0AF0FFFF4A
:1091400023786FF00201E218091B04EB5303D142AC
:1091500013D50136F6B26EE7002EF1D1B9F1000F4A
:109160003FF47DAFA4EB090389F80230C3F3072372
:1091700089F8033089F80480EBE702F801BC13F8A2
:10918000010902F8020DE2E7A14654E7A118002008
:1091900024030020F803002040040020F8030020EE
:1091A00010B5094B00211A461C78844204D15C6832
:1091B00014B102EB811010BD0131042903F1400309
:1091C000F2D10020F7E700BFE80A00202DE9F341C3
:1091D00050F8283C10F82C6C103304460AD103696F
:1091E00050F8202C980736D5D2B9590715D5002349
:1091F00044F8283C54F8283C10330BD054E9077548
:1092000054F8148C0AF093FC00284FD02E482146C5
:109210000AF05EFC02B0BDE8F08143F00403236174
:1092200054F8241C01AB304609F044FB10B16FF038
:109230001503DDE7019A54F8243C134444F8243C18
:1092400054F8203C9B1A44F8203C54F81C3C13442E
:1092500044F81C3CCEE754F8241C01AB304601F026
:10926000E5FF0028E3D1019D54F8243C2B4444F849
:10927000243C54F8203C5B1B44F8203C54F81C3C34
:109280002B4444F81C3C002DB1D0304602F072F85B
:10929000B5FBF0F303FB1055002DA8D154F8203C8A
:1092A000002BA4D0304602F009F8A3E744F8180CCC
:1092B000A4F1100005F026FF002DABD04246394640
:1092C0003046A847A6E700BF700400204B1E012BC4
:1092D00073B506460D460FD8FFF762FF044668B91E
:1092E000012D09D101AB01220DF10301304601F03E
:1092F0009DFF019B002BF5D102B070BD0AF017FC59
:1093000004F12C0108B1012D05D1084602B0BDE8D9
:109310007040FFF75BBF034802B0BDE870400AF041
:10932000D7BB00BF700400202DE9F74F064601911E
:109330001546984609F006FB044600285BD1EFF37A
:10934000118A202383F31288BFF36F8FDFF8B0B048
:1093500000220023584605F009FF70B9DFF8A490F9
:10936000A70109EB8414636813F1100F14D1019362
:10937000584605F0C7FE019B06E00134042C0BF1B2
:10938000400BE5D16FF00B038AF31188BFF36F8FA9
:10939000184603B0BDE8F08F019B2061C4E9023597
:1093A0000C9B63610D9BA36130466FF00F0309F8BE
:1093B0000760C4F83C80636001F0DCFF58B13046C0
:1093C00001F0D8FFB5FBF0F303FB10551DB1E36BC3
:1093D00043F00403E36318F0020F07D007F12C01F8
:1093E000064849440AF074FB0023CDE7304601F0FB
:1093F00065FF0346C8E76FF00F03C9E7700400205C
:10940000040B0020E80A002010B5EFF3118420239C
:1094100083F31288BFF36F8FFFF7C2FE50B143682A
:10942000103307D16FF08B03436000F12C01044827
:109430000AF04EFB84F31188BFF36F8F10BD00BF9D
:1094400070040020F8B50E4C04252027EFF3118698
:1094500087F31288BFF36F8F6368103307D16FF003
:109460008B030848636004F12C010AF031FB86F39A
:109470001188BFF36F8F013D04F14004E6D1F8BDC0
:10948000E80A00207004002070B50A4C0A4E00253E
:10949000314620460AF000FB0122A4F110001146DB
:1094A00001350AF07BFA042D04F14004F0D10020CC
:1094B00070BD00BF140B0020CD9102000169012393
:1094C00081F84B300B6833B191F849301BB1024839
:1094D00008310AF0FDBA70477004002001690123C9
:1094E00081F84A300B6833B191F848301BB102481B
:1094F00008310AF0EDBA70477004002070B50569B4
:10950000EFF31186202383F31288BFF36F8FD5F812
:10951000900008F0C8FD044686F31188BFF36F8FF2
:1095200030B104480022002305F1180105F088FF3E
:10953000204670BD7004002070B5012382F84830C9
:1095400013680D4614463BB192F84A3023B10E48D9
:1095500002F108010AF0BCFAD4F890301A699B684D
:109560009A4205D17DB904F1180140F6CD4204E0DC
:1095700004F11801002DF8D00022BDE87040024827
:10958000002305F05DBF70BD7004002070B5044677
:109590000E4601791548154609F0B0F910B394F953
:1095A00000206378002A16DB202B04D0222B0ED05B
:1095B0006FF085000AE02B681A6840F8102C9A8832
:1095C00020F80C2C9B7900F80A3C002070BD6388C1
:1095D00000F8093CF9E7212BEAD11038072328606D
:1095E0003360F2E76FF01200F0E700BFE80B0020F5
:1095F00008B50146034809F08FF910B1012300F8BE
:10960000073C08BDE80B00200D4A03460021A0F8E6
:1096100048101068C3F8940090889279A3F89800D5
:1096200083F89A2083F89C1083F89B10A3F89E106F
:1096300083F8A010402203F14C000AF0A8BD00BF3F
:109640006848030010B504690023C4F8A8300C4B27
:10965000C4F8A400596804F1A80269B9C3E900225A
:1096600004F1080007490AF017FA04F11800064946
:109670000AF03EFA002010BD0A605A60F0E700BF11
:10968000E80B00206F290300FD96020073B5046902
:109690008DF80710002384F848302025EFF3118659
:1096A00085F31288BFF36F8F0122D4F890000DF17B
:1096B000070108F0F8FC86F31188BFF36F8F0128CB
:1096C0000AD00AF034FA10B994F8A1306BB9094BFA
:1096D0001A780AB901221A702122002304F1180114
:1096E000054805F0ADFE02B070BD002121200AF052
:1096F000BEFAD3E7B418002070040020F0B5D0F80B
:109700008C305B681B6A1F7D85B00546384609F0C2
:1097100019F9064648BB95F8863033B3A86F014661
:10972000836851F8102F9B1AB3F5806F28BF4FF450
:10973000806303AA08F06DFC0446B0B18306A5F16E
:10974000180308BF00F1FF3485F830600193084B1F
:1097500003990093224602233846FFF7E5FDA86FE0
:10976000224600F1100108F088FC05B0F0BD00BFF2
:109770003995020037B514460A1E054620DDD4F897
:109780008C0004F14C0108F08EFC012384F8493070
:1097900023683BB194F84B3023B1114804F1080120
:1097A0000AF096F9D4F88C104B684A699A1ACB697A
:1097B0009B1A3F2B04D8012384F8A03003B030BD9E
:1097C00094F89E30002BF9D0064B009301940123AE
:1097D000402204F14C012846FFF7A6FDEEE700BF4A
:1097E0007004002075970200F7B50D4601461D482C
:1097F00009F078F8044610B30646691E56F8A439F5
:109800005F6805291BD8DFE801F01C1A031C22261B
:1098100010F8061C99B9012300F8063C3B6A324651
:10982000187BFFF7A7FF14F85C2C42B93B6A187D40
:109830000D4B0093019602231146FFF775FD03B00F
:10984000F0BD304603B0BDE8F040FFF7DDBE0123B8
:1098500004F8053CF3E710F8053C002BEFD000239B
:10986000F6E700BFE80B00203995020037B5094D37
:109870000949002400944FF0FF334FF480622846DA
:1098800005F0A0FD054928460AF057F9204603B027
:1098900030BD00BF7004002000190020B950030043
:1098A0002DE9F0410F4B1C6805460E461746ACB13A
:1098B0004FF0FF324FF0FF330B4805F029FB636890
:1098C0003246D3F8088029463B462046C047044626
:1098D000054805F095FB2046BDE8F0816FF00104D6
:1098E000F9E700BFF00B0020A40200200023036072
:1098F000044B5A6812B9C3E9000070471060586001
:10990000704700BFF40B0020014B1860704700BF88
:10991000F00B002030B585B000230546CDE90233B9
:1099200001904FF0FF330C484FF0FF3205F0F0FA92
:109930000A4B1C684CB9284600F06EF804460648ED
:1099400005F05EFB204605B030BD636820461B680D
:1099500001A998472468EDE7A4020020F40B002039
:10996000024B0022C3E90022704700BFF40B002025
:10997000024B0022C3E90022FFF7F2BFFC0B0020DC
:109980002DE9F74307460C4609B100230B601F4D34
:10999000DFF8809000264D450FD31D4B1D6885B321
:1099A00055F8188C01AA41463846183D09F060F870
:1099B00010B3D6B914BB2E461EE0D5F8008001AA1C
:1099C0004146384609F054F850B116B954B92E46FC
:1099D00006E031680022404609F04AF80028F5D137
:1099E0001835D8E7019B2360F1E731680022404633
:1099F00009F03EF80028DDD1AD69D0E7019B236076
:109A0000D9E7304603B0BDE8F08300BF004803004B
:109A1000FC0B0020304803002DE9F047DFF8B09040
:109A2000DFF8B0A080464FF000470026274C3D46A7
:109A30004C450DD3DAF80040002C42D0183CB8F168
:109A4000000F25D122695ABBA469F5E72F46EDE73F
:109A5000B8F1000F03D122694AB91834E8E7206849
:109A60000022414609F004F80028F4D1F5E76368C4
:109A7000BB4205DDAF4209D09D42A8BF1D46ECE7C1
:109A8000EBD19047002E08BF0646E6E71D46E4E707
:109A900020680022414608F0EBFF0028D2D1D3E72E
:109AA0006368BB4205DDBD4209D09D42A8BF1D468B
:109AB000CAE7C9D19047002E08BF0646C4E71D4635
:109AC000C2E7AF42C2D13046BDE8F087004803008C
:109AD00030480300FC0B002038B50C4D0C484FF00B
:109AE000FF334FF0FF3205F013FA2B783BB9FFF745
:109AF0003FFF00F06DF8044610B901232B700024DD
:109B0000034805F07DFA204638BD00BFB518002097
:109B1000A40200202DE9F047048FDFF8B0A0013443
:109B200098B006468946A4B200F10807651EADB29A
:109B3000B5F5004F47D04A2305AA2946384608F014
:109B40004EFE04F57F543F34A4B2804621460123E3
:109B50000DF10B02384608F042FEB8F1000F014645
:109B600010DC002810DC338FAB4209D132466B1E6B
:109B700022F8383F4FF400410223384608F0FDFC3C
:109B80002C46D3E7002808DC2946384608F0C3FDF8
:109B90002146384608F0BFFDE5E708F160030DEB0C
:109BA0000308002308F84C3C5246CDF8009003AB64
:109BB00005A80397ADF8104008F07EFF0028DFD01D
:109BC00018B0BDE8F0870020FAE700BF272B03009C
:109BD0007FB50123694602200193FEF719FD044673
:109BE00060BB02AA01A9022008F03DFE044610B1A4
:109BF00010F10C0F22D10399B1F5803F23D2009AC6
:109C0000002394681846084484421AD30133082B71
:109C1000F9D10E4DA982EB825368AB602846D36818
:109C2000EB6309F018F8044640B9094E6E60284607
:109C3000FFF75CFE28466E60FFF766FE204604B024
:109C400070BD9BB2E5E76FF02004F7E7040C00203D
:109C50003001002030BFFFF7FDBF00BF2DE9F0410C
:109C60000B4EDFF8348006EB0807CC1B0546324666
:109C7000084920460AF063FAA01942460021083C30
:109C80000AF085FA2C6707F10800BDE8F08100BFF3
:109C9000000000003048030004000000054B9A69F2
:109CA0009B689A421FBF044A536843F08053536035
:109CB000704700BF5C18002000ED00E070B5264B37
:109CC00015469A6A12F0100F9A6A14BF11241024D4
:109CD00012F0080F9A6A18BF1224920706460AD596
:109CE000586B9A6A140634D519B19A6A22F0800228
:109CF0009A62132401E06FF01500174B9A6A12F074
:109D0000010F9A6A18BF142412F0200F9A6A18BF24
:109D10001524D20602D49B6A9B070AD50E4B5B68BA
:109D2000190506D5314600F07DFA10B180F3098897
:109D30000224094B9A6A920642BF5A6A22F40052E0
:109D40005A629A6A42F0FF029A6200232B70204600
:109D500070BD6FF01500CCE700ED00E0134B9A6A80
:109D600012F0007F9A6A14BF1E201D2012F0807F1F
:109D70009A6A18BF1F2012F4002F9A6A18BF212078
:109D800012F4802F9A6A18BF222012F4003F9A6AB8
:109D900018BF232012F4803F9A6A6FEA02426FEAEA
:109DA00012429A6218BF2420704700BF00ED00E005
:109DB00010B5194B0246986A9C6A10F4805F14BF74
:109DC0001720162014F4006F9C6A18BF1820A405F1
:109DD00009D5986B986A000404D51AB19A6A22F4DE
:109DE00000429A6219200C4B9A6A12F4806F9A6AA8
:109DF00018BF1A20D2050CD49B6A13F4005F18BF59
:109E00001C20054A936A43F47F43936200230B703E
:109E100010BD1B20F5E700BF00ED00E070B5454B1D
:109E20005B689CB00546C3F30803002686F31188DF
:109E3000BFF36F8F02F07F40B0F17F4F11D102F07E
:109E40000C0008280DD010074CBF0D46012600223B
:109E5000033B8DF80720032B05D8DFE803F01E5DD8
:109E6000615A3546F3E700249DF807309BB9682214
:109E7000294602A80AF063F9099B002E54D0C3F3C7
:109E8000080222B96FEA53236FEA4323099302A918
:109E9000204608F015FF1CB070BD264BDA6A91070A
:109EA000E1D4DA6A002ADEDBDA6A5200DBD55A69CD
:109EB000A96942F480725A61BFF34F8FBFF36F8F6D
:109EC0005A6931F8021C22F480725A61BFF34F8F35
:109ED000BFF36F8F4DF6027291420AD09A6AD2B2E6
:109EE0004AB10DF1070201212846FFF7E7FE0446BB
:109EF000BAE72C68B8E79A6A12F47F4F05D00DF1E3
:109F000007010120FFF754FFF1E79B6AB3F5803F9B
:109F1000A9D3FFF723FFEAE70DF107020021E3E7EA
:109F20000DF107010020EDE723F4FF7323F0010397
:109F3000ACE700BF00ED00E0044B5A6942F01002AC
:109F40005A615A6922F008025A61704700ED00E038
:109F5000EFF30880EFF3098101B57246FFF75EFF6A
:109F600001BD00BF03F004FB202080F311880848E6
:109F70004FF40861401880F30988EFF31480022140
:109F8000084380F31488BFF36F8F00F0D3F800000C
:109F900000220020BFF34F8F0549064BCA6802F428
:109FA000E0621343CB60BFF34F8F00BFFDE700BFFC
:109FB00000ED00E00400FA05084B9B6883420BD1DA
:109FC000EFF3058343B1064B5A6842F080525A6062
:109FD0005A6A22F400425A6205F06ABD5C180020F9
:109FE00000ED00E023498A6882F8BDE04FF03000C0
:109FF0001044EFF3098C80E8F01F1EF0100F03D11E
:10A0000002F17C0080EC108A202080F31288BFF3DC
:10A010006F8F194F4FF000668A698A603E60106F3B
:10A02000164C206092F9BDE0506F0023536780F317
:10A0300011881EF0100F03D00023E1EE103A03E068
:10A0400002F17C0090EC108AEFF3148323F00403F8
:10A0500083F31488BFF36F8F04B5104600F078F9CE
:10A06000BDE8044002F1300090E8F01F8CF309884D
:10A07000704700005C18002004ED00E0440C002054
:10A080001EF0040F0CBFEFF30880EFF30980816925
:10A0900011F8021C0229FFD001B5724608F016FE25
:10A0A00001BD00BF40B2002807DB044A410901237B
:10A0B00000F01F00834042F82130704700E100E0CB
:10A0C00040B200280CDB4309064900F01F00203392
:10A0D0000122824041F82320BFF34F8FBFF36F8FDF
:10A0E000704700BF00E100E0054B420900F01F008F
:10A0F00053F82220012303FA00F01040704700BFFC
:10A1000000E100E040B20028A8BF00F1604001F18A
:10A110000101B8BF064B4FEA4111ACBF00F56140E9
:10A1200000F00F00C9B2B4BF195480F80013704793
:10A1300014ED00E0144A08B5144B22F07F029A6037
:10A14000BFF34F8FBFF36F8FD3F8882022F47002D4
:10A15000C3F88820D3F8882042F4A002C3F88820EE
:10A160004FF04042C3F83422BFF34F8FBFF36F8FDD
:10A170000023E1EE103A04F027FD05F0D1FD00F0D8
:10A18000BDF804F063FD00BF0070020000ED00E0C8
:10A1900042F8203C009B42F81C3C019B42F8183CD2
:10A1A0000A49029B42F8143C4FF0807342F8043C89
:10A1B00021F00101002342F8081C203A43674FF4C4
:10A1C0007D430265C0F8BC30704700BF0D800200BF
:10A1D000037B13F0020F124B03D190F8BD20D2067F
:10A1E00011D45A6B42F080425A63D0F8BC30190740
:10A1F0005CBF43F00803C0F8BC30037B43F00203AC
:10A200000373802070475A6B22F080425A63D0F863
:10A21000BC301A0744BF23F00803C0F8BC30F0E795
:10A2200000EF00E0094A0346906870B113F1160F81
:10A23000006E05D0A0F180029A4205D8834203D275
:10A24000814228BF00207047002070475C18002022
:10A25000104B9B6883421AD1EFF30580B8B9EFF336
:10A260001181202282F31288BFF36F8F1A7B22F0B4
:10A2700002021A73EFF3148323F0040383F31488A8
:10A28000BFF36F8F81F31188BFF36F8F70476FF04B
:10A29000150070475C18002008B515460E460022D0
:10A2A000E1EE102AEFF3148222F0040282F3148804
:10A2B000BFF36F8FBFF36F8F094A0A4B9060026F35
:10A2C0001A6000F045F82C4686F309880020064BFA
:10A2D00098472046002100220023044C204700BF5D
:10A2E0005C180020440C0020EB2C03000D800200C1
:10A2F000014B10221A61704700ED00E00448002372
:10A300002021C2180133302B82F80013F9D1704795
:10A3100000E100E008B5EFF30583064A103B02EBCD
:10A32000C30152F8330049688847BDE80840FFF789
:10A33000B5BC00BFBC450300024B034A03480121E2
:10A3400000F07CB80000042000000020284C03002E
:10A3500010B50446FFF73CFF226E03460548D21AAB
:10A36000C0E90023044B8360BDE81040012100F0E8
:10A370006FB800BF480C002000000B15084AC2F857
:10A3800098000B6823F01F03034343F01003C2F847
:10A390009C308B6843F00103C2F8A030704700BFC7
:10A3A00000ED00E02DE9F043DFF8608085B00E4657
:10A3B0001F4604464FF00009B14523DA6068D8B162
:10A3C0003FB1411E08421BD17F2819D92368194289
:10A3D00016D12368019308F0ABFCA36803430393F1
:10A3E000D8F89050C5F30725D0B2013DA84207D850
:10A3F00001A9FFF7C3FF421C09F101090C34DBE797
:10A400006FF01502104605B0BDE8F08300ED00E0E6
:10A41000044B0522C3F89420BFF34F8FBFF36F8F17
:10A42000704700BF00ED00E0BFF35F8F024B0022DA
:10A43000C3F89420704700BF00ED00E010B5034C56
:10A4400001232278FFF7AEFF207010BDB618002060
:10A4500008B50B4A00231278FFF7A4FF10F1160F7E
:10A4600007D0084A0021D2F89030C3F3072398425E
:10A4700000DB08BDC2F89800C2F8A0100130F2E776
:10A48000B618002000ED00E02DE9F043534B544C8A
:10A49000D3F890302568C3F307239D4285B000F2BE
:10A4A0009A80FFF7C1FF00200C2685421AD14D4C3F
:10A4B0004D4F25706846FEF7A5F8DFF82081DFF8DC
:10A4C0002C9106460025AE4213D123784349002043
:10A4D000D1F89020C2F30722934276DBFFF798FF72
:10A4E000002042E0616806FB0011FFF747FF0130E2
:10A4F000DBE7009800EB05114FEA051CCB683B40F9
:10A50000B3F5000F48D00AD8B3F5001F30D0B3F52B
:10A51000800F36D0B3F5801F10D00135D3E7B3F1EB
:10A52000807F42D0B3F1007FF7D150F80C308868BB
:10A530004A6808F0FDFB40F4802009E050F80C3038
:10A5400088684A6808F0F4FB40F0885040F43020F6
:10A55000CDE901230390D8F890302078C3F3072386
:10A56000013B98422AD96FF0150005B0BDE8F08391
:10A5700050F80C3088684A6808F0DAFB40EA0900B5
:10A58000E6E750F80C3088684A6808F0D1FB40F0E4
:10A59000007040F40030DBE750F80C3088684A68FF
:10A5A00008F0C6FB40F08270D2E750F80C308868A3
:10A5B0004A6808F0BDFB40F08870C9E701A9FFF7C1
:10A5C000DDFE237801332370A7E7C1F89830C1F886
:10A5D000A00001337CE74FF0FF30C6E700ED00E05C
:10A5E000344C0300B61800200000F0FF00000811F2
:10A5F00008B5024805F0CEFDFEE700BFD1500300CC
:10A6000008B5024B1B689847002008BD540C002079
:10A61000034B044A1860937843F002039370704729
:10A62000540C00204401002008B50649064821F0DA
:10A630000701C1F1005202F5802207F06CFB0020F7
:10A6400008BD00BF37440020580C00200E4A0123EB
:10A65000C2F840354FF080424FF08051C2F8783553
:10A66000D1F83001082808D1D1F83411052904D8CF
:10A670000648415C09B1C2F838364FF080430122E8
:10A68000C3F880250020704700E00140D650030049
:10A6900020B1034B800143F001031847704700BF0E
:10A6A0007048030010B50C460146084808F034F91C
:10A6B00050B1022C08D150F8083C2BB11B691BB1DA
:10A6C000BDE810400068184710BD00BF7C0C00209A
:10A6D000F8B590F90030002B04460D46174602DB12
:10A6E0006FF01500F8BD038823F0E0039BB240F241
:10A6F00001629342F4D1468801791248360A08F083
:10A70000FDF80028ECD0212E04D0222E0FD06FF0BF
:10A710008500E7E70368E1885B685B6813F8092F49
:10A72000914294BF29602A603B600020DAE7E38809
:10A7300050F80C2C9A4294BF2A602B6050F8103CC1
:10A74000F2E700BF7C0C00202DE9F04104460E46E4
:10A7500001791448174608F0D1F80546D0B194F9AC
:10A76000002000686378002A0DDA012B16D155F815
:10A77000083C9BB11D688DB13B4632462146AC4634
:10A78000BDE8F0416047092B08D155F8083C2BB1D2
:10A790005D68F0E76FF01200BDE8F0816FF08500B2
:10A7A000FAE700BF7C0C002010B50C4601460F48AC
:10A7B00008F098F850B1611E052907D8DFE801F0CC
:10A7C000070603070D0F012300F8043C10BD00230A
:10A7D00000F8043C00F8033CF8E70123FAE710F81E
:10A7E000033C002BF2D00023F4E700BF7C0C0020D8
:10A7F00010B50469C4E90012A36000236361064B2D
:10A800002061596804F1140211B9C3E9002210BD96
:10A810000A605A60FBE700BF7C0C0020054B1B78E8
:10A8200033B14FF0FF324FF0FF33043004F070BB10
:10A83000704700BFBF180020034B1B7813B10430D2
:10A8400004F0DEBB704700BFBF18002007B501232E
:10A850008DF807000DF107020021034808F0C3FA44
:10A8600003B05DF804FB00BF80450300020600F062
:10A870007F0312D5082B05D1010700F00F0306D581
:10A880000E48704710F0780F12D100F00F034C20E3
:10A8900000EB43100A4B18447047082B05D1020700
:10A8A00000F00F0306D50748704710F0780FF6D078
:10A8B00000207047044800EB43107047000E002052
:10A8C000B40C0020200F0020200E00200149024877
:10A8D00009F0FEB8DC0C00205005002001460148BC
:10A8E00009F051B81403002002480022002304F0AC
:10A8F000D7BB00BF1403002013B5124800F0FCFEC4
:10A90000114B98421AD1114803F09EFC00241048C4
:10A9100003F0E0FC0F49104800944FF0FF334FF470
:10A92000806204F04FFD0D490B4809F006F90C4810
:10A930000C4909F0B1F8204602B010BD6FF00400D8
:10A94000FAE700BF4DAB02000000AD0BF65003006C
:10A95000A04C0300801D002050050020E85003009B
:10A96000DC0C002069AC020010B50E49BFF35B8F10
:10A97000002351E8002F012A03D141E800300028CC
:10A98000F7D1BFF35B8F0CD151F8044C143920463A
:10A9900007F006FB783004D12046BDE8104007F0F0
:10A9A000DBBA10BDD40C002038B5002464F07F0061
:10A9B000C0B2FFF75BFF013408F0CEFA082CF5D1E6
:10A9C0000E4D0024E0B2FFF751FF036903B90561A2
:10A9D000013408F0C1FA082C05F14005F2D108480D
:10A9E00008F0BAFA074BD3F87C2212B9064AC3F82A
:10A9F0007C22064808F0B0FA002038BD441300203D
:10AA0000000E0020B40C0020440F0020200F002076
:10AA100010B5054CFFF768FF20B14168204608F0EB
:10AA2000D3FEF7E710BD00BF8802002007B5002362
:10AA30000E48002201A904F083F990B1FFF7E8FF66
:10AA40000A480022002301A904F07AF938B90198D4
:10AA5000042340600374FFF741FFFFF737FF002036
:10AA600001E00198406003B05DF804FB880200201B
:10AA7000022810B511D8094B1C5CFFF7D7FF60B155
:10AA8000002202740472FFF729FF054B93F824306B
:10AA90001BB1BDE81040FFF719BF10BDF350030014
:10AAA000B40C0020F8B5877806463846FFF7DEFE7E
:10AAB0003B06F578044612D5002D43D1FFF7B6FFCB
:10AAC000034600283ED00122A577027403220273B8
:10AAD0009C60FFF703FFBDE8F840FFF7F7BE4DB1FC
:10AAE000012D2FD1FFF7A2FF034658B365770574F8
:10AAF0000573EDE7FFF79AFF20B3B278124B12F01F
:10AB0000800F02F0080111D041B1D3F8A836E360FC
:10AB100001230374022303738460DAE702F00F0257
:10AB2000142101FB0233D3F80836F0E711B1D3F852
:10AB3000A837ECE702F00F02142101FB0233D3F82F
:10AB40000837E4E7F8BD00BF00700240F0B50646E4
:10AB500089B01422002103A809F019FB3378013BC6
:10AB6000052B21D8DFE803F07A0314146A160323B7
:10AB70008DF814300024FFF759FF0346A0B1047488
:10AB800000F10802DDE9050182E8030018461DE036
:10AB90000423EDE7B7783846FFF768FE837A04466A
:10ABA00023B1013B022B43D909B0F0BD3B06F57838
:10ABB00013D5002DF8D1FFF739FF03460028F3D055
:10ABC0000122A5770274032202739C60FFF786FEC0
:10ABD00009B0BDE8F040FFF779BE55B1012DE3D1D2
:10ABE000FFF724FF03460028DED065770574057360
:10ABF000EBE7FFF71BFF07460028D5D001230374BE
:10AC000002230373846004F10C01B07808F00EFA9B
:10AC1000134AE168B2F88C328B4206D95B1AA2F86B
:10AC20008C3201F0B7F83846D0E7A2F88C52FAE738
:10AC3000304609B0BDE8F040FFF734BF01A801F08D
:10AC400087F89DF80530052B04D19DF8043013F0EA
:10AC5000600FA9D0034B059301248CE702248AE7F7
:10AC6000B40C0020200E00202DE9F043A64CDFF8A4
:10AC70009C9285B08046FFF737FE074610B905B0B5
:10AC8000BDE8F08394F825303A7C3BB9002A00F007
:10AC9000868079689D4808F097FDECE7042A42D841
:10ACA000DFE812F07D0005000001160140013B7B4A
:10ACB000BD68032B37D8DFE803F0023D5A5F6E69A9
:10ACC000934B002232607260D3F880143170D3F855
:10ACD00084147170D3F88814D3F88C0441EA0021ED
:10ACE0007180D3F89014D3F8940441EA0021B18024
:10ACF000D3F89814D3F89C3441EA0323F380082353
:10AD0000EB6030687168834B03C311462B68687A27
:10AD1000984796F90030002B08DBF38833B1A4F88C
:10AD20008C3201F037F879684846B4E70023A4F87C
:10AD30008C32F8E76B7F002BF5D02B7F002BF2D005
:10AD400000266E774FF0FF3273482E774FF0FF33B7
:10AD500008F015F96B6901936B68CDE9023601A91A
:10AD6000687A00F01FFD6C4808F00BF9DBE72B68F0
:10AD70000121687A9847D6E7AB7A6BB9EB7F5BB96C
:10AD800065484FF0FF324FF0FF3308F0F8F801F05C
:10AD900007F8614808F0F5F82B680221E9E73A7AEC
:10ADA000042AC0D8DFE802F059032367730000F0DB
:10ADB0002BFC05460028B6D100F066FBBFF35B8F85
:10ADC0005649012351E8002F002A03D141E8003001
:10ADD0000028F7D1BFF35B8FA5D141F8085C41F89B
:10ADE000105CE0696361143907F05FF89BE70025A8
:10ADF00065F07F00C0B2FFF739FD037A13B1407AE6
:10AE000001F032F90135082DF2D194F854311BB11B
:10AE100094F8550101F028F90025E8B2FFF726FD66
:10AE2000037A13B1407A01F01FF90135082DF4D1EE
:10AE300094F874321BB194F8750201F015F90020F2
:10AE400000F0C6FB012384F825302368002B3FF473
:10AE50006AAF00210220984765E7002584F8255055
:10AE600001F068F8FFF780FD2368002B3FF45BAF2B
:10AE700029460420EFE7002B3FF455AF00F0CEFB4E
:10AE80002368002B3FF44FAF00210520E3E7226841
:10AE9000002A3FF448AF002B3FF445AF00210620C5
:10AEA000904740E708F110054FF0FF334FF0FF32B5
:10AEB000284608F064F8FFF777FD284608F061F8A7
:10AEC00058F8283C002B3FF42EAF00210120C2E7A8
:10AED00094F874327BB1012584F8895284F8885241
:10AEE000FFF7A4FD38B10E4A057405738260FFF7C1
:10AEF000F5FCFFF7EBFC58F8283C002B3FF413AFB0
:10AF000000210A20A7E700BFB40C0020880200201F
:10AF100000700240B80C0020EC0C0020D40C002083
:10AF2000200F002008F0E6FB01F004F800F0A2FA80
:10AF3000FFF76EFDFFF738FD08F0D5FB014800F084
:10AF4000DBFBF0E64DAB020038B5164D95F824401A
:10AF50002CBB05F1380008F08EFC204601F0D8F932
:10AF600022460121E8612720FFF7CCF808F0BBFB5F
:10AF7000FFF71AFD044610B9012385F824300A4B67
:10AF80001B680BB1FFF7A2FC4FF08043D3F83834B5
:10AF9000DB0702D50020FFF76BFD204638BD0024FB
:10AFA000FBE700BFB40C002014030020074B93F80C
:10AFB00024203AB193F82530002B14BF00206FF005
:10AFC000120070476FF01200704700BFB40C0020F1
:10AFD00038B5104B93F824300446C3B105782846A1
:10AFE000FFF744FC10B96FF0150038BD45722379A6
:10AFF0008372638843602078618810F0080F02D163
:10B000004B1E0B42EFD108F00CF80020EDE76FF07B
:10B010001200EAE7B40C002038B5124B93F8242054
:10B020000546CAB193F82530B3B1FFF71FFC0446BB
:10B03000A8B1837A012B12D007D9023B012B07D983
:10B040006369A3610020E06038BD00F0AFFEF7E760
:10B05000284600F051FEF3E76FF01200F4E76FF0BE
:10B060001500F1E7B40C002038B50E4B93F82420FE
:10B07000054682B193F825306BB1FFF7F7FB68B155
:10B0800015F008040AD1284600F058FE284601F0C1
:10B0900023F8204638BD6FF01200FBE76FF0150073
:10B0A000F8E700BFB40C002038B50C4B93F824200F
:10B0B00005460C4662B193F825304BB1FFF7D6FB3D
:10B0C00048B144B1284600F01FFE2070002038BD72
:10B0D0006FF01200FBE76FF01500F8E7B40C0020EA
:10B0E00070B5134E96F824300446C3B1FFF7BEFB8B
:10B0F0000546B8B1230705D4204600F01FFE2046C0
:10B1000000F0EAFF2B7A83B901232B7296F82530E1
:10B110000BB9002070BD204600F0A6FFF9E76FF0E4
:10B120001200F7E76FF01500F4E76FF07700F1E732
:10B13000B40C00202DE9F043DFF8EC801E4698F8AF
:10B14000243085B0074689461546002B61D098F813
:10B150002530002B5DD003065ED5FFF787FB044644
:10B16000002859D0037A002B56D04FF0FF334FF010
:10B17000FF3208F1380007F002FFA37F4BB108F15E
:10B18000380007F0FEFE6FF00A04204605B0BDE867
:10B19000F083A37AC5B13BB30123A3774FF0000836
:10B1A00001A93846CDE90195CDF80C8000F0FAFAF6
:10B1B0001B4B984229D084F81E801EBB6FF00404FC
:10B1C000184807F0DEFEE0E7E27F02B1E577002BEA
:10B1D000E2D100F0F1FD8742DED000F0E1FD114840
:10B1E00007F0CFFE0024D0E7B8F80A30AB42F0D920
:10B1F0006268B5FBF2F302FB1353002BE9D1012384
:10B20000E377E6E7C6F80080D8E706B135600024AA
:10B21000D6E76FF01204B8E76FF01504B5E700BF8A
:10B220000000AD0BEC0C0020B40C00202DE9F04127
:10B230001D46204B174693F824200E46002A33D093
:10B2400093F8253083B3030631D401B97FBBFFF7F0
:10B250000DFB044658B3037A4BB34FF0FF33164847
:10B260004FF0FF3207F08BFEE368BB42984628BFE1
:10B27000B84646B93FB905B12B600F4807F081FECB
:10B280000020BDE8F081A1694246304608F057FF32
:10B29000A3694344A361E368A3EB0803E360002DC3
:10B2A000EBD0C5F80080E8E76FF01200E9E76FF037
:10B2B0001500E6E7B40C0020EC0C002070B51E4D24
:10B2C00095F82420034682B395F825206AB31B061F
:10B2D0002ED4FFF7CBFA044650B3037A43B34FF0B2
:10B2E000FF334FF0FF3205F1380007F048FEE36806
:10B2F000B3B9012663692677A361637F83B1FFF742
:10B3000095FB30B905F1380007F03BFE6FF00B00FC
:10B3100070BD067484600673FFF7E0FAFFF7D6FA93
:10B32000064807F02EFE0020F2E76FF01200EFE76C
:10B330006FF01500ECE700BFB40C0020EC0C00200F
:10B3400010B5084B93F824300C462BB1FFF78EFA5A
:10B3500028B10460002010BD6FF01200FBE76FF011
:10B360001500F8E7B40C0020014B1860704700BFCF
:10B37000B40C002008B5074B93F8243023B1FFF735
:10B3800075FA20B1406808BD6FF01200FBE76FF05E
:10B390001500F8E7B40C00204FF08053D3F83021AB
:10B3A000082A06D1D3F83431052B04D8034AD05CDF
:10B3B0007047002070470120704700BFF75003001E
:10B3C000064B10F0800FA3F1D80208BF134600F01F
:10B3D0000F00182202FB0030704700BF5C160020EF
:10B3E000EFF31180202383F31288BFF36F8F0A4B92
:10B3F000D3F8001C032261B949F27531C3F8001C6F
:10B40000C3F8142DC3F8001C80F31188BFF36F8FAD
:10B410007047C3F8142DF7E700E00640EFF3118002
:10B42000202383F31288BFF36F8F0A4BD3F8001CDD
:10B4300061B949F27532C3F8002CC3F8141DC3F882
:10B44000002C80F31188BFF36F8F70470022C3F880
:10B45000142DF6E700E006404FF08053D3F830316A
:10B46000082B02BF024B0022C3F81C2C704700BF00
:10B4700000700240024A00231360024A13707047B2
:10B480003C170020BB18002008B54A4B4FF400625F
:10B49000C3F80024FFF780FF08B1FFF7A1FF4FF0CA
:10B4A0008053D3F83031082B18D1EFF311802023CB
:10B4B00083F31288BFF36F8F3F4BD3F8001CC02279
:10B4C00000296ED149F27531C3F8001CC3F8142C61
:10B4D000C3F8001C80F31188BFF36F8F354B012236
:10B4E000C3F80025D3F800241205FBD54FF4006201
:10B4F000C3F800244FF08053D3F83031082B17D114
:10B50000EFF31180202383F31288BFF36F8F2A4B50
:10B51000D3F8001C002947D149F27532C3F8002C3A
:10B52000C3F8141CC3F8002C80F31188BFF36F8F8D
:10B53000FFF732FF30B1FFF771FFFFF72DFF08B1C2
:10B54000FFF74EFF4FF08053D3F83031082B194BE3
:10B550000AD140F2E372C3F800284022C3F804285D
:10B56000BFF36F8FBFF34F8F8022C3F81C250122DA
:10B57000C3F83025114B40F2FF121A60104B002126
:10B580001960104B1970FFF767FF0F4B19700F4BC5
:10B5900002221A70FFF700FF50B1BDE80840FFF724
:10B5A0003DBFC3F8142C95E70022C3F8142CBBE769
:10B5B00008BD00BF0070024000E0064038170020C0
:10B5C00034170020B7180020B9180020BB1800203D
:10B5D000094B002210B51A70084A094B094C002883
:10B5E00008BF1346C4F800332720FEF75BFD012394
:10B5F000C4F8043510BD00BFBA180020FDFFDF01FC
:10B60000FDFFFF0100700240034B1878012894BF32
:10B6100000200120704700BFBB18002010B54FF07C
:10B62000FF324FF0FF33154803F0A0FDEFF3118117
:10B63000202383F31288BFF36F8F114B1B7803F025
:10B64000FF0483B10F4BD3F8002412F400720AD127
:10B650000120C3F82C05D3F82C05D3F8000480058D
:10B6600002D5C3F82C25002481F31188BFF36F8F16
:10B67000024803F047FD204610BD00BFF402002041
:10B68000BA1800200070024010B5EFF31184202397
:10B6900083F31288BFF36F8F144B1B7803F0FF0006
:10B6A000CBB1134AD2F82C35EBB10023C2F82C35BC
:10B6B0004FF08053D3F83031082B0CD10D4BD3F819
:10B6C000001CC02261B949F27531C3F8001CC3F8EF
:10B6D000142CC3F8001C84F31188BFF36F8F10BDC6
:10B6E000C3F8142CF7E71846F5E700BFBA18002096
:10B6F0000070024000E00640F8B51C4B1C7894BB7B
:10B700001B4A106001221A7040F2FF17264664F0AF
:10B710007F0514F0080FEDB214BF394640212846CA
:10B7200007F07FFC2846FFF74BFE0134092C867595
:10B7300006730661EBD1002440F2FF17254614F092
:10B74000080FE6B214BF39464021304607F069FCC5
:10B750003046FFF735FE0134092C85750573056108
:10B76000EDD10448F8BD0448FCE700BFBB18002039
:10B770003C1700200000AD0B0500AD0B084B10F08E
:10B78000800F00F00F0114BFD3F81025D3F8142553
:10B7900001238B40134214BF01200020704700BFDB
:10B7A000007002402DE9F8430246EFF31187202391
:10B7B00083F31288BFF36F8F030703D1184B1B78F5
:10B7C000834229D1174B184E1C683568104607F084
:10B7D00020FCE443A4B24FF001092C4309FA00F81D
:10B7E00014EA08041AD11046FFF7EAFD80F80C901D
:10B7F000034607C91C6183E807009C750B4B0C4886
:10B8000045EA080580223560C3F8042187F31188D2
:10B81000BFF36F8FBDE8F8830648F7E70648F5E702
:10B82000B9180020381700203417002000E100E08C
:10B830000000AD0B0A00AD0B0B00AD0B10F0080FB4
:10B84000074B06D0D3F8C00410F4803F18BF002087
:10B85000704700F00F0000F5947053F82000704717
:10B86000007002402DE9F74FAB4BAC4ED3F854219A
:10B87000DAB10022C3F85421D3F80413890214D595
:10B880008DF80420D3F82025ADF80620D3F8C03475
:10B89000002B336814BF4FF001224FF48072134322
:10B8A00033609F4B01A81B6898479B4BD3F86041BE
:10B8B00034B10022C3F86021D3F86C44C3F86C445F
:10B8C000D3F828214AB10022C3F82821954B1878D3
:10B8D00007F09FFB012383401C43DFF86482924FF3
:10B8E00098F8005098F9009015F0080143D1B9F18B
:10B8F000000F05F00F032EDA8C4A52F8230020B314
:10B9000042F823101422534303F1804303F51C3300
:10B91000D3F80836864A117803F001034B401370C0
:10B92000FFF79AFD834803F0EDFB2846FFF748FD3B
:10B93000837D032B37D1284607F06BFB012303FAE5
:10B9400000F03B6823EA00033B60DFF8D4A1012547
:10B950004FF006095DE0784A52F823000028F4D041
:10B9600042F823101422534303F1804303F51C33A0
:10B97000D3F80837CEE7B9F1000F674B09DBD3F8EE
:10B980005021002AE1D00022C3F85021D3F8A83773
:10B99000C0E7D3F82C21002AD7D00022C3F82C21ED
:10B9A000D3F8A836B6E7037BDBB9284607F031FBAE
:10B9B000012303FA00F03B68B9F1000F23EA00030A
:10B9C0003B6001DA882DC0D106238DF804300023B6
:10B9D0008DF80730524B8DF806501B6801A8984728
:10B9E000B3E7002DB1D14C4B0122DA64ADE794FAF4
:10B9F000A4F03268B0FA80F005FA00F31A430F2879
:10BA0000326024EA03043A6840F39C80134200F059
:10BA1000A980002CEBD1404BD3F800215AB1C3F8D8
:10BA20000041464B1C703F4B1C70012301933C4B63
:10BA300001A81B689847384BD3F85821002A2ED00C
:10BA40000022C3F85821D3F80044C3F80044E305AA
:10BA500008D53A4B01221A7002230193304B01A8FA
:10BA60001B689847A50508D5344B00221A7003239C
:10BA700001932B4B01A81B68984760050FD52F4BEE
:10BA80001A7862B100221A70234B0122C3F80825EC
:10BA90009A6504230193224B01A81B6898471E4B0B
:10BAA000D3F85C3103B3234B9B681BB998F8003083
:10BAB000590619D0184B0022C3F85C21D3F8803402
:10BAC000184A23F07F0313703B6823F001133B6097
:10BAD000336823F4803343F001033360052301937B
:10BAE0000F4B01A81B6898473A6833681A4200F068
:10BAF000EB8010480022002303F038FB002840F0C0
:10BB0000E380054BD3F82C35002B7BD0094803B0DC
:10BB1000BDE8F04F03F0F6BA00700240381700207D
:10BB20003C170020B918002034170020087102408B
:10BB3000B7180020F402002030710240BA1800202B
:10BB4000B818002013407FF464AF60F07F018DF8D7
:10BB500004908DF806108DF80730DAF8003001A84F
:10BB6000984756E7A0F110018DF804908DF8061063
:10BB70008DF80750F1E749F080052846FFF720FCD3
:10BB80004368B0F814A001689A4528BF9A4601F0AE
:10BB90006043B3F1005F044604D05448524608F0B5
:10BBA000CEFA52492268636852442260A268A3EB2D
:10BBB0000A03D20768B2636053D5BAF1000F52D1BD
:10BBC000002323734FE011464FF0000A604545D132
:10BBD000003B18BF0123002A42D0504540D9012321
:10BBE00003FA09F32BEA03033B6006238DF80430C4
:10BBF0003F4B8DF8065002221B68A2758DF8072076
:10BC000001A89847D7F800B033681BEA03093FF44E
:10BC10007DAF19F0012314BF93FAA3F999FAA9F99A
:10BC2000B9FA89F9B9F10F0FA5D9A9F11005EDB24B
:10BC30002846FFF7C5FB04462846FFF7FFFD63686B
:10BC4000B4F814C022689842BDD81B1A00EB020E4B
:10BC500011466360C4F800E08246B7E70023BAE704
:10BC600068B2002BACD04FF08053D3F83031082BA2
:10BC700002BF204B8222C3F81C2C336888F8005086
:10BC8000012202FA09F923EA09033360236915F056
:10BC9000080F53442361174B19D1002805F00F05F5
:10BCA0004FF0140000FB0530A9BF0A3503EB8503F4
:10BCB000C0F80017C0F804A7AFBF43F82520C0F8AC
:10BCC0000016C0F804A65A6003B0BDE8F08F002843
:10BCD000B5BFC3F8A016C3F8A017C3F8A4A6C3F84D
:10BCE000A4A7B4BF5A629A64EEE700BF44150020CF
:10BCF0003C17002000700240024B40F48070C3F8F3
:10BD00001805704700700240030713D400F00F03BA
:10BD100010F0800F084A0BBF03F5887303F5847396
:10BD200002EB830252F8230008BF5068003818BFA6
:10BD3000012070470020704700700240034BC3F899
:10BD40000C0540F48070C3F80C0570470070024089
:10BD50000023036043600E4BD3F880240270D3F8B5
:10BD600084244270D3F88824D3F88C1442EA012248
:10BD70004280D3F89024D3F8941442EA01228280BE
:10BD8000D3F89824D3F89C3442EA0323C380704745
:10BD900000700240014B0122DA64704700700240DB
:10BDA000014B01221A65704700700240014B0122CD
:10BDB0005A65704700700240014B1878704700BF09
:10BDC000B918002010B50246EFF31184202383F345
:10BDD0001288BFF36F8F07F01CF90B49012303FA98
:10BDE00000F00B6823EA00030B6012F0080101BFAA
:10BDF00002F00F02054B02F5947243F8221084F30F
:10BE00001188BFF36F8F10BD3817002000700240FB
:10BE1000F7B50146EFF31185202383F31288BFF3B2
:10BE20006F8FFFF7CDFA0646084607F0F2F80122B9
:10BE300011F0800F02FA00F22D4818D1036832EA9F
:10BE400003040AD00846FFF7BDFF0323B37585F34B
:10BE50001188BFF36F8F03B0F0BD2649347323EA16
:10BE6000020303600B6823EA02030B60EDE70B0794
:10BE700015D48029204B2FD001F00F0404F2DA34BE
:10BE80006400C3F80048D3F80448D3F80478E4B257
:10BE900044F002043C43C3F80448D3F80438154F77
:10BEA00004683B6864EA030C1CEA020FCFD013431A
:10BEB0003B60002333730323B3758DF807300F4BBA
:10BEC0008DF8061024EA0204062204601B688DF82F
:10BED000042001A89847BAE740F2B474C3F80048B8
:10BEE000D3F80448D3F80478E4B244F00404D1E76A
:10BEF0003417002038170020007002403C17002043
:10BF000038B50446094D4FF0FF324FF0FF33284655
:10BF100003F02CF92046FFF77BFF284603F0F2F8E8
:10BF2000034B8022C3F8042138BD00BFF402002077
:10BF300000E100E0F8B54FF0FF324FF0FF332B483F
:10BF400003F014F92A4B8022C3F884212720FEF73E
:10BF5000CBF898B1274E284B34681B68240C240476
:10BF60001C43012764BB254D40F2FF13336027209B
:10BF7000C5F80445FEF7A4F8C5F80043204A137835
:10BF80008BB11E4B0021C3F808110121C3F8002614
:10BF9000C3F804165960D3F808110029FBD000211A
:10BFA000C3F808111170154B0022C3F80025FFF7E4
:10BFB00053FA0E4803F0A6F8124B01221A70F8BD8E
:10BFC00094FAA4F5B5FA85F50F2D2846C6BFA5F15C
:10BFD0001000C0B240F08000030701D4FFF718FF43
:10BFE00007FA05F524EA0504BCE700BFF4020020C7
:10BFF00000E100E0381700203417002000700240F4
:10C00000B7180020BB18002010B504464FF0FF32CF
:10C010004FF0FF33114803F0A9F82046FFF7F8FE70
:10C0200004F00F02012393400D4A14F0800F14BF57
:10C03000D2F81015D2F814156FEA030315BF0B40A0
:10C040000B40C2F81035C2F81435044803F05AF812
:10C05000044B8022C3F8042110BD00BFF40200206D
:10C060000070024000E100E070B50446FFF786FB77
:10C0700068B904F00F02012514F0800F144B05FA83
:10C0800002F205D0D3F810150A43C3F8102570BD8D
:10C09000D3F814150A43C3F81425631E062BF6D8EB
:10C0A000EFF31186202383F31288BFF36F8F2046AE
:10C0B000FFF788FE204606F0ACFF064A136885406D
:10C0C00023EA0503136086F31188BFF36F8FDEE761
:10C0D0000070024034170020030610B5044605D452
:10C0E000FFF712FE10B12046FFF76CFE014BC3F8BC
:10C0F000184510BD00700240084B70B5C31A0D46BC
:10C1000007499B10044659430648402206F0ADFFFC
:10C110002B4601462046BDE87040184754170020C2
:10C12000B76DDBB66844030073B50C4C0C4A402372
:10C13000041B00930D460B460A49A41061430646B2
:10C14000094806F0BEFF011E05DA30462B4602B054
:10C15000BDE87040184702B070BD00BF5417002002
:10C160002D310300B76DDBB66844030010B5EFF363
:10C170001184202383F31288BFF36F8F074A13685B
:10C1800023F00201DB07116002D4012007F00FFA4F
:10C1900084F31188BFF36F8F10BD00BFA417002078
:10C1A000002270B5012104461046FDF7ABFF0F4891
:10C1B00001F070FB0E4B984215D101F07BFB266914
:10C1C0000C49304605F05EFE00280BDB0125356486
:10C1D0002469084904F11C0005F054FE002801DB25
:10C1E000E564002070BD6FF00400FBE7F5C20200BB
:10C1F0000000AD0BA44C03001FB500220123CDE9C4
:10C200000223094ACDF800D06B46CDF804D006F0E1
:10C2100086FF002805DB4FF480420023684602F0C9
:10C22000A5FF05B05DF804FB4D31030030B4104BA1
:10C230000C2202FB003301460020D3E90E52986322
:10C24000EFF31180202484F31288BFF36F8F1C6CEE
:10C2500004F0C00444F002041C6480F31188BFF3AE
:10C260006F8F1DB12B46034830BC184730BC704758
:10C27000541700206844030010B4EFF31182202308
:10C2800083F31288BFF36F8F1848016841F00204EE
:10C290000460C80708D482F31188BFF36F8F0120B0
:10C2A0005DF8044B01F01EBB4FF08041D1F80C0447
:10C2B000D1F80C14C907EED5EFF3118083F312887F
:10C2C000BFF36F8F0A490B6C03F0C00343F0020306
:10C2D0000B6480F31188BFF36F8F82F31188BFF373
:10C2E0006F8F00205DF8044BFFF7A0BFA41700205C
:10C2F0005417002010B1012804D07047034B1B6C69
:10C300005B0701D1FFF792BF704700BF54170020B1
:10C31000024AC3B21C2003FB0020704754170020C0
:10C320002DE9F0413849BFF35B8F0746012251E800
:10C33000003F41E800200028F9D1BFF35B8F33B9FB
:10C34000324933484B60CB608A6005F0AEFD7B1EFE
:10C35000012B2BD8012F07D14FF08043D3F81C3489
:10C3600003F00303012B21D007F0E1FB0546F8B9E8
:10C37000284B1B78E3B14FF080430222C3F8082317
:10C380000646DFF894804FF08044D4F81824D4F89F
:10C390001834D20315D503F00303012B01D0012F6C
:10C3A0000FD155B386F31188BFF36F8FBDE8F081CD
:10C3B000EFF31186202383F31288BFF36F8F0125DB
:10C3C000DFE7ADB1304606F0A4FCD4F81835002BF9
:10C3D000DBD1D4F80421002AD7D0C4F80431D4F832
:10C3E00004310123C4F81835C8F88031A360CCE7C4
:10C3F0000021212007F03BFCE7E74FF080430222B9
:10C40000C3F80423D2E700BF5017002040170020D4
:10C4100070170020BF18002000E100E008B50748B1
:10C4200007F085F938B10648FEF7F2F80448FBF743
:10C43000CFFD002008BD6FF01200FBE7A44403000D
:10C4400045C402000A2838B5074D044604D1AB683C
:10C450000D215B6828469847AB6803485B68E1B2EA
:10C460009847204638BD00BFA444030000F1744043
:10C4700000F5A6000A289ABF024B33F910006FF0AE
:10C480000F0070474C4E0300024B0B6001231360FA
:10C49000704700BF2C4D030000487047C04C03009C
:10C4A0000268154BFF2A08BF4FF0FF32C3F824255E
:10C4B0004268FF2A08BF4FF0FF32C3F82825826880
:10C4C000FF2A08BF4FF0FF32C3F83025C268FF2AA9
:10C4D00008BF4FF0FF32C3F834250269FF2A08BFB6
:10C4E0004FF0FF32C3F838254269FF2A08BF4FF0EA
:10C4F000FF32C3F83C25704700900240054B99423B
:10C5000006D14FF0FF324FF0FF33103002F02EBE55
:10C51000704700BF0000AD0B2DE9F04743685D6B2D
:10C5200090B007460AAA0021284606F0CDFF041E57
:10C530006FDB0A9B2A681979186800F005FD041E54
:10C5400067DB002201212920FDF7DCFDD7F80480FC
:10C550003A695A49404602F04DF9FFF787FF041E39
:10C5600052DB574D0FCD0AAC0FC495E803000026EF
:10C570000DF1040984E803000196AB23C9E90166C3
:10C580008DF804304F4BD3F82425D2B20492D3F85F
:10C590002825D2B20592D3F83025D2B20692D3F82C
:10C5A0003425D2B20792D3F83825D2B20892D3F804
:10C5B0003C350AA8DBB20993FFF772FF012002F0B5
:10C5C0008FF904AD01462846FFF76AFF3E4B9942BA
:10C5D00023D13146484606F02CFE041E14DB082009
:10C5E00007F0A0F84FF0030A9F2331460AA8CDE9CF
:10C5F0000A66CDF81090CDF814A08DF828300C956F
:10C6000006F017FE041E0BDA02F088F908B102F0FA
:10C6100073F9204610B0BDE8F0876FF00404F3E72B
:10C620005246494608F1300007F04EFC0446002807
:10C630003ED17A68537F023B012B37D9167F023EE9
:10C64000022E8CBF00260126022006F038FE0028AC
:10C6500031DBC3B2C0F340008642D5D083F0020381
:10C6600000260120ADF800608DF8013006F027FEAD
:10C67000041EC9DB022301210AA88DF800400A9696
:10C68000CDF810D005930C968DF828100B9506F078
:10C69000D0FD04460028B7D1012006F010FE041E8C
:10C6A00001DBE307F8D404EAE474ADE70126CBE745
:10C6B0006FF01204A8E70446A6E700BF2732030084
:10C6C00030480300009002400000AD0B2DE9F34715
:10C6D0000F46054641681E469046002A79D0002B39
:10C6E00077D0042B01D9B30773D117F0030470D1AD
:10C6F000002F6EDBCA6ABB1993426AD8284606F03F
:10C7000017FE204606F0C6FD044648B1012006F09B
:10C71000C1FD284606F0F1FD204602B0BDE8F087D5
:10C72000032E1ED804213A460DEB010006F0F3FF5C
:10C73000044601462869FFF7E1FE274B9C4235D1AC
:10C740003246414601A807F0FAFC04213A460DEBB7
:10C75000010006F0DDFF044601462869FFF7CEFE22
:10C7600024E008F06043B3F1005F02D118F0030F3A
:10C770002BD0DFF864A0042EB14628BF4FF0040987
:10C780004A46414601A807F0DAFC3A46494601A864
:10C7900006F0BEFF044601462869FFF7AFFE544588
:10C7A00004D1B6EB0906C8444F44E4D12046FFF754
:10C7B0005DFE0446012006F06DFD0646284606F0A3
:10C7C0009CFD002C08BF3446A6E73A463146404659
:10C7D000BFE76FF015049FE70000AD0B2DE9F04FA8
:10C7E000824685B088461C461746002A00F08F8096
:10C7F000002B00F088800029C0F289804268D26A4C
:10C80000CB18934200F28380C8F1000505F00305C0
:10C8100006F08EFDA54228BF25467B4203F00303A8
:10C8200007F0030658BF5E42764206F00306A642B2
:10C8300028BF2646631BA41B24F0030423F003092E
:10C84000A145C8BFA14603F0030BC8BFA3EB040B6F
:10C85000B9F1000F18D0BB1908EB0502494618467C
:10C86000019306F058FF04460146DAF81000FFF77E
:10C8700045FE284A94423DD1B54205D0019B4A4627
:10C880001946781907F069FCC5B1C5F10406A8EB93
:10C890000602042102A806F03EFF04460146DAF82B
:10C8A0001000FFF72BFE1B4B9C4223D106F108031F
:10C8B0002A460DEB0301384607F041FCBBF1000F9F
:10C8C00017D0082108EB05024A440DEB010006F0E1
:10C8D00022FF04460146DAF81000FFF70FFE0D4B69
:10C8E0009C4207D109EB05005A4602A9384407F0DB
:10C8F00026FC084C504606F000FD204605B0BDE879
:10C90000F04FFFF7B3BD184605B0BDE8F08F6FF0EC
:10C910001500F9E70000AD0B2DE9F047C1F30B035B
:10C92000D0F804C007460E461546002A6CD0C2F364
:10C930000B0252EA030467D1002965DBDCF82C20E6
:10C940004B19934260D806F0F3FC2046D7F80480D8
:10C9500006F0A0FC0446002850D1DFF8B890D8F8C3
:10C960002C30AB4222D106F0D9FEAA4604463869E3
:10C970002146FFF7C3FD4C452DD15644A5EB0A05D2
:10C9800000214FF4A47007F072F9012006F097FC23
:10C99000041E30DB14F00104F2D1002DDFD10120A0
:10C9A00006F078FC002C08BF044627E0B5F5803F70
:10C9B00009D3B3B2A3B93146012001F0B9FF4FF456
:10C9C000803A0446D3E7B5F5805F09D2104938694B
:10C9D0000F4CFFF793FD2046FFF748FD0446DEE7C6
:10C9E000C6F30B000028F1D1314601F0A1FF4FF44E
:10C9F000805A0446BBE7012006F04CFC384606F09E
:10CA00007CFC2046BDE8F0876FF01504F9E700BF15
:10CA10000400AD0B0000AD0B024B0B600123136053
:10CA2000704700BFA817002000487047344D03002E
:10CA300010B5012211460648064C06F0AFFF06F07D
:10CA400042FE206006F03BFE6060002010BD00BF8B
:10CA5000B0170020A81700204FF08042D2F8101520
:10CA6000D2F8103501F01E0123F01F030B4343F0F1
:10CA70000103C2F81035024B00221A70704700BF44
:10CA8000BC1800204FF08053D3F83031082B20D150
:10CA90004FF08042D2F81015CB071AD5D2F81035D6
:10CAA00001F01E0123F01F030B43C2F81035D2F82A
:10CAB00008315BB1D2F8103523F01F030B4343F06C
:10CAC0000103C2F810356FF08B007047024B012252
:10CAD0001A700020704700BFBC1800202DE9F041FB
