:020000022000DC
:1070000000B00320A1480300718906008D480300E9
:107010008D4803008D4803008D48030000000000E8
:10702000000000000000000000000000BD49030057
:107030008D48030000000000214903008D48030033
:10704000514C030065C00400514C0300514C030037
:10705000514C0300514C0300514C0300514C0300B0
:10706000514C0300514C0300514C0300514C0300A0
:10707000514C0300514C0300514C0300514C030090
:10708000514C0300514C0300514C0300514C030080
:10709000514C0300514C0300514C0300514C030070
:1070A000514C0300514C0300514C0300514C030060
:1070B000514C0300514C0300514C0300514C030050
:1070C000514C0300514C0300514C0300514C030040
:1070D000514C0300514C0300514C0300514C030030
:1070E000514C0300514C0300514C0300514C030020
:1070F000514C0300514C0300514C0300514C030010
:1071000081F0004102E000BF83F0004330B54FEA58
:1071100041044FEA430594EA050F08BF90EA020FC5
:107120001FBF54EA000C55EA020C7FEA645C7FEA58
:10713000655C00F0E2804FEA5454D4EB5555B8BF7B
:107140006D420CDD2C4480EA020281EA030382EAEC
:10715000000083EA010180EA020281EA0303362D7E
:1071600088BF30BD11F0004F4FEA01314FF4801C51
:107170004CEA113102D0404261EB410113F0004F63
:107180004FEA03334CEA133302D0524263EB43031A
:1071900094EA050F00F0A780A4F10104D5F1200EB8
:1071A0000DDB02FA0EFC22FA05F2801841F1000113
:1071B00003FA0EF2801843FA05F359410EE0A5F1E7
:1071C00020050EF1200E012A03FA0EFC28BF4CF018
:1071D000020C43FA05F3C01851EBE37101F00045CE
:1071E00007D54FF0000EDCF1000C7EEB00006EEBDB
:1071F0000101B1F5801F1BD3B1F5001F0CD3490865
:107200005FEA30004FEA3C0C04F101044FEA4452BB
:1072100012F5800F80F09A80BCF1004F08BF5FEA42
:10722000500C50F1000041EB045141EA050130BD22
:107230005FEA4C0C404141EB0101013C28BFB1F534
:10724000801FE9D291F0000F04BF01460020B1FA7F
:1072500081F308BF2033A3F10B03B3F120020CDA52
:107260000C3208DD02F1140CC2F10C0201FA0CF030
:1072700021FA02F10CE002F11402D8BFC2F1200C95
:1072800001FA02F120FA0CFCDCBF41EA0C0190404B
:10729000E41AA2BF01EB0451294330BD6FEA040494
:1072A0001F3C1CDA0C340EDC04F11404C4F120027F
:1072B00020FA04F001FA02F340EA030021FA04F391
:1072C00045EA030130BDC4F10C04C4F1200220FAE8
:1072D00002F001FA04F340EA0300294630BD21FA26
:1072E00004F0294630BD94F0000F83F4801306BFEC
:1072F00081F480110134013D4EE77FEA645C18BFE0
:107300007FEA655C29D094EA050F08BF90EA020F76
:1073100005D054EA000C04BF1946104630BD91EA6E
:10732000030F1EBF0021002030BD5FEA545C05D171
:107330004000494128BF41F0004130BD14F58004B0
:107340003CBF01F5801130BD01F0004545F0FE4124
:1073500041F470014FF0000030BD7FEA645C1ABF59
:10736000194610467FEA655C1CBF0B46024650EA90
:10737000013406BF52EA033591EA030F41F40021BC
:1073800030BD00BF90F0000F04BF0021704730B542
:107390004FF4806404F132044FF000054FF0000117
:1073A00050E700BF90F0000F04BF0021704730B5D8
:1073B0004FF4806404F1320410F0004548BF4042AD
:1073C0004FF000013EE700BF42004FEAE2014FEA02
:1073D00031014FEA02701FBF12F07F4393F07F4FDD
:1073E00081F06051704732F07F4208BF704793F0E0
:1073F0007F4F04BF41F40021704730B54FF46074F3
:1074000001F0004521F000411CE700BF50EA0102F5
:1074100008BF704730B54FF000050AE050EA01029E
:1074200008BF704730B511F0004502D5404261EB0E
:1074300041014FF4806404F132045FEA915C3FF44F
:10744000D8AE4FF003025FEADC0C18BF03325FEAEC
:10745000DC0C18BF033202EBDC02C2F1200300FA9D
:1074600003FC20FA02F001FA03FE40EA0E0021FAC2
:1074700002F11444BDE600BF70B54FF0FF0C4CF4B0
:10748000E06C1CEA11541DBF1CEA135594EA0C0F62
:1074900095EA0C0F00F0DEF82C4481EA030621EA9D
:1074A0004C5123EA4C5350EA013518BF52EA0335D8
:1074B00041F4801143F4801338D0A0FB02CE4FF08A
:1074C0000005E1FB02E506F00042E0FB03E54FF0BA
:1074D0000006E1FB03569CF0000F18BF4EF0010EB2
:1074E000A4F1FF04B6F5007F64F5407404D25FEAAE
:1074F0004E0E6D4146EB060642EAC62141EA555161
:107500004FEAC52040EA5E504FEACE2EB4F1FD0CA2
:1075100088BFBCF5E06F1ED8BEF1004F08BF5FEA20
:10752000500E50F1000041EB045170BD06F00046D2
:1075300046EA010140EA020081EA0301B4EB5C047F
:10754000C2BFD4EB0C0541EA045170BD41F4801177
:107550004FF0000E013C00F3AB8014F1360FDEBF9C
:10756000002001F0004170BDC4F10004203C35DA78
:107570000C341BDC04F11404C4F1200500FA05F3FB
:1075800020FA04F001FA05F240EA020001F000429C
:1075900021F0004110EBD37021FA04F642EB060112
:1075A0005EEA430E08BF20EAD37070BDC4F10C043C
:1075B000C4F1200500FA04F320FA05F001FA04F200
:1075C00040EA020001F0004110EBD37041F10001EC
:1075D0005EEA430E08BF20EAD37070BDC4F12005F7
:1075E00000FA05F24EEA020E20FA04F301FA05F25F
:1075F00043EA020321FA04F001F0004121FA04F207
:1076000020EA020000EBD3705EEA430E08BF20EAD6
:10761000D37070BD94F0000F0FD101F00046400010
:1076200041EB010111F4801F08BF013CF7D041EA92
:10763000060195F0000F18BF704703F00046520096
:1076400043EB030313F4801F08BF013DF7D043EA67
:107650000603704794EA0C0F0CEA135518BF95EA1D
:107660000C0F0CD050EA410618BF52EA4306D1D1A4
:1076700081EA030101F000414FF0000070BD50EAC3
:10768000410606BF1046194652EA430619D094EA4D
:107690000C0F02D150EA013613D195EA0C0F05D137
:1076A00052EA03361CBF104619460AD181EA03018B
:1076B00001F0004141F0FE4141F470014FF0000043
:1076C00070BD41F0FE4141F4780170BD70B54FF0DE
:1076D000FF0C4CF4E06C1CEA11541DBF1CEA13555E
:1076E00094EA0C0F95EA0C0F00F0A7F8A4EB050440
:1076F00081EA030E52EA03354FEA013100F0888037
:107700004FEA03334FF0805545EA131343EA1263FF
:107710004FEA022245EA111545EA10654FEA0026B4
:107720000EF000419D4208BF964244F1FD0404F56D
:10773000407402D25B084FEA3202B61A65EB0305C9
:107740005B084FEA32024FF480104FF4002CB6EB86
:10775000020E75EB030E22BFB61A754640EA0C0006
:107760005B084FEA3202B6EB020E75EB030E22BF46
:10777000B61A754640EA5C005B084FEA3202B6EB87
:10778000020E75EB030E22BFB61A754640EA9C0046
:107790005B084FEA3202B6EB020E75EB030E22BF16
:1077A000B61A754640EADC0055EA060E18D04FEAD4
:1077B000051545EA16754FEA06164FEAC30343EA74
:1077C00052734FEAC2025FEA1C1CC0D111F4801F41
:1077D0000BD141EA00014FF000004FF0004CB6E73A
:1077E00011F4801F04BF01430020B4F1FD0C88BFD9
:1077F000BCF5E06F3FF6AFAEB5EB030C04BFB6EBE4
:10780000020C5FEA500C50F1000041EB045170BDD6
:107810000EF0004E4EEA113114EB5C04C2BFD4EB03
:107820000C0541EA045170BD41F480114FF0000E87
:10783000013C90E645EA060E8DE60CEA135594EA03
:107840000C0F08BF95EA0C0F3FF43BAF94EA0C0F06
:107850000AD150EA01347FF434AF95EA0C0F7FF47B
:1078600025AF104619462CE795EA0C0F06D152EACF
:1078700003353FF4FDAE1046194622E750EA4106B3
:1078800018BF52EA43067FF4C5AE50EA41047FF4C4
:107890000DAF52EA43057FF4EBAE12E74A0011D276
:1078A00012F5001211D20DD56FF47873B3EB62525A
:1078B0000ED44FEAC12343F0004343EA505323FA66
:1078C00002F070474FF00000704750EA013002D1DB
:1078D0004FF0FF3070474FF0000070474FEA410211
:1078E000B2F1E04324BFB3F5001CDCF1FE5C0DD91E
:1078F00001F0004C4FEAC0024CEA5070B2F1004F68
:1079000040EB830008BF20F00100704711F0804F6A
:1079100021D113F13872BCBF01F00040704741F42F
:1079200080114FEA5252C2F11802C2F1200C10FA33
:107930000CF320FA02F018BF40F001004FEAC12317
:107940004FEAD32303FA0CFC40EA0C0023FA02F3BB
:107950004FEA4303CCE77FEA625307D150EA013391
:107960001EBF4FF0FE4040F44000704701F0004061
:1079700040F0FE4040F40000704700BF7BB972B990
:107980000029BEBF00204FF0004106E008BF0028DC
:107990001CBF6FF000414FF0FF3000F057B8ADF161
:1079A000080C6DE904CE002909DB002B1ADB00F07E
:1079B00069F8DDF804E0DDE9022304B070474042D5
:1079C00061EB4101002B1BDB00F05CF8DDF804E00B
:1079D000DDE9022304B0404261EB4101524263EB16
:1079E00043037047524263EB430300F04BF8DDF86A
:1079F00004E0DDE9022304B0404261EB410170473D
:107A0000524263EB430300F03DF8DDF804E0DDE9AA
:107A1000022304B0524263EB4303704753B94AB99F
:107A2000002908BF00281CBF4FF0FF314FF0FF3086
:107A300000F00CB8ADF1080C6DE904CE00F022F8AE
:107A4000DDF804E0DDE9022304B07047704700BFB1
:107A500010F8012B11F8013B012A28BF9A42F7D0F8
:107A6000D01A7047034611F8012B03F8012B002AA6
:107A7000F9D17047034613F8012B002AFBD1181ADD
:107A8000013870472DE9F04786468C460846089E27
:107A9000154674461946002B40F0C2808542B2FA62
:107AA00082F245D94AB1C2F1200300FA02FC2EFA53
:107AB00003F3954043EA0C0C94404FEA154EA8B2EC
:107AC000BCFBFEF8230C0EFB18CC08FB00F943EAC4
:107AD0000C43994528D9EB1808F1FF3704D2994592
:107AE00002D9A8F102072B44A3EB0903A4B2B3FB0C
:107AF000FEFC0EFB1C330CFB00F044EA0344A042E6
:107B000014D92C190CF1FF3304D2A04202D9ACF1E4
:107B100002032C44241A43EA07401EB1D440002338
:107B200034607360BDE8F0874746DDE76346F1E700
:107B300092BB431B01214FEA154EAFB2B3FBFEFCD3
:107B4000200C0EFB1C330CFB07F840EA034398455E
:107B500062D9EB180CF1FF3004D2984502D9ACF190
:107B600002002B44A3EB0803A4B2B3FBFEFC0EFB04
:107B70001C330CFB07F744EA0344A7424ED92C19E7
:107B80000CF1FF3304D2A74202D9ACF102032C441A
:107B9000E41B43EA0040C0E7C2F1200320FA03F1EE
:107BA000954090402EFA03F303434FEA154EAFB2CF
:107BB000B1FBFEFC0EFB1C10190C0CFB07F841EA94
:107BC0000041884504FA02F422D969180CF1FF300B
:107BD00004D2884502D9ACF102002944A1EB080186
:107BE0009BB2B1FBFEFC0EFB1C110CFB07F743EA3A
:107BF00001439F420ED9EB180CF1FF3104D29F4292
:107C000002D9ACF102012B44DB1B41EA004192E7AF
:107C10006046E3E76146F7E76046A3E76346B7E7F8
:107C2000834206D916B9002108467BE7C6E900E081
:107C3000F9E7B3FA83F78FB9834201D3724508D8C5
:107C4000BEEB020460EB030301209C461EB9002139
:107C500068E73846FAE7C6E9004CF8E7C7F1200CB8
:107C6000BB4022FA0CF41C432EFA0CF120FA0CF360
:107C7000B84001434FEA14490EFA07F5B3FBF9F88F
:107C80001FFA84FE09FB18300B0C08FB0EFA43EABE
:107C900000439A4502FA07F240D9E31808F1FF3091
:107CA00004D29A4502D9A8F102002344A3EB0A03A7
:107CB00089B2B3FBF9F809FB183308FB0EFE41EA61
:107CC00003418E452CD9611808F1FF3304D28E454B
:107CD00002D9A8F10203214443EA0040A0FB029824
:107CE000A1EB0E014145CE46434602D306D14D4598
:107CF00004D2B9EB020E68EB04030138002EA6D0C3
:107D0000B5EB0E0261EB030101FA0CFC22FA07F35A
:107D10004CEA0303F940C6E9003198E74046C5E75D
:107D20004346D9E700000000F7B5002101AA40F65C
:107D300003400FF039FE044600286CD1019CE36833
:107D40001B789BB911F0ACF8BFF35B8FA54B1A6899
:107D5000BFF35B8F02F00902BFF35B8F53E8001F94
:107D600043E800200028F9D1BFF35B8F20460DF0D7
:107D700021FA01AA002141F203000FF015FE04468A
:107D8000002848D1019A984DD168D1F80100D1F866
:107D9000051005F1780303C310460DF00BFA2146D8
:107DA00001AA41F201000FF0FFFD044698BB0198C3
:107DB000C3685A7885F870205A88A5F872201A7915
:107DC00085F87120B3F80720A5F87420B3F80530C2
:107DD000A5F876300DF0EEF9214601AA41F2020035
:107DE0000FF0E2FD0446B0B9019FFA6805F1800684
:107DF000531C413218685968344603C4083393420F
:107E00002646F7D138460DF0D5F995F87C305F0657
:107E100004D46FF01204204603B0F0BD01AA002183
:107E200042F203000FF0C0FD04460028F3D1019B8D
:107E30006E4EDA68D2F80100D2F8051003C6184673
:107E40000DF0B8F9214601AA42F202000FF0ACFD94
:107E500004460028DFD1019CE368B3F8012091B209
:107E600049B1D97839B1A5F80421DA78114606F17B
:107E700028005AF0A2F920460DF09CF995F87C6094
:107E80001F2316F02006A5F8203118D1022140F654
:107E90006D400FF0E3FB0446002800F09A800221B9
:107EA0000C3040F020FE012303704670214632461C
:107EB00040F66D400FF078FD04460028ABD195F8F0
:107EC0009C301E0712D501AA002142F21C000FF0BF
:107ED0006BFD044600289ED10198C368D3F80120A9
:107EE000D3F80530C5E938230DF064F995F8D8309A
:107EF0005C060FD501AA002142F22A000FF054FDC2
:107F00000446002887D10198C3685B7885F8223140
:107F10000DF050F9082142F201000FF09FFB0446DA
:107F2000002856D008210C3040F0DDFD95F8D8101F
:107F300011F0400F024640F2022308BF03238807D6
:107F40004CBF43F02C0043F00C0095F8D9308F065D
:107F500048BF40F0400013F0090F18BF40F4006024
:107F6000CE0748BF40F01000002141F0EAF821465A
:107F7000002242F201000FF017FD044600287FF4B2
:107F80004AAF95F87C30B5F80411980624D4C9B9E5
:107F900001AA41F205000FF007FD044600287FF416
:107FA0003AAFB5F80431019C4BB9E368B3F801204E
:107FB000A5F804219A880E4811465AF0FEF820468A
:107FC0000DF0F8F8082140F601400FF047FB044699
:107FD00080B96FF068041EE70029F3D16FF0040444
:107FE00019E700BFBC020020E8010020C002002009
:107FF000F002002008210C3040F075FD95F8D830D3
:10800000D907024653BF4FF000512DA1D1E900011D
:10801000294841F096F82146002240F601400FF031
:10802000C3FC044600287FF4F6AE014601AA4FF6D1
:1080300001400FF0B9FC044620BB01980DF0BAF8DE
:10804000214601AA4FF602400FF0AEFC0446C8B923
:108050000198C368B3F80130A5F8C1300DF0AAF853
:1080600095F8C1305B070DD501AA21464FF60340B4
:108070000FF09AFC30B90198C3685B7885F8C0307E
:108080000DF098F841F06DFC044600287FF4C3AE73
:1080900012F056FA044600287FF4BDAEEB79002BAF
:1080A0003FF4B9AE0821054840F0A9FF0FF0C6FB28
:1080B000B1E600BFAFF3008010880002BC020020D0
:1080C00090880002008000202DE9F843D0E90738AD
:1080D000856903EB08042F34A5420F46164619D8CC
:1080E000DFF87080A3FB080117A3D3E90023FFF793
:1080F00095FC0346601BA0FB080123F07F4412A3FC
:10810000D3E90023FFF78AFC20F07F403C60306019
:10811000BDE8F883DFF83C900BA3D3E90023A5FB6F
:108120000901FFF77BFC20F07F4409480A2106A3E0
:10813000D3E90023E8FB0901FFF770FC20F07F4042
:108140003C603060BDE8F8838D49FD1A07000000EF
:1081500000166BF100CA9A3B9FED0D7B124B134A40
:108160001348144910B483ED007B9FED0B7B82ED27
:10817000007B9FED0B7B104B4FF0FF34002281ED15
:10818000007B04601A605DF8044B19F04BBD00BF22
:10819000FFFFFFFFFF1F00000000000000000000C5
:1081A0001F0000000000000078030020C0670020CE
:1081B000B403012070030020AC0301200000000084
:1081C000002800F05F812DE9F04FB54C94F86A204B
:1081D00012F001058DB040F0A78194F82500FF232F
:1081E00000F0030084F8263023F002FA94F86A00C5
:1081F000420727D494F8292094F8353004EB820202
:1082000004EB8303D66AD3F8388086B1A44831469C
:108210001BF0B4FC33785B0605D5062116F02EFB67
:10822000002800F083819E4841461BF0A7FC33786C
:1082300013F00E0F40F0B780236A93B10C200DB0FD
:10824000BDE8F08F2A4604F16B01C0F3C00023F0B3
:1082500073FBFF2884F82600CCD0284623F00EFAC2
:10826000C8E718F0B1FF8146002800F0718118F0CE
:10827000B7FF8246002800F068811CF0C9F8054667
:10828000002800F06781D0F894004FF6FF732B862A
:1082900005F11C0B002800F04F8105F1840105F168
:1082A000880216F0F7FAB5F882307E4A23F4EF63BD
:1082B00023F0070343F48C7343F00103A5F88230E5
:1082C0001346D2F80120C5F8AB21C5F8B12113F847
:1082D000012B9B88A5F8AF31A5F8B53195F8AA31E7
:1082E00002F0010262F3000362F3410385F8AA3150
:1082F00095F8433003F03F0363F07F0385F8433084
:1083000095F89A3023F0070385F89A3095F84830AD
:1083100023F00F03002785F848304FF4C023C5F839
:1083200098312846C5E91577C5F89470A5F8987076
:1083300085F84570EF86C5F83A70EF65A5F89E712F
:10834000A5F894711EF072FE85F86071C5F864910D
:108350001CF04CFB95F8A43160F3020385F8A431BE
:108360001CF04AFB95F8A43160F3C50385F8A431ED
:1083700095F8903167F3410385F890310121284643
:108380001CF094FF05F1E0001EF0F8FBC4E9189A18
:10839000C4F820B0C5E905772F70ED6124F0A4FC86
:1083A000002840F0C58094F824300121C3F3420333
:1083B0000DF12B008DF82B3016F00AFC0246002838
:1083C00062D098F8011030461BF092F931233649FB
:1083D000A360364BB4F86870A0FB01010025C018FB
:1083E00041F107012CA3D3E90023C4E90555257009
:1083F0006560E560FFF712FB206117F0CBFF00F12D
:1084000009083FB9357805F00F05A5F10105B5FA62
:1084100085F56D0994F82400236965F3000010F0D8
:10842000010584F824004BD0214A099200201060F5
:108430000225204A204F04930BAE0193059203219D
:10844000CDE90200069443460090089607972A4615
:108450000B9517F03DFE314618F078FFA0B917498B
:1084600005914AF2D8330093CDE90300CDE901002C
:108470000797089606944346012203210B9517F0AF
:10848000F3FD43E01BF080B8236A002B3FF4D6AE27
:108490001BF036F8D2E600BF8D49FD1A0700000038
:1084A0006C040120AF41090000CA9A3B8C49FD1AB7
:1084B000600401206D3704003505040049320400D2
:1084C0002B4A2C48049303F24713069402959121FA
:1084D0001360A7FB000301FB0731274B0793274BD2
:1084E00005934FF6FF730992022703930BAE1EA369
:1084F000D3E900230B970896FFF790FA4346CDE99E
:1085000000503A462846032117F0E2FD314618F0A4
:108510001DFF0028B8D194F86A3043F0010384F8B5
:108520006A301BF055FD60B1002088E6122086E617
:108530001AF0E6FF032082E605F18C00C5F89400EE
:10854000ABE6012023F036F8EEE7484618F042FE8D
:10855000072074E6504618F049FE484618F03AFEE7
:10856000F6E700BFAFF300808D49FD1A0700000059
:1085700060040120002AE784350504006D370400FB
:1085800070B590F824308AB0C3F342030D46044618
:1085900001210DF1230016468DF8233016F018FB4B
:1085A0007178024628461BF0A3F81F491F4AA0FB1A
:1085B0000131981841F1070119A3D3E90023FFF70E
:1085C0002DFA23699842054621D21B1A00220192F6
:1085D000174A0293174BA21AA3FB023202219209F7
:1085E00000230A4409AE099113490591CDE90333EB
:1085F0000321D2B206960093184617F0C9FD314602
:1086000018F0A4FE38B9256100200AB070BDFBD96E
:10861000C21A0023DBE70C200AB070BDAFF3008064
:108620008D49FD1A0700000000CA9A3B8C49FD1ACB
:108630006C0401208988888835050400000000004A
:1086400038B5194C9DF810E094F848C01CF00105AD
:1086500023D163F3420C400194F83230A1874FEAF2
:10866000CE0E0EF0180E00F0200040EA0E0023F0AF
:10867000380303430D4884F832309121A2FB0003F4
:1086800084F848C001FB023105A3D3E90023FFF7BA
:10869000C5F9C4E91000284638BD0C25284638BD68
:1086A0008D49FD1A07000000C8670020002AE784F2
:1086B00010B504469DF8080022844FEA411CC00012
:1086C000A17D00F018000CF0200C4CEA000C0C48C6
:1086D00021F038014CEA010CA3FB0002912184F83F
:1086E00016C001FB032104A3D3E90023FFF796F989
:1086F000606210BDAFF300808D49FD1A07000000D5
:10870000002AE784000000002DE9F047044600F14C
:10871000350190F8480094F832305B4DDFF88081E5
:10872000C0F3400060F386138CB084F8323017F049
:1087300085FE94F83220A38F5448E46102F0790258
:10874000002784F832209121A3FB0002C4E90577B9
:10875000277001FB03214AA3D3E90023FFF75EF949
:10876000651B626C4A4B6760AD08A3FB053502F1DF
:108770000903984298BF3A46C5F3470522644FF073
:1087800031028CBF19460146A26005EB4502E76045
:10879000216148F82210064617F0FCFD236A00F11B
:1087A00009074FEA450A002B4AD00DF12C09AA44CB
:1087B00008EB8A030993CDF820900694A38F3348E1
:1087C0004FF00008A3FB0002CDF80C80912101FBC3
:1087D0000321236904932F4B07932F4B05934FF0ED
:1087E000020A27A3D3E90023CDF82CA0FFF716F93E
:1087F000104619464FF47A720023FFF70FF904353B
:10880000EDB2CDE9016003213B462A46CDF8008058
:10881000404617F05DFC494618F098FD60B994F8A1
:10882000483043F0010384F848301BF07DF908B369
:1088300000200CB0BDE8F0870C200CB0BDE8F0873C
:108840000DF12C09CDE90A3321694B460AAA032010
:1088500001F02AFA0028AAD10B99104808A3D3E9FD
:108860000023A1FB0001FFF7D9F80A9B20F07F4706
:108870001F449CE7504622F09DFED9E7AFF30080ED
:108880008D49FD1A07000000C8670020002AE78410
:10889000BD86F21A35050400A53D040000CA9A3BC6
:1088A000FC040120000000002DE9F04F05468BB0CC
:1088B0008B46012002219946144626F09DFD002298
:1088C00002218246012016F035F83F494FF4DC7250
:1088D000284615F0BFFF461D3C4B0093F6B20195AC
:1088E0004B4632460121002017F0ACFC10F0FD0F82
:1088F0000ED0374A3749384840F68F033EF01EFE07
:10890000002383F31188BFF36F8F0323184602DF20
:10891000324BA4FB0348204629A3D3E90023414658
:10892000FFF77CF82E4B20F07F47A7FB033107228F
:10893000E01A02FB071168EB01014FF47A72002381
:10894000FFF76CF8CDE90170CDF800B008950695F9
:10895000296995F9434023480491234931EA2401C8
:1089600028BF01460591214C07944FF6FE710391F3
:108970004B4632460121002017F076FB10F0FD0F28
:108980000ED0134A1349144840F6A4033EF0D6FD16
:10899000002383F31188BFF36F8F0323184602DF90
:1089A000BAF1000F02D10BB0BDE8F08F0122022115
:1089B00010460BB0BDE8F04F15F0BCBFAFF3008020
:1089C0008D49FD1A0700000018680020B14304001B
:1089D000588E08001C8F08008488080000CA9A3B43
:1089E0008D49FD1ADDA6040091A80400514304003E
:1089F0002DE9F0418468228E4FF6FF739A428CB0C5
:108A000045D0054620461EF02BFE2B7D012B00F0A5
:108A10002281022B00F01581002B00F0F48094F8E5
:108A20006061002E40F010812B8A678F94F94320FB
:108A3000CDE90A6673B3002AC0F25A810023A4F874
:108A40009A31AA7C238FFD1802F003030135012B14
:108A5000ADB23BD0B4F89E31002B00F005819D42B1
:108A600080F059815B1B9BB20022062BA4F89E313B
:108A7000628740F2F68094F943309342C0F250810D
:108A8000002326E09DF8271020461CF0D3F80CB0F8
:108A9000BDE8F081002AB8BF84F88561238FAA7CE5
:108AA000FD1802F003030135012BADB20ED0B4F86E
:108AB0009A31002BCED0AB4240F23C815B1BA4F834
:108AC0009A31B4F89E31002BC9D102E00023A4F8FA
:108AD0009E3194F8482063F3820284F848202946A6
:108AE0000DF1270220461EF0DDFA7430CAD0B4F82A
:108AF00098312BB1AB4240F2EC805B1BA4F898316B
:108B0000B4F894312BB1AB4240F2DA805B1BA4F88D
:108B10009431658F16B9AF4200F0C9800135ADB20E
:108B200094F8DD3013F0010731D1DDE90A130A466C
:108B3000002B40F0CC80002900F0BB801F46184677
:108B4000228EE4690694CDE9035605329A4D0290CF
:108B5000CDE90017D2B201210020059517F018FBCE
:108B600010F0FD0F93D018F01BFC84428FD0934A75
:108B7000934994484FF4AE633EF0E0FC002383F346
:108B80001188BFF36F8F0323184602DF7FE794F944
:108B900043206FF30003002A84F8DD307FDB94F874
:108BA0008200C0F3C00100F0070023F0B5FEB4F866
:108BB0007A20B4F878301344628D03F23F131344E3
:108BC0000344814A81480721E3FB0021104678A332
:108BD000D3E90023FEF722FFDDE90A1320F07F42EC
:108BE00020692261904235BF171A801A00200027A1
:108BF0000A46002BA4D157EA010CA1D1002858D075
:108C000019461F469CE794F89A3003F01803182B76
:108C10007FF405AFA18EB4F896218B1D9A42C4BF94
:108C2000931F5B1AB4F89211CCBF9BB213469942C2
:108C300000F09C80A4F89231A4F89431A4F8982113
:108C4000EDE63D2684F86061314620460CB0BDE873
:108C5000F0411BF0EFBF0023A4F89831A4F8943141
:108C6000DDE60126334634E7628E052A97BF0132DE
:108C700040F2E2434FF4FA7392B203FB02F2B4F80B
:108C80009C3142F2107101FB0323013BB3FBF2F371
:108C90009BB2A4F89E31002B7FF4E1AE19E794F863
:108CA0008300012100F0070023F038FE7FE73546FE
:108CB00036E7002D43D00027114638463B463FE7B4
:108CC0000023A4F8943120461EF08EFA21E738469E
:108CD00036E718F0CDFA0146A0B30023A4F8983186
:108CE000238EC3801B230371006818F091FA07E7F5
:108CF00094F885316BB3013B84F8853104F1E008C9
:108D000040461DF07DFFB8B340461DF079FFB8B373
:108D10000023638792E6082120461BF08BFFB6E60E
:108D2000A7B9D4F888315A0813F0010336D1C4F832
:108D30008821A5E63E2120461BF07CFFA7E6002EF9
:108D4000B9D1A4E60123A4F89831D9E61346012647
:108D5000BFE60AAA0BA92846FFF7B6F9DDE90A2300
:108D60001343CBD0237884F88531C7E7B4F8981142
:108D700000297FF454AE5FE7FF201BF017FFC3E725
:108D80000246D4E9210115F09DFD0028C0D194F8D8
:108D900048301B0744BFA38E63874FE642F0004272
:108DA0001E46C4F888213B4693E600BFAFF300801F
:108DB0008D49FD1A070000000D430400588E08007D
:108DC000688F0800848808008C49FD1A00CA9A3B05
:108DD0002DE9F04F87B0CDE90432BDF84420037887
:108DE0000292BDF84820BDF840A0BDF84C90878F96
:108DF000019104460392002B00F0FC80013FBFB2BA
:108E0000A368D4F81CB1A7EB090292B2002B009220
:108E10000ADAE168626823F0004391422CBF8B4478
:108E20009344A360ABEB030B94F88200C0F3C00142
:108E300000F0070023F070FD658E052D40F2E18003
:108E4000009BBAF1050F15FB03F5ADB240F2E24805
:108E500040F2E280B4F87A20B4F87830134403F298
:108E6000D51303447C4A7D480721E3FB00214FF0E2
:108E70009613A36296231046A38575A3D3E9002316
:108E8000FEF7CCFD564620F07F4040F2E24308FB5F
:108E900005F103FB06F6B1FBF6F81FFA88F5206131
:108EA00006FB05F08142A84680F09680401A6B4987
:108EB00067A3D3E90023A0FB0101FEF7AFFD20F07B
:108EC0007F408344E38EB4F824211344994494F8FA
:108ED0004330A9EB0709C844DB09A4F8368000F049
:108EE000A780E26C0099636D02FB1133636523F088
:108EF0004DFF074694F88401C0F3420023F048FF79
:108F0000074406FB07F7564B07F5742707F23F2780
:108F1000A3FB0737BF0C636DE76405FB07F072081E
:108F20000344963A934228BF1346C4E91423059B91
:108F30004A4D40F2E24808FB03F3E3650023A0FB3F
:108F40000501C4F88C3142A3D3E90023FEF766FD86
:108F5000049BABEB000B4348A0FB0330800A08FBEB
:108F600000F0A0FB05013AA3D3E90023FEF756FD6C
:108F7000F71B20F07F45029BA386039BA4F89C313E
:108F800031462046A4F832A01EF0C8F8364BA18E18
:108F90003344881DB3FBF6F39AB29042A4F89621AD
:108FA00004D2C1F57F41FA310A4492B2019BA4F880
:108FB000922113B10023A4F89E315B463A4629461C
:108FC0002046FFF771FC94F8903143F0010384F8D8
:108FD000903107B0BDE8F08F091A20481CA3D3E9EF
:108FE0000023A1FB0001FEF719FD20F07F40ABEB51
:108FF000000B67E7C38E1F44B0F824311F44BFB293
:10900000FEE6009B013515FB03F5BAF1050FADB285
:109010004FF4FA783FF61EAF4FF096130AF10106AF
:10902000A3629623A385B6B20A204FF4FA732EE703
:10903000049B0A48A3FB000105A3D3E90023FEF724
:10904000EDFC20F07F453746013594E7AFF3008013
:109050008D49FD1A070000008C49FD1A00CA9A3B91
:1090600083DE1B435917B7D17FC3C901000000003D
:109070002DE9F04F04460B68077F1668D3F800A06F
:10908000638CD0F81E0095B015464A7CADF84C3084
:10909000FF2AC7F3801388460D9212908DF83F3057
:1090A00076D199461A4612AB93E803000DF1400BB6
:1090B0001090ADF84410F8090AF1710127680A917F
:1090C0005B460C900B971BF09DFC0A99002847D13A
:1090D00096F8AA310C9A0A9069F3410362F30003EF
:1090E00086F8AA311098BBF80430C6F8B101A6F88A
:1090F000B531DAF87130C6F8AB318B88A6F8AF31EC
:10910000E38D94F83010A9722B81D4F82A306B606B
:10911000D4F83A30C5F8223005F1220094F83E30F8
:109120000371052115F054FD95F8273000F03F003C
:1091300060F3050385F8273094F83F30C3F304014A
:1091400085F82810A18EE982012803F01F0389B257
:1091500006D91B3303F01F030B2B01D80A9A59BB06
:109160000022CAF8142095F82C300B9862F3000303
:1091700085F82C30E56801262146267118F03CF868
:1091800028682E71294618F043F815B0BDE8F08F15
:109190000DF1400B10460DF13F015A4621F07AFFC8
:1091A0009DF83F90277F09F102095FFA89F98DF850
:1091B0003F9009F001027EE7D8F800305A60E38E54
:1091C0002B83EB8A40F2E24909FB03F71146638ED9
:1091D0000A9330461DF0B6FF94F83F3096F884218C
:1091E0005B0963F3430286F8842123F0CFFD0C90E2
:1091F00096F88401C0F3420023F0CAFD0C9BC04ADC
:10920000034407FB03F303F5742303F23F23A2FB9C
:1092100003239B0C2B637B08963B6B6394F83130E4
:1092200009FB03F36B64238FA6F89C313946304663
:109230001DF074FFB34BB44AC6F8A0213B44B3FB06
:10924000F7F39AB2A6F89621298B881D824204DD95
:10925000C1F57F41FA310A4492B2A6F892216B68B7
:10926000C6F88831234613F81C2FC2F34019DA07D9
:1092700000F103814FF48073A3839AF8260022F053
:1092800073FC04F12B03002800F0F380626AC4F839
:109290002B20228D9A800D9BFF2B00F02681BDF89C
:1092A0004C301298A4F82930C4F82500BBF80430DB
:1092B000A4F8233010989DF83F30C4F81F00A3771E
:1092C000EB8A63862B8BA386B6F89C31E38696F8EF
:1092D0008431C3F3420384F8383030461BF0A4F8DD
:1092E000A882E08021460B98D8F8044017F084FF4C
:1092F000AB8AE3801C23D4F800B02371B9F1000FCE
:1093000040F0D28084F81C902146584617F080FF28
:1093100095F86700B5F85C90B5F85E40012100F063
:10932000070023F0FBFA4C4404F2D514DFF8E49173
:109330000444834675484FF096130721C5E903336B
:10934000E4FB090131230024B36074606AA3D3E90C
:109350000023F460FEF762FB20F07F4030612D6B4C
:109360000A9A7D1BD8F80C7040F2E24303FB0277A7
:1093700002212246012015F0DDFA50461AF0BAFB10
:1093800007F2B3470246A7EB0B07A7FB09011746F5
:1093900059A3D3E90023FEF741FBCDF804A0D8F888
:1093A00008305B49009120F07F49BA1C3A3BD2B2A9
:1093B0004B440121204616F045FF012800F0818032
:1093C0009AF82430DB0767D430461BF02DF8514B58
:1093D000A5FB035A044648A3D3E900232846514677
:1093E000FEF71CFBD8F808304B4A0792A3F13A0865
:1093F0004A4B069620F07F47A7FB0331E81A484BFB
:1094000005934FF4F573089333694FF0000BCDE9E2
:1094100003B34FF0070303FB07116AEB01014FF49D
:109420007A720023FEF7FAFA0534E4B2CDE901704E
:10943000CDF80090434622460121584616F014FE0E
:1094400010F0FD0F0DD0374A3749384840F2EB1382
:109450003EF074F88BF31188BFF36F8F0323184627
:1094600002DF01220221104615F064FA15B0BDE8B2
:10947000F08FC4F82B0098800DE72A4A2C492B481E
:10948000FD233EF05BF8002383F31188BFF36F8F59
:109490000323184602DFEDE600230122009318465D
:1094A000114616F08DFE8FE795F8273043F0400304
:1094B00085F82730281D21F0E5FB4FF001092885AC
:1094C00020E717F06DFF82453FF47AAF154A19493E
:1094D000164840F292233EF031F884F31188BFF32E
:1094E0006F8F0323184602DF6AE70022C4F82520A5
:1094F000A4F82920DAE600BF8D49FD1A0700000014
:1095000083DE1B437FC3C901404B4C008C49FD1ACD
:109510009DA6040000CA9A3B69A604008D49FD1A65
:10952000DDA60400609408001C8F080084880800F1
:10953000A08B0800BC9408002DE9F04F8DB09B462D
:10954000BDF860300693CDE90401BDF868309DF8A0
:109550005C90BDF864A00393002016461AF046FD07
:10956000002800F06C8109F001070446384616F027
:1095700055FF0290002F71D1169B02995A4638462A
:109580001BF040FA002840F06B81236A089304F135
:109590001C020792002B68D0D4F82080D8F8005025
:1095A0000BF0010A98F86600C0F3C00100F0070054
:1095B00023F0B2F9B8F85E30B8F85C201A44B8F875
:1095C0000E3000F23F1003441344CF48CF4A072126
:1095D000E3FB00211046CAA3D3E90023FEF71EFADD
:1095E00020F07F402861304622F024F894F8333090
:1095F0006FF3410384F83330FF2384F83430002EB6
:1096000000F02181A9F10203012B40F22D8194F891
:109610004810079869F3420184F8481094F8331011
:109620006AF30001DDE9042384F833101699096810
:109630006162169989882185039921860096002107
:10964000FFF736F8606423F04FFB002840F01781E5
:109650002046FFF759F80DB0BDE8F08F062115F050
:109660000DF9002888D11220F5E717F0ADFD09901B
:10967000002800F07A811AF0CBFE0546002800F0A1
:109680007181203015F0B8FA05F11C08002840F06F
:109690002381032105F1240022F0F0FF069BD5F879
:1096A00094006B864FF6FF73A5F834A02B86002834
:1096B00000F0218105F1880205F1840115F0EAF836
:1096C000B5F8823023F4EF6323F0070343F48C737F
:1096D00043F00103A5F8823095F89A304FF0000A64
:1096E00023F0070385F89A300121C5F894A0A5F866
:1096F00098A028461BF0DAFDA5F836A0C5F83AA0D8
:1097000005F13E0021F068FA95F8433060F3050357
:10971000012185F843300DF12F0022F0AFFF039BAC
:109720009DF82F20A5F89C31794B85F845A0A3FB27
:109730000213DB0803EB4303A2EB830295F84330EB
:10974000A98EA5F89EA103F03F0385F8433095F854
:109750004830A5F894A1053223F0070385F844208A
:10976000069A85F8483040F2E24A6A4B0AFB02FA50
:109770004FF4C0225344C5F89821881DB3FBFAF377
:109780009AB28242A5F8962102DD063A521A92B2A6
:10979000A5F8922128461DF049FC514628461DF0A7
:1097A000BDFC0021099B85F86011C5F864311BF0F0
:1097B0001DF995F8A43160F3020385F8A4311BF07C
:1097C0001BF995F8A43160F3C50385F8A43195F829
:1097D0009031002161F3410385F8903105F1E000FB
:1097E0001DF0CCF995F8AA31169A0BF0010A6AF32C
:1097F000410385F8AA314FF09613C5E90A333123A6
:10980000AB600021169B6960E9601B68C5F8B13147
:1098100095F8AA319288A5F8B52169F30003029A58
:1098200085F8AA311368C5F8AB319388A5F8AF3134
:10983000C4F82080C5E905112970ED61B2E60C205D
:109840000DB0BDE8F08F22F04FFB00283FF4DAAEF8
:1098500016995846324622F06FF884F83400D1E663
:109860000B200DB0BDE8F08F002021F007FF94F829
:10987000333043F00203B94684F83330C7E6256A33
:10988000AB6F73B1244A2549254840F229433DF086
:1098900055FE002383F31188BFF36F8F032318460F
:1098A00002DF05F16C0105F1680014F0F7FF0646D0
:1098B000002839D02F68AE67D7F86451002D42D008
:1098C000284617F087FC38461AF0A8FD002303202D
:1098D00023620DB0BDE8F08F0F4A12491048C12332
:1098E0003DF02CFE089B83F31188BFF36F8F032399
:1098F000184602DFCDE605F18C00C5F89400D9E6E4
:109900008D49FD1A0700000000CA9A3B8C49FD1AD8
:10991000ABAAAAAA7FC3C901EC940800348D080041
:109920008488080038890800114A1249124840F218
:109930002B433DF003FE86F31188BFF36F8F0323A3
:10994000184602DFB6E70A4A0A490B4840F232439A
:109950003DF0F4FD85F31188BFF36F8F03231846A4
:1099600002DFADE7099817F035FC072073E600BF6A
:10997000EC940800A88E080084880800000000000D
:109980002DE9F04F04468DB090F81C80238D406A7D
:10999000ADF82C30E307C8F3C0170E461546C8F3E0
:1099A00040180A9000F110810023A383B37C707CDF
:1099B00013F001031CBFD4F81E30C4F82B3004F19F
:1099C0002B0214BF638CC4F82B30FF28938004F162
:1099D000250904F11F0200F0EA8004F11E0121F0C4
:1099E00059FBA37FBDF82C200A98C4F82500023348
:1099F000A377A9F804203368D3F80090EB8A638634
:109A00002B8BA386B9F83030E38623F0BDF984F8B8
:109A100038002F6838461AF007FD0021A882E08040
:109A200038461DF08FFBD6F804A02068214617F0B9
:109A3000E3FBAB8AAAF806301C23DAF800408AF868
:109A40000430B8F1000F40F0CF808AF81C805146F6
:109A5000204617F0DDFBBB687A6895F86600B5F81C
:109A60001680F5686A4C934238BF1346C0F3C001B4
:109A700003F1090A00F0070040F2E24303FB08F893
:109A800022F04AFF002202212D1A012014F052FF79
:109A900048461AF081FAA5FB04455BA3D3E90023ED
:109AA000834629462046FDF7B9FFCDF80490B368F8
:109AB0005849009120F07F490BF10402A3EB0A03FF
:109AC000D2B24B440121002016F0BCFB10F0FD0F78
:109AD0000ED0514A5149524840F249333DF02EFDD3
:109AE000002383F31188BFF36F8F0323184602DF2F
:109AF0004FF0000B5B4603220121CDF800B0584621
:109B000016F05EFB38461AF08FFCB36806464048F4
:109B1000A3EB0A0AA8FB00013BA3D3E90023FDF74E
:109B20007DFF19463F4B08933F4B069340F2793334
:109B3000079709933B698046CDE904B3104600239B
:109B40004FF47A72FDF76AFF384B0722A9FB033105
:109B5000CDE9028002FB0911E01A65EB01014FF427
:109B60007A720023FDF75AFF0536F6B2CDE9009070
:109B7000534632460121584616F092FA10F0FD0F76
:109B80000DD0254A2549264840F27A333DF0D6FCCF
:109B90008BF31188BFF36F8F0323184602DF012276
:109BA000022110460DB0BDE8F04F14F0C3BE0023F3
:109BB000BDF82C100A98C4F82530A9F80430A7770E
:109BC000C4F81F00918016E7134A194914484FF44E
:109BD00031733DF0B3FC002383F31188BFF36F8F23
:109BE0000323184602DFDFE695F8273043F04003F1
:109BF00085F82730281D21F045F84FF00108288509
:109C000023E700BFAFF300808D49FD1A0700000075
:109C100000CA9A3B59A80400EC9408001C8F080065
:109C2000848808005DA8040091A804008D49FD1AED
:109C3000A08B0800000000000538C3B2062B0CD82A
:109C400070B580B20D461AF0F7FB044618B190F9D2
:109C50004330002B03DA002070BD0020704790F8DD
:109C600082000F4EC0F3C00100F0070022F054FE46
:109C70000C4A00F2B5500721E0FB0621104606A36E
:109C8000D3E90023FDF7CAFE20F07F40286020467C
:109C900070BD00BFAFF300808D49FD1A07000000C2
:109CA00000CA9A3B8C49FD1A2DE9F04F93B0FF276B
:109CB0000B930B1D0A930023CDE90E330546164680
:109CC0008DF837709B463C4698469A46994610ABAD
:109CD0000693594B0593594B03930FAB01930EAB6E
:109CE00000200093022310930490029033460DF15C
:109CF0003702294616F0EAFA022812D0109BB3B9AF
:109D0000FF2C25D03368434522D0002F42D0013F9D
:109D1000FF24FFB28DF83740D9E72946002016F01E
:109D200021FB109B022BF8D0109B002BE8D0444A5B
:109D3000444945484FF4EE733DF000FC002383F3A3
:109D40001188BFF36F8F0323184602DFFF2CD9D190
:109D50009DF83700FF282CD011A9FFF76DFF0028D0
:109D6000B5D0FF2CDDF83880119B0AD0494640461B
:109D7000099316F011FB0A9B03EB0A029042099B20
:109D800019D8C1469DF83740D6F80080DDF83CB0C0
:109D90009A469CE72D492A4A2B484FF4F2733DF02E
:109DA000CDFB87F31188BFF36F8F0323184602DFC3
:109DB000ADE7FF2C34D026480721AAFB000301FBA6
:109DC0000A311BA3D3E90023FDF728FE044600B1A6
:109DD0003E34204AABF57423A3F51073934216D892
:109DE0001B480721A9FB000301FB093110A3D3E99C
:109DF0000023FDF713FE184BA3FB0B2304EB934446
:109E00000B9B044400201C6013B0BDE8F08F0BF1E5
:109E1000E87B0BF5D43B09F1FF390BF5A57BDFE7B8
:109E20006FF0090013B0BDE8F08F00BFAFF3008002
:109E300000CA9A3B0000000079AB04007DAB04002F
:109E4000389508007C9508008488080084950800EF
:109E50008D49FD1ABFBDF07F83DE1B43000000006B
:109E60002DE9F043C668476873683D491A68D0F821
:109E70000090A7F57423A3F510738B4283B080463E
:109E800007D907F1E87707F5D43709F1FF3907F566
:109E9000A57773681169DD8ACDF8049006F1100387
:109EA00001AA0220FFF700FF00284ED10199A1EB83
:109EB00009031B0237D40846494616F06DFA0346DB
:109EC00028480721A3FB000201FB032122A3D3E9B9
:109ED0000023FDF7A3FD34690444002C346109DB41
:109EE00040F2E24305FB03F3A3422FD2E41AA3425C
:109EF000FCD33461D8F800301A48A3EB0903A3FB64
:109F00000002072101FB032113A3D3E90023FDF77E
:109F100085FD154BA3FB0737A0EB9740204430612C
:109F200003B0BDE8F083484616F036FA03460D4804
:109F30000721A3FB000201FB032107A3D3E90023B0
:109F4000FDF76CFD3469241AC7E73469002CD1D1C0
:109F500003B0BDE8F08300BF00CA9A3B00000000D8
:109F6000BFBDF07F8D49FD1A83DE1B43000000005A
:109F700010B5334C3349002304F1FF3C14F833206F
:109F8000072A02EB820E05D811F83E206FF3451226
:109F900001F83E201CF833206FF300020CF8332048
:109FA0000133082BEAD1284A284C002313700A7881
:109FB00063F300020A7091F8282063F3000281F82D
:109FC000282091F8502063F3000281F8502091F886
:109FD000782063F3000281F8782091F8A02063F3E1
:109FE000000281F8A02091F8C82063F3000281F8F4
:109FF000C82091F8F02063F3000281F8F02091F876
:10A00000182163F3000281F81821114A9FED0A7BA1
:10A010001370104B83ED007B0F4B236028B1BDE81C
:10A0200010400E490E4858F0A7B9BDE810400C4842
:10A0300058F0B0B9AFF30080FFFFFFFFFFFFFFFF55
:10A040005D1301201C1201205E3E03202C11012013
:10A050005D3E032050740020A0BB0D0071B80400C9
:10A0600020740020000000002DE9F04F8FB00DF1AA
:10A0700037010446DFF8E0A0DFF8E0800DF136009C
:10A0800017F03CF99DF836309DF837B00B9316F079
:10A0900081F9DAF80060A6FB085629A3D3E900236A
:10A0A0000027814631462846FDF7B8FCCDE9077701
:10A0B000069420F07F44DAF80400234B0593A0FBBC
:10A0C00008011FA3D3E90023FDF7A8FC1F4B20F0D4
:10A0D0007F40A4FB0331072202FB0411CDE903708A
:10A0E000E81A66EB01014FF47A720023FDF796FC43
:10A0F0000097CDE901404B460B985A46032115F0D5
:10A10000B3FF10F0FD0404D06FF08B000FB0BDE87A
:10A11000F08F0F480F4A002338F09EFB20B9DAF881
:10A120000C000FB0BDE8F08F9DF837209DF8360089
:10A1300000942346032116F043F86FF07300E5E71F
:10A140008D49FD1A07000000EDBF04008D49FD1A7E
:10A15000D0130120447B0B00E813012000CA9A3B76
:10A1600038B50F4D044616F015F9A96816F014F924
:10A17000696803460B48B3FBF4F4A1FB00011C44DF
:10A1800005A3D3E90023FDF749FC20F07F4084427A
:10A1900094BF0020012038BD8D49FD1A0700000042
:10A1A000E813012000CA9A3BF0B5C468636883B025
:10A1B0000546002B64D124F057FC082024F07AFCDB
:10A1C0000021084624F068FC00222521082024F004
:10A1D000A5FC474B019301A824F08CFC454940F2B3
:10A1E0005B6024F043FD237AC3F3420262F306135B
:10A1F0002046237222F0E8FF21F076FE58BB637AF6
:10A200009B071FD127682E68384622F021FB0644A1
:10A210006A6806F10901012024F082FE24F070FF33
:10A22000204619F073FC811C3246C9B2384622F030
:10A230001DFB054678BB204622F0A4FA88B9002011
:10A2400003B0F0BD012021F0A9F94178821C00780B
:10A2500024F006FED6E7607A10F0030018BF012054
:10A26000F1E7254A2549264840F229433DF066F9A1
:10A2700085F31188BFF36F8F0323184602DFDEE7F3
:10A2800093F82C309A0796D01E48214624F0AAFB5A
:10A2900024F096FCD3E7184A1B49194840F21143B1
:10A2A0003DF04CF9194B0721A5FB030301FB0531D8
:10A2B0000DA3D3E90023FDF7B1FB1549024615486C
:10A2C0003DF03CF9002585F31188BFF36F8F032320
:10A2D000184602DF1048214624F084FB24F070FC6D
:10A2E0006FF08B00ACE700BF00CA9A3B0000000093
:10A2F000D6BE898E5555550058990800588A0800D1
:10A3000084880800FDC904005C8908008D49FD1A95
:10A31000089A0800DC9908009DCD040000000000A8
:10A320002DE9F041C46894F91630002B8CB0C0F2CE
:10A330000581636805460E46002B40F0F480A37D3E
:10A340006FF30003A37524F08FFB082024F0B2FB09
:10A350000021084624F0A0FB00222521082024F03B
:10A36000DDFB012017F0D0F80746002800F0CC8074
:10A3700007F11C0024F0FCFB8B4B0B930BA824F083
:10A38000B9FB8A4940F25B6024F070FCA07DC0F309
:10A390004100253022F07CFA8548214624F022FB3A
:10A3A000A37D9B0603D46368002B00F0AA8096204F
:10A3B00024F0AAFD00231A461946184624F0BCFCD6
:10A3C00021F092FD002838D1A37D13F0180F5BD146
:10A3D000D4F800802F68404622F03AFA07446A68B1
:10A3E00007F10901002024F09BFD24F089FE24F0F0
:10A3F00013FD204619F0DEFD011DC9B240463A4664
:10A4000022F034FA8046002840F09F8016B9636A33
:10A41000002B52D1636843B1664B01220221002018
:10A420009D6014F0BDFA002837D1204622F0AAF929
:10A43000D0B900200CB0BDE8F081A07DC0F3C00011
:10A4400021F0ACF807460DF12B0021F0B5FB79782F
:10A450008046BA1C387824F003FD9DF82B000022BA
:10A46000414624F01BFFB3E7534A5449544840F295
:10A470000B233DF063F8002383F31188BFF36F8F44
:10A480000323184602DFD4E7012021F087F8417842
:10A49000821C007824F0E4FC9AE7474A494948487E
:10A4A00040F206233DF04AF8002383F31188BFF3FE
:10A4B0006F8F0323184602DFB7E7434A0792434AE8
:10A4C000059240F2F31200930892CDE90366CDE9BC
:10A4D000016606943B460322314615F0C5FD10F097
:10A4E000FD0F97D0344A3A4935484FF4FA733DF09E
:10A4F00025F886F31188BFF36F8F0323184602DF18
:10A5000088E724F079FC5BE72B4A32492C484FF46A
:10A51000C5733DF013F887F31188BFF36F8F0323E2
:10A52000184602DF24E7636893F82C30D90705D476
:10A53000636893F82C309A077FF501AF26482146CF
:10A5400024F050FA24F03CFB73E71B4A23491C48D3
:10A5500040F2E5133CF0F2FF214B0721A8FB030377
:10A5600001FB08310EA3D3E90023FDF757FA1D497B
:10A5700002461D483CF0E2FF002585F31188BFF339
:10A580006F8F0323184602DF1848214624F02AFA69
:10A5900024F016FB6FF08B004CE700BFAFF3008098
:10A5A00000CA9A3B00000000D6BE898E5555550062
:10A5B00091A6020074200020149A0800588A08000E
:10A5C000848808007089080039D90400E1D90400A2
:10A5D000808C0800A4990800FDC904005C8908006B
:10A5E0008D49FD1A609A0800DC99080011D8040012
:10A5F00038B5044623F0BAF8A37DA27DC3F3410326
:10A60000013303F00303032B08BF002363F342026B
:10A6100014BF03F125002520A27522F039F96368E3
:10A620000BB123694BB915F0B5FEC11C002024F015
:10A63000EBFCBDE8384024F063BD24F013FD054673
:10A6400015F0A8FEC11C002024F0DEFC24F058FD0B
:10A6500024F008FD294615F09FFE0B4A034607210A
:10A66000A0FB020201FB032105A3D3E90023FDF7B0
:10A67000D5F923691B1A236138BD00BFAFF30080F1
:10A6800000CA9A3B000000008D49FD1A000000003E
:10A690002DE9F0478AB0044624F0D2FAC0B250B98E
:10A6A00022F050F9C648214624F09CF90AB0BDE8D2
:10A6B000F04724F085BA24F0E5FA054624F004FCBE
:10A6C000074624F00BFC814624F042FE064624F0A7
:10A6D00021FE824624F0BAFBEDB2804624F09AFBBC
:10A6E00022F030F9002DDDD0012016F00DFF0546D7
:10A6F000002800F0528117F0FF07F6B240F0E88022
:10A70000002E40F0DF804FF0FF093A464B463146BD
:10A71000204623F061FA0028C4D02A7F6168002314
:10A720008DF823305FFA88F702F00F03002900F05C
:10A73000F180616891F82C10880700F1EB80072BFD
:10A74000B0D0A17D090740F14781002B40F0C980BE
:10A750006B7F063B1F2BA5D8042016F0D5FE0028E2
:10A76000A0D024F0D5FC636A074643B9238C40F29D
:10A77000712202FB03F3B0FBF3F203FB1207236821
:10A780001A69904B0721A2FB030301FB02318AA344
:10A79000D3E90023FDF742F96FF4427C00EB0C0390
:10A7A0001F3B62EB0202BB4272F10002FFF47AAF80
:10A7B00024F022FB4846636821F0E4F9E37D990721
:10A7C000804640F1E481002800F0E18182460127C3
:10A7D00024F066FACDE9027A09AB049305F11E0371
:10A7E00001932B7FC3F38013014607460093002299
:10A7F0000123204623F00AFA384624F0BFF924F05A
:10A800000BFA002840F0C9816F48214624F0EAF88D
:10A81000626892F82C3043F0010382F82C30A37D5B
:10A8200043F08003A37516F089FE172202714FF6DC
:10A83000FF72C28095F81CC082463B46CCF3401C98
:10A8400000F11C0207F1200E1D6858689968DF6846
:10A85000D7601033734515605060916002F11002AB
:10A86000F2D11B6813609AF81C30CAF808406CF3E8
:10A8700045138AF81C3024F0F5FB002ECAF81000AE
:10A88000099BCAF8143008BF4FF0FF098AF81990E5
:10A89000E37D13F0020303D0B8F1000318BF0123D6
:10A8A0009AF81A2063F300028AF81A2016F046FE7E
:10A8B000CAF80C00DAF8000051460AB0BDE8F047CB
:10A8C00016F066BE5FFA8AF021F0F2F981461CE7C5
:10A8D000A07D5FFA89F1C0F3C00021F077F98146CD
:10A8E00013E7012B40F088806A7F0C2A7FF4DAAEF0
:10A8F0002A7FCDF80090194600230193D20905F173
:10A900002403204623F0B6F800287FF425AF2B7FE0
:10A9100003F00F03002B6FD16B7F052B7FF6C2AEC8
:10A92000252B3FF6BFAEA27D02F02102202A09D1DD
:10A930006268002A00F0C080052B7FF6B3AE252B9D
:10A940003FF6B0AE63682BB12B7F03F00F03072BEC
:10A950007FF4A8AE03209DF8238016F0D5FD0546B0
:10A9600000283FF49FAE16F0E9FD4FF6FF73EB8031
:10A9700005232B71002F3BD17F20AB7E2876002E44
:10A9800008BF4FF0FF0968F34103286885F8199064
:10A99000AB76294616F0FCFD84E60C4A0C490D48BE
:10A9A00040F2C7233CF0CAFD85F31188BFF36F8FD7
:10A9B0000323184602DF9EE600CA9A3B000000000F
:10A9C00029D804008D49FD1A29DA0400149A0800D8
:10A9D000A499080084880800B9F1FF0F8DF824902D
:10A9E000C2F380184BD0227E91453FF4AEAE91E782
:10A9F00024F01CFAC0B2C0E7062B8DD04521D94007
:10AA000011F0010139D1012B10D16B7F0C2B7FF498
:10AA100049AE2A7FCDF800900DF123030193D209AE
:10AA200005F12403204623F025F808BB2B7F03F013
:10AA30000F03042B7FF436AE6B7F063B1F2B3FF6D4
:10AA400031AEA37DDB077FF52DAE24F029F92B7FF6
:10AA50000278C3F38013B3EBD21F7FF423AE083028
:10AA6000062205F11E0157F0E4FE00287FF41AAE1D
:10AA70006B7F002B7FF466AF14E66B7F5CE705F11C
:10AA80001E0A09AA5146404621F0D0F900283FF499
:10AA90003EAFE37D03F0010343457FF438AF5146F9
:10AAA000062204F1080057F0C4FE00287FF42FAFFF
:10AAB0002B7F03F00F0348E69620079224F024FA38
:10AAC000079A104624F0F0F8032016F01DFD80468A
:10AAD00000283FF4E7AD16F031FD4FF6FF73A8F8FC
:10AAE0000630052388F80430002F66D17F23002E1E
:10AAF00088F8183014BF4B46FF2388F8193098F8AF
:10AB00001A30D8F800006FF3410388F81A30414634
:10AB100016F03EFD24F0C4F806460322337862F3B3
:10AB2000030333702B7F3278C3F3801363F3C712B0
:10AB30000C2332704846737021F024F8E27D9207AE
:10AB40003FD500283DD03178324641F0400102F82F
:10AB5000021B0168C6F8021083889380D5F81E3066
:10AB6000B3606B8CB381304624F008F824F054F8BD
:10AB7000002837D124F0C4FAA37D224843F0010312
:10AB80002146A3750AB0BDE8F04723F02BBFA77D8F
:10AB900004F1190AC7F380171AE61B4A1B491C481F
:10ABA00040F2AF433CF0CAFC002383F31188BFF3AB
:10ABB0006F8F0323184602DF26E624F037F9C3B26D
:10ABC00095E7A37D3278C3F3801363F3861233468F
:10ABD00003F8022BD4F81920C6F80220B4F81D207F
:10ABE0009A80BBE7084A0949094840F233533CF0D0
:10ABF000A5FC002383F31188BFF36F8F032318464E
:10AC000002DFB7E73DD80400149A0800AC990800A9
:10AC100084880800000000002DE9F041C468A28A81
:10AC20004FF6FF739A4282B000F0DF80054623F0B2
:10AC300001F92B89628B208CA3831A4492B21044B1
:10AC400094F82730E28380B2411C21845E064FF0E5
:10AC50000001618304F1220100F1A18003F03F00B3
:10AC60000B4694F82810009004F129001FF0C2FF51
:10AC70000646D4E90C31A28B02FB0333A26B1344CA
:10AC8000E26B8B4294BFD21852188A4228BF0A4600
:10AC9000E263616C226C94F867301144616494F84B
:10ACA0007E2094F82C10C3F3020363F3061112F014
:10ACB00004024FF0000384F82C10A363236478D0BF
:10ACC00023F0D2FE082023F0F5FE201D23F012FF12
:10ACD0002389A17A40F25B6043EA014123F0C6FF79
:10ACE000304621F0D5FD2146594823F07BFEA0894E
:10ACF00024F00AF994F8662094F86700C2F3C003C0
:10AD0000002102F0070200F0070024F015F82046A9
:10AD100023F050F927682E68384621F099FD064443
:10AD20006A6806F10901002024F0FAF8804624F050
:10AD3000BBF9002024F0D2F9E36B94F8670003F12B
:10AD40002F02636C00F00700012103EB420523F0A2
:10AD500023FF4544054494F8670000F007000228EB
:10AD600025D004280CBF4FF4BC73282301211D44B7
:10AD700023F014FF284424F089F9A18A05313246D2
:10AD8000C9B2384621F072FD0546002834D120466C
:10AD900021F0F8FCD0B9002002B0BDE8F0810A46ED
:10ADA00003F03F03218D1FF071FF064661E7182372
:10ADB000DCE7D4E91A0113F085FD002880D194F86E
:10ADC0007E3043F0040384F87E3079E7214A22493B
:10ADD00022484FF4B0733CF0B1FB85F31188BFF308
:10ADE0006F8F0323184602DFD5E71D48214623F065
:10ADF000F9FD23F0E5FECEE7164A1A4917484FF44D
:10AE0000AB733CF09BFB184B0721A5FB030301FB35
:10AE100005310DA3D3E90023FCF700FE13490246D8
:10AE200013483CF08BFB002585F31188BFF36F8F2F
:10AE30000323184602DF0F48214623F0D3FD23F0F9
:10AE4000BFFE6FF08B00A7E700CA9A3B000000002E
:10AE50002DE20400F49A0800588A0800848808004B
:10AE6000FDC904005C8908008D49FD1A489B080053
:10AE7000DC990800D9C90400F0B5C468A28A4FF66D
:10AE8000FF739A4285B000F08F80054622F0D2FF12
:10AE90002B89628B208CA3831A4492B2104494F8BD
:10AEA0002730E28380B2411C21845E064FF000010E
:10AEB000618304F1220160D403F03F000B4694F853
:10AEC0002810009004F129001FF094FE0646204649
:10AED00003A923F04DF9039B94F87E101A7861F3CF
:10AEE000C3021A70039A94F87E301178C3F34003BA
:10AEF00063F38201117023F0B7FD082023F0DAFD1F
:10AF0000201D23F0F7FD2389A17A40F25B6043EA1C
:10AF1000014123F0ABFE304621F0BAFC03992046F4
:10AF200023F0FAF821463A4823F05CFDE08923F04B
:10AF3000EBFF94F8670000F0070023F0B5FE2768E8
:10AF40002E68384621F084FC06446A6806F109013F
:10AF5000012023F0E5FF24F0D3F8A18A0531324621
:10AF6000C9B2384621F082FC054620BB204621F0BC
:10AF700009FC50B9002005B0F0BD0A4603F03F03BC
:10AF8000218D1FF083FE0646A1E7224A224923486D
:10AF90004FF482733CF0D2FA85F31188BFF36F8FC0
:10AFA0000323184602DFE5E71D48214623F01AFD7A
:10AFB00023F006FEDEE7174A1A491848FA233CF048
:10AFC000BDFA194B0721A5FB030301FB05310EA3B5
:10AFD000D3E90023FCF722FD1449024614483CF053
:10AFE000ADFA002585F31188BFF36F8F0323184650
:10AFF00002DF1048214623F0F5FC23F0E1FD6FF05D
:10B000008B00B8E7AFF3008000CA9A3B0000000055
:10B010004DE00400549B0800588A0800848808000A
:10B02000FDC904005C8908008D49FD1AA49B080035
:10B03000DC990800D9C904002DE9F04F87B0054616
:10B04000039117461E46836804AA5B689847002848
:10B0500031DBDDE9044AA7FB04B307FB0A37584696
:10B0600019A3D3E900233946FCF7D8FCDFF8608048
:10B0700002904FF0FF39D94578EB07031ED3A6FBAA
:10B0800004B406FB0A4410A3D3E900232146584622
:10B09000FCF7C4FCD94578EB040403460ED30299AF
:10B0A000AA6899420DD3BDF8401000911468284653
:10B0B000DDE90221A04707B0BDE8F08F6FF0850001
:10B0C000F9E76FF01500F6E700CA9A3B00000000B0
:10B0D000FFC99A3B00000000F8B510EE904A34F02A
:10B0E00000472DED048B10EE103AB0EE609A0DD1B2
:10B0F00083F480035B0013F5000F40F2098230EE09
:10B10000098AB0EE480ABDEC048BF8BD23F000407C
:10B11000B0F1FF4F02D8B7F1FF4F08D9B3F17E5F0E
:10B12000EDD184F48004640014F5000FE5E7002BF2
:10B1300001462DDAB7F1974F0CD3B7F1FF4F2AD064
:10B140000225B4F17C5F41D1002BC0F28F80B1EEBB
:10B15000C08AD6E7B7F17E5F31D3FA15C2F1960205
:10B1600047FA02F505FA02F2BA423DD1B7F17E5F25
:10B170004AD1002C80F2D281B5EE400AF1EE10FAED
:10B1800050D1D80FBDEC048BBDE8F84039F042BF78
:10B19000B7F1FF4F3DD1B0F17E5F00F0B98108D922
:10B1A000DFED977A002CB4BFB0EE678AB0EE498A23
:10B1B000A7E7002C80F2AF81B1EE498AA1E7B4F194
:10B1C000804F34D0B4F17C5F5CD0002523F0404246
:10B1D000B2F17E5FB0EEC08A3FD1002CBCBFB7EEAB
:10B1E000007A87EE088A29E0B7F17E5FC1D000259A
:10B1F000B4F1804FEAD1B0F1BF4F1AD2B0F1D05FB5
:10B2000029D920EE008A7CE705F00105C5F1020589
:10B21000EEE7B7F17E5FACD0B4F1804F4FF00005A0
:10B22000E9D08EE7B7EE007A87EE008A69E700255D
:10B23000E1E7B0F1FF4FB0EEC08A35D1002BBFF689
:10B2400060AFA0F17E50284316D1BDEC048BBDE861
:10B25000F84039F0EFBEB0EEC08A28BB002C1EDAF1
:10B26000002B8FDA6B1E584258418BE7B0F1FF4F2D
:10B27000B0EEC08A40F05581012D7FF442AFB1EEAF
:10B28000488A3EE7B0F1FF4FB0EEC08A3FF439AFD5
:10B29000B0F17E5FD9D000283FF433AFD5E7012D60
:10B2A00008BFB0EE408A2CE7DE0F013E55EA0602E9
:10B2B000CBD0B7F19A4F40F24081524B984208D818
:10B2C000002C0BDA0020BDEC048BBDE8F84039F00F
:10B2D00091BE4D4B984208D9002CF3DC0020BDEC08
:10B2E000048BBDE8F84039F075BEB7EE007A38EE51
:10B2F000478ADFED467ADFED469A3FA1D1E90001AA
:10B3000068EE278AFCF7EAFA07EE900AB5EE007AB3
:10B3100048EE477AB6EE007A07EEC87A68EE087A09
:10B32000DFED3C6A27EE277AF0EE687A47EE667A20
:10B3300068EE299A39EEA77A17EE103A23F47F6364
:10B3400023F00F0307EE103A77EE699A77EEE97A69
:10B35000013D24F47F643543B7EE007A24F00F04F6
:10B36000BFEE008A18BFB0EE478A07EE104A67EEBC
:10B37000890A39EE477A07EE903A47EE270A07EE38
:10B38000104A67EE877A30EEA77A17EE101A002976
:10B3900021F000431ADDB3F1864F09D9B5EEC08A1A
:10B3A000F1EE10FA4CBF012000208CE70120E5E00F
:10B3B00036D1DFED196A37EE677A70EEA66AF4EEE1
:10B3C000C76AF1EE10FAE9DC86232DE0134A9342B6
:10B3D00007D9B5EEC08AF1EE10FA4CBF012000206B
:10B3E0007DE71DD137EE677AB4EEE07AF1EE10FA20
:10B3F000EADBEEE7AFF30080E13D55555555D53F0B
:10B4000000000000F3FF7F3F0700803F70A5EC368F
:10B4100000AAB83F3BAAB83F3CAA38330000164305
:10B42000B3F17C5F6FD9DB157E3B4FF40000184110
:10B430000844C0F3C753A04A7F3B1A41024007EEBD
:10B44000102AC0F3160040F40000C3F1170318419E
:10B45000002977EEC77AB8BF404237EEA07ADFED19
:10B46000976ADFED975A9FED976A17EE103A23F42B
:10B470007F6323F00F0307EE103A77EE677A67EEEB
:10B48000266A70EEE70ADFED907A67EE277A9FED85
:10B490008F7A40EE877AB7EE000A36EEA77A77EE1B
:10B4A000666A77EEE67A67EE076A47EE277A16EE67
:10B4B000A56ADFED875A46EE265A9FED866A15EE9D
:10B4C000A66ADFED855A46EE265AB0EE476A05EECB
:10B4D000E66AF0EE006A67EE065A36EE666AC5EE78
:10B4E000866A76EEE77A77EEC77A30EE670A10EE74
:10B4F000103A03EBC053B3F5000F06DA39F024FD20
:10B5000020EE088AFDE50020A7E700EE103AF7E7F5
:10B51000B7EE008AF5E59FED718AF2E5B0EE408A5C
:10B52000EFE5B0F17E5F3FF48CAE00283FF4B7AE9C
:10B53000002D3FF48AAE0225002613F0FF4F08BF0E
:10B540009FED677A674802BF68EE077A6FF01703CE
:10B5500017EE901A4FEAE15218BF00237F3A1A44BF
:10B56000C1F31603834243F07E5106DD5E488342F9
:10B570007FF71CAF0132A1F5000100205B4B03EB0C
:10B580008003D3ED005A5A4B06EE101A75EE867AF8
:10B59000F7EE006AC6EEA74A491041F0005101F5E6
:10B5A000802101EB405136EE657A07EE901A27EEC6
:10B5B000245A15EE107A1F4006EE907A06EEE77ACE
:10B5C00077EEE57ADFED4B5A36EE676A65EE057A7F
:10B5D00006EE667A9FED486A47EE865A9FED476A07
:10B5E00005EEA76ADFED465A46EE275A9FED456AFB
:10B5F00005EEA76ADFED445A46EE275A27EE247A75
:10B6000036EE856A67EEA77A26EE076A05EEA76A28
:10B6100066EEA64AF0EE085A74EEA57A77EE867AC0
:10B6200017EE901A194007EE901A77EEE55A27EEBA
:10B63000277A75EEE45A66EEA76A36EE656A06EE7C
:10B64000057A9FED326A76EE877A17EE901A1940E6
:10B6500007EE901A77EEE66A27EE866A37EE667A8C
:10B66000DFED2B6A2B4967EEA67ADFED2B6A47EEFA
:10B67000267A01EB800191ED007A77EE877A07EE6A
:10B68000102A264A02EB8002D2ED005A76EE276A93
:10B69000B8EEC77A76EEA56A76EE876A16EE902A3D
:10B6A000134006EE903A36EEC77A37EE657A37EEFB
:10B6B000467A77EEC77A4BE6000080FF0072313F92
:10B6C0004CBB31330EEADD358CBEBF351872313FCD
:10B6D00055B38A38610B363BABAA2A3E0000000006
:10B6E0000000804B71C41C00D6B35D00A0B10800FF
:10B6F00000F0FFFF55326C3E42F1533E05A38B3EF6
:10B70000ABAAAA3EB76DDB3E9A99193F0038763F47
:10B71000A0C39D3690B108004F38763F98B108001D
:10B7200083B2E03B072B06D8C0F30740072802D1BD
:10B73000024AD05C70470020704700BF5EB6080028
:10B740007FB50C460546164600211022204657F0CC
:10B75000E5F90C4BC4E9013600260123CDE9013699
:10B76000009694E80E00284603F02EFACDE9016613
:10B77000E368009394E80E00284603F025FA04B02D
:10B7800070BD00BF54B6080030B50B4685B0044606
:10B79000154600211022184657F0C0F9074A052126
:10B7A000C0E901250122CDE901210022009290E8A3
:10B7B0000E00204603F008FA05B030BD97BE080021
:10B7C00030B50B4685B004461546002110221846B8
:10B7D00057F0A4F9064AC0E901250022CDE901226B
:10B7E000009290E80E00204603F0EEF905B030BD5F
:10B7F00097BE0800F8B5044610461746FFF790FFBD
:10B800000D46064630B10D4B5A7822EA000220461A
:10B81000FFF796FF3A4629462046FFF7B5FF3A461E
:10B8200029462046FFF7CCFF3EB1044B29465A7803
:10B830002046BDE8F840FFF783BFF8BD9C3C0320DD
:10B840001FB5194B1B780446052B08D8DFE803F019
:10B8500003090F151A20154A6946FFF795FF04B032
:10B8600010BD134A69462046FFF7C4FFF7E7114AA7
:10B870006946FFF789FF104AF4E7104A6946FFF767
:10B88000B9FFF8E7094A6946FFF77EFF0C4AE9E786
:10B890000C4A6946FFF7AEFF0B4A69462046FFF7A0
:10B8A000A9FF0A4ADEE700BF9C3C0320E200070034
:10B8B00018000703E100070118000700E600070071
:10B8C000570007001B00070125000700280007009C
:10B8D0001FB50F4B1B780446052B09D8DFE803F092
:10B8E000030A101603160B4A69462046FFF768FF45
:10B8F00004B010BD084A69462046FFF77BFFF7E712
:10B90000054A6946FFF776FF044AEDE7044AF2E785
:10B910009C3C0320E20007002C000700E100070127
:10B92000280007007FB5124B0C4653F822600546ED
:10B9300010220021204657F0F1F80E4B0522C4E9F1
:10B9400001360123CDE901320023009394E80E0073
:10B95000284603F039F90023CDE90133E368009369
:10B9600094E80E00284603F02FF904B070BD00BF24
:10B970003004002097BE080030B5044685B00D465F
:10B9800009B316490B78052B1DD8022B1DD013F0D7
:10B99000FB0F21D11248FFF7C3FEC243D2B24A7057
:10B9A00020466946FFF7CCFE2046FFF749FF2946AF
:10B9B000204639F092FB2046FFF78AFF00226946B5
:10B9C0002046FFF7BDFE05B030BD0648FFF7A8FED4
:10B9D000C24302F0FE02E2E7FF22E0E79C3C0320C4
:10B9E000E2000700E1000701064A13783BB100239B
:10B9F0000549184601F8330001330A2BFAD100201B
:10BA00001070704768230020B0C8002082B070B565
:10BA1000044604A9406881E80C0039F060FD164B2B
:10BA20004668207A00251C465A7890420CD11A7834
:10BA300052B101213AF0C8FF002304F83530BDE8C7
:10BA40007040002002B0704701350A2D03F1080351
:10BA5000EAD1002314F8331004EBC30239B90121F1
:10BA600004F83310507056603AF0AAFFE7E701334C
:10BA70000A2BEFD1E3E700BFB0C800202DE9F8435F
:10BA800003F0A6FE044600284CD0837A002B49D050
:10BA90004FF000082B4D46462B78002B3BD0D5F8B5
:10BAA000049099F8043033B12388072B03D16368DD
:10BAB000043B192B2FD999F8053073B12388072B34
:10BAC0000BD16368A3F11E02092A24D9A3F15902FC
:10BAD000092A20D9B03B012B1DD999F8063033B182
:10BAE0006368E03B072B02D82378072B13D0277A13
:10BAF00001F0C6FBD9F80030B4F800C0D4F804E077
:10BB000007431868FFB2002290420ED168780121E5
:10BB10003AF05AFF2E7008F10108B8F10A0F05F14A
:10BB20000805B9D10020BDE8F8835979614505D1F0
:10BB3000D9888E4502D11979B943ECD0013204334A
:10BB4000E2E700BFB0C8002043681A78024B43F810
:10BB500022000020704700BF04C9002082B02DE9F8
:10BB6000F04F89B012A9406881E80C0039F0B7FCA9
:10BB70004F4AD0F810C092F801E0BEF1000F04D196
:10BB8000DCF80030002B40F0878045684948149B62
:10BB9000159C92F80080B2F802A0AA6C0792D0E936
:10BBA00000105B1A64EB000400214FF0D409079ADF
:10BBB000914201D12C1D28E0E86C09FB0100D0F86E
:10BBC000C820002A04DBD617934274EB060631DB4B
:10BBD000D0F8CC20002A29DA466C069602460026C8
:10BBE000069FB74226D090F8D1B092F84870BBF1CA
:10BBF000000F21D0474522D192F8497077451ED1D8
:10BC0000B2F84A7057451AD10446CCF80040236870
:10BC1000012B47D80123049314AB0FCB8DE80F0001
:10BC200012AB0CCB201D39F0B0FC35E0D6179A4290
:10BC3000A641D1DA0131BAE737EA0807DCD001368C
:10BC40000432CDE7CDE9018704EB061A0AF10405B9
:10BC5000DAF81030009395E80E0012A802F0B4FF55
:10BC6000CDE90197DAF81030009395E80E0012A89C
:10BC700002F0AAFF013620680138B042E2D804EB96
:10BC8000001001230297019303690093043090E8A8
:10BC90000E0012A802F098FF002009B0BDE8F04F96
:10BCA00002B07047002605274FF00108B146E2E7D1
:10BCB000703B03201831002030B50E4B0246186847
:10BCC00030B143681B6D18680021814201D100200A
:10BCD00030BD1D791478A54207D15D795478A5420D
:10BCE00003D1DD885488A54202D001310433ECE74A
:10BCF0000120EDE704C9002073B503F069FD044697
:10BD000060B3837A164D0BB92B783BB3267A01F0DA
:10BD1000B7FA23888DF805306368ADF80630A37A4A
:10BD200006438DF8046033B92B7823B101A8FFF7DF
:10BD3000C3FF02B070BD0B4B01981860D4E9040139
:10BD4000094BC3E9000101A8FFF7B6FF20B12B782A
:10BD500013B901202870ECE700232B700020E8E7DE
:10BD60009E3C0320703B0320183100202DE9F04F4A
:10BD700091B003F02DFD0546002853D0DFF8B891AF
:10BD8000037A8DF8243099F8002003888DF8253047
:10BD90004368ADF82630837A002A7CD0002B7CD013
:10BDA0005F4B1B689F6800243E1D3B68A3420ED872
:10BDB0005C4BDFF888B11E68DFF8848106F1010A68
:10BDC00000270336C3F800A0B6003C4621E0304609
:10BDD00009A939F017FA043620BB0134E5E758F811
:10BDE00024300793981909A939F00CFA079BD8B9A0
:10BDF000DBF800303A1B9B1A1A1BA000013A011D08
:10BE000092009C42A8BF00224144404456F06CFE80
:10BE10000137DBF800309F42E1DBCBF8004044B94A
:10BE200089F80040002010E09A68524510D13E4A3F
:10BE300013603E4A09981368591C11603C4A42F845
:10BE40002300394B1C682CB9012011B0BDE8F08FDC
:10BE50000134DDE72E690AAD00211822284689F851
:10BE6000001056F05BFE23680B93F317CDE90C63CB
:10BE7000304B1B788DF8383001232371049310ABBD
:10BE800013E90F008DE80F0095E80C0004F1200085
:10BE900039F07BFBD8E7002BC4D1254C234F00267B
:10BEA000A0463B689E42BDDA204609A939F0AAF9AE
:10BEB0000434002832D03C68B000A21B011D92005F
:10BEC000A642C8BF00224144404456F00DFE164B26
:10BED0001E68013C3C60002EB6D03379002BB3D0F5
:10BEE000002CB1D12F690AAD18222146284656F000
:10BEF00015FE33680B93FB17CDE90C730D4B3471B2
:10BF00001B788DF83830049410AB13E90F008DE8DE
:10BF10000F0006F1200095E80C00B9E70136C0E7F4
:10BF200098C9002094C9002008C9002090C90020A9
:10BF3000743B03209F3C0320A03C03208CC90020BD
:10BF40000CC90020114B10B51860114B016801227B
:10BF50001A70104A002313600F4A13600F4A1360CF
:10BF60000F4A11600F49302402689A4207D80E4BDD
:10BF700000221A605A609A60DA601A6110BD426845
:10BF800004FB032241F8042B0133EDE798C900209C
:10BF9000A03C032094C9002090C9002008C90020BB
:10BFA0008CC900200CC90020743B032082B008B566
:10BFB00002A981E80C00094B1B684BB9406839F0B5
:10BFC0008EFA4068FFF7BEFF054B9DF818201A70E7
:10BFD000BDE80840002002B0704700BF90C90020B3
:10BFE0009F3C032010B5094B00211A465C6884422F
:10BFF00005D11C781CB1502303FB012010BD013179
:10C000000A2903F15003F1D10020F7E72031002085
:10C0100082B02DE9F04186B00CA9406881E80C009F
:10C0200039F05DFA0D9D47682846FFF7DBFF0446AF
:10C0300080B9234A0346502000FB03F18C18565C5C
:10C04000002E34D19DF84030237201236560E760F3
:10C050005352A370A278012363700EADD2B1049342
:10C0600095E80F008DE80F0007F108060CAB0CCB2C
:10C070004FF00008304639F088FACDF8108095E886
:10C080000F008DE80F000CAB0CCB304639F07DFA79
:10C0900084F802800123049395E80F008DE80F00D7
:10C0A0000CAB0CCB07F1180039F06FFA02E001334A
:10C0B0000A2BC1D1002006B0BDE8F04102B07047A4
:10C0C000203100202DE9F0410B4E33787BB1002464
:10C0D0000A4DDFF82C80274628464146013456F0A9
:10C0E0004BF90A2C05F8107C05F15005F4D100201D
:10C0F0003070BDE8F08100BF69230020303100209E
:10C10000415306002DE9F0438DB0044601F00AF8D2
:10C1100005462046002D5ED001F004F805460028B3
:10C120003BD05D4C002627466FF042092378002B58
:10C1300046D0D4F804806968884541D0E268134647
:10C14000A9EB020253F843CBD018844529DC5023D5
:10C15000734306AD002607EB030918223146284633
:10C16000FE5456F0DBFCCDF81C8039F062F899F8EB
:10C170000130CDE908016BB1D9F80C7004960CAB15
:10C1800013E90F008DE80F0007F1180095E80C0087
:10C1900039F0FBF9204639F0ADF800200DB0BDE8CC
:10C1A000F08313F8010F8142CED12B7A73B104F1E1
:10C1B000100056F0EFF8773002D1012384F84930AF
:10C1C00001360A2E04F15004B0D1E6E72869214671
:10C1D00039F03DF8F4E703F0D5FA0028DDD0204629
:10C1E00003F0D0FA0028D8D04378002BD5D02A4BC2
:10C1F00098461A78002A48D0D96802788E6BD640C3
:10C2000016F0010641D150236B4308EB030906AF3A
:10C2100018223146384608F8036056F07FFCD9F8FA
:10C220000430079339F005F899F80130CDE9080199
:10C2300008AC63B1D9F80CC0049694E80F008DE8FF
:10C240000F000CF1180097E80C0039F09EF950230C
:10C2500003FB05850123EE68049394E80F008DE845
:10C260000F0006F1280097E80C0039F08EF9002342
:10C27000ED68049394E80F008DE80F0005F12800A5
:10C2800097E80C0039F081F987E701350A2D03F1B1
:10C290005003AED181E700BF20310020014B187858
:10C2A000704700BF6A230020014B1870704700BF21
:10C2B0006A23002082B0F0B587B00CA981E80C0099
:10C2C000124A1946154600231078C0B150688142C1
:10C2D00015D11822002602FB03F404960EAB0FCBF7
:10C2E0008DE80F0004F108070CAB0CCBE81939F00E
:10C2F0004CF92E5507B0BDE8F04002B0704701334D
:10C300000A2B02F11802DFD10020F3E79CC90020BC
:10C3100082B0F0B587B00CA9406881E80C0039F014
:10C32000DEF84468FFF7BAFF012803D0022823D0C3
:10C33000234601E004F11003134E0022182101FBF3
:10C3400002F5AC19705DD0B9012777550D9A62607E
:10C350000FCB083484E80F0004970EAB0FCB8DE8A9
:10C360000F0008350CAB0CCB701939F00EF907B083
:10C37000BDE8F04002B0704704F12003DCE7013271
:10C380000A2ADCD10020F2E79CC9002070B5022304
:10C3900080F82830194B1A688CB0824208BF0022FE
:10C3A000044606AD08BF1A6000211822284656F040
:10C3B000B5FB6368079356F06CF94FF47A76A0FBEF
:10C3C000063206FB0121DB0B43EA4143C90BCDE9F1
:10C3D0000831012304930CAB13E90F008DE80F0023
:10C3E00004F1180095E80C0039F0CFF8207C00210A
:10C3F0000CB0BDE870403AF0E3BA00BF90CA00202C
:10C40000F8B5084D084E094F00243368A34202DCFA
:10C4100000233360F8BD2846394600F02DFE013474
:10C420002035F2E7403400208CCA00201C4C080064
:10C43000F0B589B0044600F075FE064600283DD0F0
:10C440002B4F3B68002B50D041685A6891424CD02A
:10C45000DB6A1B7A022B48D0264A1368072B0FDCB5
:10C46000591C254C11606D460146684604EB431487
:10C4700039F0D0F90FCD0FC495E80F0084E80F0014
:10C480003C68E36A1B7A012B0ED0032B00D07BB9EA
:10C49000337A6BB104F1300055F07CFF2046FFF792
:10C4A00075FFFFF7ADFF03E0327A22B184F829303F
:10C4B000022009B0F0BD94F82930EAE7204603F0E5
:10C4C00087F990B1837A83B14368E03B072B02D8A8
:10C4D0000378072B09D0094BD0E90412D3E90040B7
:10C4E0008C429041B8BFC3E900120020E1E700BFD1
:10C4F00090CA00208CCA0020403400200000002098
:10C5000008B510F8302C03468AB110F8082C72B91F
:10C5100053F8041C097A0329A0F1300008D1012145
:10C5200003F8081C054B1968814200D11A6008BD48
:10C53000FFF72CFFBDE80840FFF762BF90CA00205C
:10C5400082B02DE9F84F04460AA9406881E80C0042
:10C55000DDE90C8738F0C3FFD4E902AB4668DDF8AB
:10C560002C90FFF79BFE012804D0022842D006F150
:10C570000C0301E006F11C03DFF8B0C000226021CB
:10C5800001FB02F505EB0C041CF805E0BEF1000F01
:10C5900033D1C4E90198C4E9037A01220CF80520DB
:10C5A000C4F814B00FCB04F11809303589E80F0036
:10C5B00065441B4B1B49A4F828E028461C60E66232
:10C5C00055F0DAFE7368002B1FDC346840F2E73068
:10C5D00024EAE4744FF4004600214FF47A720023F9
:10C5E000C4FB0601FBF71AFA02460B46284636F052
:10C5F0007BFB05E006F12C03BEE701320A2ABFD11E
:10C60000BDE8F84F002002B07047074AD2E9001297
:10C61000591842EBE373884577EB0303F0DBD4E76B
:10C6200090CA002001C50200000000204035002013
:10C6300082B02DE9F04387B00EA981E80C001A46BC
:10C640002A4B00259846197871B359688A422BD134
:10C6500060246C4308EB0409DDE9106799F8283081
:10C66000012B2CD804F13000404455F093FE204BB0
:10C670001A6860244A4504FB058404BF00221A603E
:10C68000606932463B46012138F081FE60693246DE
:10C690003B46002138F07BFEFFF7B2FE60235D438E
:10C6A000002308F8053004E001350A2D03F160038A
:10C6B000C9D1002007B0BDE8F04302B07047022B9B
:10C6C000ECD10021002699F810003AF07DF904968B
:10C6D00010AB0FCB8DE80F0018340EAB0CCB08EB72
:10C6E000040038F052FF034B1E60D7E740350020AE
:10C6F00090CA00208CCA002007490B784BB1074B29
:10C7000000221A701A7483F8202083F8302083F8EE
:10C7100040200020087070476B23002094CA00203E
:10C7200082B070B586B00AA9406881E80C0038F084
:10C73000D6FE284B46680B9900241A465868814259
:10C740001FD11878E8B102EB0414012304930CAD57
:10C7500095E80F008DE80F000AAB0CCB06F1140032
:10C7600038F013FF207A02F04DFD60BB049095E88D
:10C770000F008DE80F000AAB0CCB301D38F005FF21
:10C7800021E00134052C03F11003D7D10023180157
:10C7900002EB0314155C9DB90A9B23729DF8383097
:10C7A0006372012313546160E66004930CAB0FCBFA
:10C7B0008DE80F000AAB0CCB301D38F0E6FEC4E765
:10C7C0000133052BE3D1002006B0BDE8704002B074
:10C7D000704700BF94CA0020F8B5044600F0A2FCE0
:10C7E00058B3204600F09EFC28B3244B00221D467F
:10C7F0001978D9B1466859688E4217D0DC6821464D
:10C80000C4F1FF2404F57F0451F823CBDD3467180D
:10C81000BC4507DC13010021E95405EB021038F098
:10C8200001FE08E011F8017FBE42F0D10132052A75
:10C8300003F11003DCD10020F8BD204602F0A2FF76
:10C840000028F8D0204602F09DFF0028F3D043785E
:10C85000002BF0D1094A114614781CB10578147ADE
:10C86000A54205D00133052B02F11002F4D1E2E715
:10C870001A010020885401EB0310D0E794CA00206D
:10C8800043685A78024B43F822000020704700BFEB
:10C89000E4CA00202DE9F84F02F09AFF08B1837A2C
:10C8A00043BB0020BDE8F88F037A98F800201343BB
:10C8B0000372F6E7232BF4D9A5F1E003072B34D854
:10C8C0005FFA89F3072B30D1EBE7A3884B4502D001
:10C8D00001370C342DE0A368AB42F9D194F80CA0D9
:10C8E00000F0CEFC237B4BEA00000AEA000A534525
:10C8F000EED1D6E7144B1E680027002ED1D0336945
:10C900001B78002BCDD0B0F800904568D6F8048095
:10C910002B1FB9F1070FDBB2CCD1192BC4D9232BB4
:10C92000BFD9A5F1E003072BBBD990F808B0444666
:10C93000EDB298F802309F42C7DB336900201870CF
:10C9400035F008FBADE700BFE4CA0020014840F025
:10C95000F0BD00BF383F0800012B07B50FD112789A
:10C960000848012A14BF002257228DF80720002111
:10C970000DF1070240F050FD03B05DF804FB6FF0CD
:10C980008500F9E7383F0800012B13B5144611D193
:10C990000A480DF10702002140F063FD002807DB83
:10C9A0009DF80730A3F157025342534123700020F2
:10C9B00002B010BD6FF08500FAE700BF383F0800F5
:10C9C000014836F023B900BFB4130020014836F007
:10C9D0001DB900BFA413002007B555F05AFE4FF44F
:10C9E0007A72A0FB020302FB0131C00B074A40EA46
:10C9F0004140106000234FF400420548CDE9002378
:10CA000036F0CCFF002003B05DF804FBE8CA00203C
:10CA100038260020014B187800F04EBBA23C0320C2
:10CA2000044B1A78824202D01870FFF7F3BF00203F
:10CA3000704700BFA23C032008B555F02AFE4FF412
:10CA40007A72A0FB020302FB0131084AC30B126891
:10CA500043EA41439B1A47F23052934204DDBDE85A
:10CA600008400120FFF7DCBF08BD00BFE8CA002076
:10CA700008B555F00EFE4FF47A72A0FB020302FBDC
:10CA80000131C00B044A40EA41401060BDE8084053
:10CA90000020FFF7C5BF00BFE8CA0020014B18788F
:10CAA000704700BFA23C0320F0B5174C174E184D3D
:10CAB000184F91B0B44202D3002011B0F0BDA3884A
:10CAC000FBB92068E8B10368DBB155F083F9C0B168
:10CAD0002A88013292B2A280394668462A8037F00D
