:020000022000DC
:1060000078270020798B02009D070300658B020032
:10601000658B0200658B0200658B020000000000AA
:10602000000000000000000000000000898C020059
:10603000658B020000000000F98B0200658B0200F6
:10604000998E0200998E0200998E0200998E0200AC
:10605000998E0200998E0200998E0200998E02009C
:10606000998E0200998E0200998E0200998E02008C
:10607000998E0200998E0200998E0200998E02007C
:10608000998E0200998E0200998E0200998E02006C
:10609000998E0200998E0200998E0200998E02005C
:1060A000998E0200998E0200998E0200998E02004C
:1060B000998E0200998E0200998E0200998E02003C
:1060C000998E0200998E0200998E0200998E02002C
:1060D000998E0200998E0200998E0200998E02001C
:1060E000998E0200998E0200998E0200998E02000C
:1060F000998E0200998E0200998E0200998E0200FC
:1061000053B94AB9002908BF00281CBF4FF0FF311E
:106110004FF0FF3000F00CB8ADF1080C6DE904CE83
:1061200000F01AF8DDF804E0DDE9022304B070475E
:10613000704700BF10F8012B11F8013B012A28BF5E
:106140009A42F7D0D01A7047034613F8012B002A61
:10615000FBD1181A013870472DE9F04786468C4666
:106160000846089E154674461946002B40F0C2802A
:106170008542B2FA82F245D94AB1C2F1200300FA4F
:1061800002FC2EFA03F3954043EA0C0C94404FEACC
:10619000154EA8B2BCFBFEF8230C0EFB18CC08FB76
:1061A00000F943EA0C43994528D9EB1808F1FF3769
:1061B00004D2994502D9A8F102072B44A3EB0903A5
:1061C000A4B2B3FBFEFC0EFB1C330CFB00F044EA54
:1061D0000344A04214D92C190CF1FF3304D2A0427D
:1061E00002D9ACF102032C44241A43EA07401EB141
:1061F000D440002334607360BDE8F0874746DDE794
:106200006346F1E792BB431B01214FEA154EAFB243
:10621000B3FBFEFC200C0EFB1C330CFB07F840EA22
:106220000343984562D9EB180CF1FF3004D298452E
:1062300002D9ACF102002B44A3EB0803A4B2B3FBD8
:10624000FEFC0EFB1C330CFB07F744EA0344A74299
:106250004ED92C190CF1FF3304D2A74202D9ACF16C
:1062600002032C44E41B43EA0040C0E7C2F12003D0
:1062700020FA03F1954090402EFA03F303434FEACE
:10628000154EAFB2B1FBFEFC0EFB1C10190C0CFB43
:1062900007F841EA0041884504FA02F422D9691856
:1062A0000CF1FF3004D2884502D9ACF10200294438
:1062B000A1EB08019BB2B1FBFEFC0EFB1C110CFB19
:1062C00007F743EA01439F420ED9EB180CF1FF3167
:1062D00004D29F4202D9ACF102012B44DB1B41EAFC
:1062E000004192E76046E3E76146F7E76046A3E7CF
:1062F0006346B7E7834206D916B9002108467BE713
:10630000C6E900E0F9E7B3FA83F78FB9834201D316
:10631000724508D8BEEB020460EB030301209C46E3
:106320001EB9002168E73846FAE7C6E9004CF8E7ED
:10633000C7F1200CBB4022FA0CF41C432EFA0CF1DE
:1063400020FA0CF3B84001434FEA14490EFA07F55E
:10635000B3FBF9F81FFA84FE09FB18300B0C08FB9D
:106360000EFA43EA00439A4502FA07F240D9E318CD
:1063700008F1FF3004D29A4502D9A8F10200234463
:10638000A3EB0A0389B2B3FBF9F809FB183308FB46
:106390000EFE41EA03418E452CD9611808F1FF3306
:1063A00004D28E4502D9A8F10203214443EA0040F9
:1063B000A0FB0298A1EB0E014145CE46434602D315
:1063C00006D14D4504D2B9EB020E68EB0403013847
:1063D000002EA6D0B5EB0E0261EB030101FA0CFC16
:1063E00022FA07F34CEA0303F940C6E9003198E7C3
:1063F0004046C5E74346D9E701480AF0E5BA00BF81
:10640000801E0300012B07B50FD112780848012A1E
:1064100014BF002257228DF8072000210DF107023A
:106420000AF045FA03B05DF804FB6FF08500F9E768
:10643000801E0300012B13B5144611D10A480DF13B
:10644000070200210AF058FA002807DB9DF8073000
:10645000A3F15702534253412370002002B010BDF4
:106460006FF08500FAE700BF801E0300014806F0C8
:10647000C5BD00BF0000002007B50BF018F94FF4B0
:106480007A72A0FB020302FB0131C00B074A40EA0B
:106490004140106000234FF400420548CDE900233D
:1064A00007F02CFC002003B05DF804FB90070020EF
:1064B00020010020014B187800F026BA0C160020AD
:1064C000044B1A78824202D01870FFF7F3BF002005
:1064D000704700BF0C16002008B50BF0E8F84FF429
:1064E0007A72A0FB020302FB0131084AC30B126857
:1064F00043EA41439B1A47F23052934204DDBDE820
:1065000008400120FFF7DCBF08BD00BF9007002056
:1065100008B50BF0CCF84FF47A72A0FB020302FB33
:106520000131C00B044A40EA41401060BDE8084018
:106530000020FFF7C5BF00BF90070020F8B5044654
:1065400010B900252846F8BD0378002BF9D00F4E6E
:106550000F4FBE420FD30D4EBE42F2D230680AF04A
:106560008DFD30B1356821462868FFF7E3FD00282E
:10657000E8D00436F0E730680AF080FD18B13568DD
:106580002B68A342DED00436E3E700BF042D0300EE
:10659000182D030070B5194C194D8CB00022002342
:1065A00003A9204606F05AFA08B10CB070BD2B685A
:1065B000059E5868DDE9031208F027FE0028EDDB90
:1065C000FF238DF81830B6FA86F35B0907908DF833
:1065D00020300BF06CF84FF47A72A0FB020302FB40
:1065E0000131C00B40EA4140C90B8DE8030006AB06
:1065F000CDE90A010FCB00F097F9CFE79C0100200D
:10660000A40700201FB50A4C2468A46884420DD159
:1066100083F00103CDE90112039306480022002311
:1066200001A906F0C3F9044806F0E8FC04B010BD67
:10663000A40700209C010020940700201FB5002320
:10664000CDE90233044B8DF80C0001A8019308F04A
:1066500003FE05B05DF804FBBC23030038B5044617
:1066600028B3144D2B6883421FD02BB1986818B102
:1066700083685B6803B198470F49104B00228C4236
:1066800014BFED211146104608F0D9FD00280DDB9E
:10669000A0682C6048B1836809491B6898472B683B
:1066A000986883689B6803B19847002038BD6FF0F5
:1066B0001200FBE7A4070020A82303009407002092
:1066C0000566020038B5054648B90648FFF7C6FF1B
:1066D000041E02DB2846FFF7B1FF204638BD6FF0ED
:1066E0001504FAE7A8230300F7B50C4615460D4933
:1066F00001AA1E4609F020FF68B1019B6BB9012C6D
:106700000DD1094F224639463046A847002802DD00
:106710003878FFF7D7FF03B0F0BD0020FBE76FF03C
:106720001500F8E785260300E00000200148FFF788
:1067300095BF00BFA823030008B5044904480AF028
:1067400052FEBDE80840FFF7F1BF00BF95650200AB
:1067500094070020F8B50F4D0F4E761B07460C46E8
:1067600005EBC105C6F3C706A64201DC00200CE01C
:106770002A683B689A4209D13C716B6838461B68AD
:10678000984718B1431E012BF0D9F8BD01340835E4
:10679000EAE700BF302A0300582A030000B58BB097
:1067A000064B074A2821684607F048FB05490122A5
:1067B000684601F095FE0BB05DF804FBCD260300A2
:1067C000D72603000D1600202DE9F843476804463C
:1067D00000254FF001087B68AB420DD821492248C3
:1067E0000AF02DFEA3681B680BB120469847398933
:1067F00039BB0020BDE8F8833A6802EBC50352F8C4
:1068000035001979DB88D0F810C0D0F80890DCF892
:106810000060DA0754BF43F4B01383F4D01323F4B9
:10682000801208FA01FEDB074CBF46EA0E0626EA94
:106830000E06CCF80060D9F80030984770B90135E1
:10684000C9E740F2E7304FF47A72002300EBC13021
:106850000021FFF755FC0AF0B1FECAE76FF0040013
:10686000C8E700BF9D670200B002002008B5074BD3
:106870005A784AB901221A7005480022002306F00E
:106880002BFC044808F0FEFC002008BD0D1600207B
:10689000B0020020581E030008B54FF4F012002388
:1068A000024806F04DFC00EAE07008BDB00200208E
:1068B000F7B50C461646114901AA1F4609F03CFEE1
:1068C000B0B1019BA3B9012C15D10D4D224629462B
:1068D0003846B047002806DB2B780A486C7023B195
:1068E00008F0D0FC002003B0F0BD08F0E7FCF9E7A9
:1068F0006FF00100F7E76FF01500F4E7CD26030015
:106900000D160020581E03001FB50023CDE90233E9
:10691000044B8DF80C0001A8019308F09DFC05B014
:106920005DF804FBE023030084B030B589B00CAC03
:1069300084E80F00002301930CAD084B00930FCDAA
:1069400002AC0FC495E8030084E80300684608F031
:1069500083FC09B0BDE8304004B07047E423030075
:106960000268034B9A420CBF08300020704700BFFA
:10697000E42303001FB50023CDE90233044B8DF857
:106980000C0001A8019308F067FC05B05DF804FB5A
:10699000EC23030082B038B504A981E80C00054659
:1069A000114805F067FE0446A0B16B68012B0CD0BE
:1069B000022B05D0A3B9BDE8384002B008F0B7BC3F
:1069C00008F0BCFC00282046F5DCBDE8384002B0E9
:1069D00008F0A6BC6FF00400BDE8384002B0704774
:1069E0006FF08500F8E700BFCD26030082B010B538
:1069F00002A981E80C0004460B4805F03BFE78B183
:106A00006368022B04D00020BDE8104002B070473C
:106A100008F094FC0028CCBF002001206060F2E761
:106A20006FF00400F0E700BFCD2603000D4A52F8D6
:106A30002030013342F820300B4A01231178834083
:106A40000B430A490978DBB2137023EA01030849B2
:106A5000084A097850780B43181A537018BF012060
:106A6000704700BFA8070020111600200F16002055
:106A700010160020EE00002010B5114A52F8203008
:106A8000002B19DD013B42F820300E4A2BB9137858
:106A90000121814023EA010313700B480B4B04785A
:106AA00010780B4A5978127820EA04001043587085
:106AB000401A18BF012010BD6FF01500FBE700BFA2
:106AC000A8070020111600200F160020EE0000205D
:106AD00010160020044A012312788340D8B21340D4
:106AE0001B1A5842584170471116002010B5084B28
:106AF000084A1870084B51781C78084B1B7823EA19
:106B0000040318435070401A18BF012010BD00BF85
:106B100010160020EE0000200F1600201116002095
:106B2000074B00221A70074B074A1978074B507819
:106B30001B7823EA0103181A537018BF012070470D
:106B4000101600200F160020EE0000201116002065
:106B5000A0F1E003072B03D82030C0B2FFF766BFD7
:106B6000064B062213F8011F19B1013AFAD1002091
:106B7000704718700028F8D0F9E700BFF000002037
:106B8000A0F1E003072B10B405D820305DF8044BCA
:106B9000C0B2FFF771BF0023064A194612F8014F31
:106BA0000133A04208BF1170062BF7D100205DF819
:106BB000044B7047F0000020A0F1E003072B03D83E
:106BC0002030C0B2FFF786BF064A002312F8011F2B
:106BD000884204D00133062BF8D1002070470120F1
:106BE000704700BFF0000020024B00221A605A607C
:106BF000704700BFEF000020B0F5805F10B510D2E5
:106C00000949002301EB4302B2F8014024B10133EA
:106C1000062BF7D1002010BDA2F801000028F6D005
:106C2000F8E76FF08500F6E7E100002030B50023BB
:106C3000074C194604EB43020133B2F80150854278
:106C400004BF51709170062BF4D1002030BD00BFFD
:106C5000E1000020024B00221A605A609A607047DF
:106C6000E2000020074A002302EB4301B1F80110C3
:106C7000814204D00133062BF6D100207047012059
:106C8000704700BFE100002000487047EE00002080
:106C900000487047E100002013B50B4B1B78013B07
:106CA000012B04460ED800F0CFF96B46002200926B
:106CB0005A608DF8000093E8030084E80300204642
:106CC00002B010BD0020F0E7F7000020044B187858
:106CD00028B1012801D108F0E5BC6FF085007047AC
:106CE000C8070020044B187828B1012801D108F00A
:106CF000E1BC6FF085007047C807002002490348D7
:106D0000012201F0EDBB00BFF70000209427030033
:106D100037B508490848094D6C460AF090FB2046F3
:106D2000FFF7BAFF94E8030085E80300002003B0F2
:106D300030BD00BFFD6C0200E0020020C80700204B
:106D4000F7B50C4615461B49002207461E4609F0BA
:106D5000F3FB024648B1012C29D11749224630469F
:106D6000A84700EAE07003B0F0BD1449384609F0C6
:106D7000E3FB0028F7D0012C19D122460DF10701C1
:106D80003046A8470028EEDB9DF807300A4D0C4836
:106D9000012B0CBF022301232B7009F0C9FB002833
:106DA000E1D122462946074801F09AFBDBE76FF064
:106DB0001500D8E79E270300F7000020B327030043
:106DC000A92703009427030082B00DF1080C0CE9F9
:106DD000030019469DF80030012B104606D0022B07
:106DE00006D053B9064A02B007F028B8054AFAE7B8
:106DF000019B054A02B007F021B8044AF3E700BF3F
:106E0000BD270300C2270300C6270300CD270300C8
:106E100030B589B001AD0F4C2846FFF73DFF94E82F
:106E20000C0095E8030008F049FB80B908F06EFB00
:106E300095E803000A2305AA84E80300FFF7C4FFCE
:106E400094E8030003AB83E8030000F005F809B001
:106E500030BD00BFC80700207FB56B4683E8030044
:106E600093E80300002206AB03E90300039202A8A3
:106E7000034A029208F0F0F907B05DF804FB00BF86
:106E80005424030030B585B078BB11B9002005B09B
:106E900030BD1848184D01682C6841F001030360AB
:106EA00032B344F00100994228601BD04FF4807344
:106EB000ADF800308DF802200AF0F9FB4FF47A7239
:106EC000A0FB020302FB0131C00B40EA4140C90BA9
:106ED000CDE9020104AB13E90F0005B0BDE8304075
:106EE00000F030B88442E1D1D0E76FF01500CEE772
:106EF0009942F8E7D0070020D407002073B50F4B64
:106F000006460C4615461AB10D4A126843F8212070
:106F100053F82410002008F059FB58B1DDE906238E
:106F20000021CDE9002330462B46224608F060FBC5
:106F3000002801DD6FF0850002B070BDD007002091
:106F4000D007002010B58AB06C4684E80F000023FB
:106F50000593064B049394E80F000AAC04E90F0074
:106F600004A808F079F90AB010BD00BF602403003E
:106F700084B030B589B00CAC84E80F0000230193D5
:106F80000CAD084B00930FCD02AC0FC495E8030085
:106F900084E80300684608F05FF909B0BDE83040B6
:106FA00004B07047682403000268034B9A420CBF88
:106FB00008300020704700BF6824030008B504486B
:106FC00000F0CAFF002818BF6FF0150008BD00BF11
:106FD00009700200014B1878704700BFF8000020CC
:106FE000084B1B780B2B4FF001000AD8984010F487
:106FF000CD6F05D110F4016F0CBF01200020704748
:1070000002207047F80000200A2808B5024613D075
:107010000A4B0B491870FFF7E3FF02280AD10B78DF
:10702000032A08BF43F001030B70BDE80840054880
:1070300005F0E4BF0023F7E708BD00BFF80000201B
:10704000121600201000002008B5FFF7C9FF022823
:1070500006BF034B1878002000F0010008BD00BFF8
:107060001216002010B50948094C05F003FB2060FA
:1070700048B1084B08494D2202F03EF9206809F05A
:10708000D4FB002010BD6FF01500FBE74228030081
:10709000D80700206C2403004828030038B50446B4
:1070A0000D46FFF797FF0B280BD8DFE800F01E1EF8
:1070B0000A0A1E060A0A0A0A0A1EBDE8384000F03B
:1070C00029BF4FF476720023094805F057FE09489E
:1070D0002146006800232A4609F0B1FB044610B19E
:1070E000034805F017FE204638BD6FF01204FAE79A
:1070F000D4010020D8070020014805F00BBE00BFD6
:10710000D401002010B5094C0A44914200D110BDB1
:1071100011F8013B584003090001E35CC0B2434051
:1071200018091B01205CDBB25840EEE795280300EC
:10713000014B1B68184700BF2000002030B585B008
:1071400004460D461022002168460AF0ADFC0223D9
:107150008DF802302A46044B01932146684606F01A
:1071600035FF05B030BD00BF3171020080B5054666
:107170000E461746984606F0E3FA03460AF064FD09
:10718000DFF81890044649F8003042463046394648
:10719000A84754F8090001F019FD00BF08000000DD
:1071A00008B50446EFF31183202383F31288BFF35D
:1071B0006F8F04F059FB204601F0F6FC024808F0FE
:1071C00068FC09F0FDFAFCE7A52803002DE9F0476B
:1071D000058B04462807904611D4022905F00705BF
:1071E00040F0CC80204608F07CFC78B10138218B3F
:1071F000042811D8DFE800F0C2106D859500012940
:107200000CBF45F0100545F02005258388F3118853
:10721000BFF36F8FBDE8F08701F0070AAA4500F0C1
:10722000A5800027B9463E46A368002B00F0BC802D
:1072300041F00801218388F31188BFF36F8FA168A3
:10724000002900F0BA800D68002900F0B680D1F85E
:107250000480334652462046C047002D76D02B6826
:1072600029461D46F0E701F007035A1F012A1BD8E3
:10727000002221F00701062B276889B2C4E9002209
:1072800009D13B4603E0628B013262831B68002B0D
:10729000F9D141F002012183204608F022FC0028A8
:1072A0007AD041F0200176E0042B0AD121F00701C9
:1072B00089B22183204608F014FC10B141F020016E
:1072C0002183218B01F0070AAA454FD00027B94638
:1072D000AAE7236921F0070141F00601062DD3F842
:1072E000009021832DD1B9F1000F3FD041F008016A
:1072F000218388F31188BFF36F8F3A492046C8472E
:1073000029E021F00701236941F0040189B2042D2D
:10731000D3F804902183E6D000273E464FF0040ABC
:1073200082E721F00701236941F0050189B2052DAB
:10733000D3F808902183D6D000273E464FF0050AA7
:1073400072E700273E464FF0060A6DE72B4687E7B7
:10735000B9F1000FD1D1EFF31188202383F3128804
:10736000BFF36F8F238B23F008032383258BEA065B
:107370002ED525F01003238305F007056669218BC0
:10738000002EBFF670AF00232768C4E9003321F058
:10739000070141F001012183218B01F0070AAA4571
:1073A0004FF000097FF440AF002F9CD041F008015E
:1073B000218388F31188BFF36F8F002FC8D03D68F9
:1073C000394633465246204608F0B7FB2F46F4E7CD
:1073D000AB067FF51BAF25F02003238305F00705DF
:1073E00000E700BF67FB02002DE9F7430F460646A2
:1073F0000821C06ADFF8509008F0F3FC3C68241ABA
:1074000080463C6004EA0905AC4203D8002003B082
:10741000BDE8F08308236A462146304608F079FC2F
:107420000028F4D16946304608F0E5FC40B1BDF8CB
:107430000230BDF804203C6005EA090513441D44F0
:10744000A4EB0804E0E700BF0000FFFF73B50446AB
:107450000821C06A124E08F0C4FC4FF6FF72636840
:10746000ADF800208DF80620A28919183340134486
:10747000181A002560606846ADF80210ADF8045097
:1074800008F0A6FC6946204608F075FD2046211D3F
:1074900008F078FC636828463340A36002B070BDF2
:1074A0000000FFFF2DE9F047044688B000F1140703
:1074B000384609F087FEA06A8368DB689847E06277
:1074C00028B96FF01505284608B0BDE8F087A06A16
:1074D0008368DB6898470368013B1F2BF1D8A06ADB
:1074E000216805AA09F0CCFB0028EAD1A589002D66
:1074F000E7D0069BB5FBF3F203FB1255002DE0D15C
:10750000E389012BDDD9E36A009593F805904FF0EC
:10751000FF334FF0FF32384605F002FBE06A0821E6
:1075200008F05FFCA8460646E3891FFA85FA534532
:1075300008D8E389434523D1384605F069FB6FF04D
:107540002C05C0E7A1892B04891B13FA81F14A4657
:1075500008232046009108F0EAFB78B169462046EE
:1075600008F010FC08F10108009908234A4620465B
:107570001FFA88F808F0DBFB0028DAD00135D3E7E2
:1075800053450BD1009908234A46891B204608F031
:10759000CEFB18B96946204608F0F4FB6946204640
:1075A000FFF722FF054618B1384605F031FB8AE7A0
:1075B000009B63604FEA13484FEA0848C4F808800C
:1075C000D4E9011399420FD3082301AA204608F0F9
:1075D000A0FB05460028E7D101AB13F8012B91452C
:1075E00033D10135082DF8D163681B0C1B046946A3
:1075F0002046009308F0C6FBA38900994A4620461E
:1076000008F095FB051ECFDB636876D006EB030818
:107610004FF6FF79A389CDF800801FFA88F29B1BF3
:107620009A422ED300236168002B43D0090C090431
:1076300000912046694608F0A5FB0099204608F015
:10764000AEFB0546002D74D0AEE701A9204608F038
:10765000D2FB626810B9921B6260B1E7BDF80850B6
:10766000BDF80610E06AC4F80880294408F0B9FBA8
:1076700040449042A060EED1002DECD06FF01C058C
:1076800068E0082303AA4146204608F042FB05466D
:10769000002889D103A9204608F0ADFB30B1BDF820
:1076A0000C304B4502D1BDF810300BB1B044B1E7FE
:1076B0000123B8E7204608F072FB054600287FF456
:1076C00073AF6368264AA18913400B44A3EB4603BA
:1076D00063601340A360204608F075FCB1E75B1AB5
:1076E0004A46204608F023FB051EFFF65DAF08D092
:1076F000E26AA36812681344A360D4E901318B42A3
:10770000EDD86168A38901EB46029A429AD1DFF86D
:107710005080A26801EA08039A4293D0204608F0FC
:107720003EFB054600287FF43FAF636803EA080389
:10773000A360A389A288A3EB46039A4206D03846E9
:1077400005F066FA012323740025BCE6204608F004
:1077500023FC0546384605F05BFA002DF2D0B2E670
:107760000000FFFF014B03600020704784240300EA
:1077700070B5104B1C680D46B4B10F4B196800234F
:107780008B4202DB6FF0010070BD224612F8106BD5
:10779000864202D001331446F2E7E06809F06EFC3D
:1077A00028B12C600020EFE76FF00C00ECE76FF0E1
:1077B0001200E9E7240000208424030010B588B0FB
:1077C000436802938368C068CDE903320A680023E6
:1077D000CDE906230C4601AA0449059309F054FAA1
:1077E000079808B9059B236008B010BD0904030081
:1077F000F0B40C4B0C4E5F6A0C4BB34203D36FF0EA
:107800008500F0BC70475D68BD4209D31C693CB17E
:1078100095F802C00579AC4502D12346F0BC184763
:107820002433EAE7DC070020AC02002088020020B5
:107830002DE9F047134CDFF85080DFF850900546F3
:107840000E461746444503D36FF08500BDE8F08728
:107850006268D9F824309A4212D3A36983B1907830
:107860002979884205D13A4631462846BDE8F04795
:1078700018475279012A03D13A463146284698479B
:107880002434DFE788020020AC020020DC0700205F
:107890002DE9F0410B4CDFF8308005460E461746C7
:1078A000444502D36FF0850009E063690BB92434C5
:1078B000F6E73A463146284698470028F7D1BDE812
:1078C000F08100BF88020020AC02002010B5044601
:1078D00009F0D2F810F1780F00D050B9054A2046CF
:1078E00008F0CDFDD2F8C43023EA0003C2F8C4305A
:1078F000002010BDDC070020024B00221A605A60F5
:10790000704700BF9708002070B50B4B0B4CA3428B
:1079100001D3002070BD196A1E7F00220439D5B240
:10792000AE4201D82433F2E7013211F832508542D9
:10793000F5D10120EEE700BF88020020AC02002054
:1079400008B509480378C3F341130A3350F82330CC
:107950003BB100F1080200F110019847C043C00F8D
:1079600008BD1846FCE700BFDC07002004282DE90D
:10797000F14FDFF8A09004460F4616D001282DD114
:10798000DFF88C8098F8B93043B300F06DFD1F4DDF
:107990004D4520D2D5F820B04FF0000A2B7F5FFA7A
:1079A0008AF6B34204D82435F2E7FFF7A5FFE7E7EC
:1079B0000BEBC6060AF1010A307909F05DF80246C0
:1079C000307908F05CFDD8F8C430002A23EA0003BF
:1079D000C8F8C430E2DA002388F8B9300B4D4D45C1
:1079E00008D30B4B1B6A6BB13946204601B0BDE88A
:1079F000F04F1847EB681BB13A4621462846984796
:107A00002435ECE701B0BDE8F08F00BF880200200C
:107A1000DC070020AC02002073B5C4B263060D463B
:107A20008DF8074007D02046FFF76EFF78B10D4B69
:107A300093F8BA0058B10B4E204655B102F070F8D9
:107A4000F3691BB10DF1070108209847012002B02E
:107A500070BD02F08DF8F369002BF7D00DF107012E
:107A60000920F2E7DC07002073B586788DF8006006
:107A7000037942791C4C43EA0223ADF80230C37803
:107A8000304603F003038DF8043008F0F8FCD4F816
:107A9000C430184205460BD0304600F0C7FC3046D3
:107AA000FFF714FF09F0EAFC10B9962005F006FE76
:107AB000684602F011F810F1780F03D010B10020E1
:107AC00002B070BD9DF8000002F08EF810F1780F42
:107AD00001D00028F3D1D4F8C43001202B4384F81E
:107AE000B900C4F8C430EBE7DC0700202DE9F0470B
:107AF000A34EB36904460F461546FBB9237803F03D
:107B00001F03012B00F09D80022B00F0048133BB8A
:107B100094F900002A686178002834DA062912D026
:107B200008292BD0D9B901231370517096F8C330AE
:107B30005B0043F00103137002232AE198470028F9
:107B4000DCD100200DE06288100A011F0129844663
:107B500005D9072803D8716AD2B20C781CB96FF026
:107B60001500BDE8F0874E78664503D19A4200F0D3
:107B70000B8101332144F0E70B780AE196F8BA3023
:107B80001370012305E101390829E8D801A353F84E
:107B900021F000BF2D7C02005F7B02003B7C0200D5
:107BA0005F7B0200B97B02005F7B02005F7B02000B
:107BB0005F7B0200C57B0200A07801F07BFF0028FC
:107BC000BFD0CCE76388756A63BBFFF795FE638817
:107BD00086F8BA30F369002BB3D06A49032098477E
:107BE000AFE76B78042B10D0052B11D0022B04D1FA
:107BF0006F796388BB4208BF01202B781D442B7826
:107C0000002BEED10028AAD0DFE795F80380F4E737
:107C10006388BB42F1D1B8F1000FEED12846FFF7DF
:107C200023FFEAE7FF270020B846E8E76388012B37
:107C300095D1002386F8C33083E76388012B8ED16A
:107C4000F8E796F8BA30D5F800C0002B87D0756AEF
:107C5000A38894F804E02A46107800283FF47FAF08
:107C60005178022904D192F80480F04500F2938003
:107C70000244F1E78CF800208CF80120396060E7BD
:107C8000154494E00B2A7FF46AAF00274FF0FF08F9
:107C9000C146BA4606E06B78042B0FD0052B21D0E5
:107CA0002B781D442B78002BF5D1F36913B1514685
:107CB00007209847002F7FF444AF50E795F80280E3
:107CC000A38895F803909845EAD163889945E7D150
:107CD000B8F1070F1CD806EB0803AA4683F8BB903F
:107CE0000127DDE7A3884345DAD1A3784B450AD0C5
:107CF000AF78384600F09AFB3846FFF7E7FDB0FA58
:107D000080F77F09CCE72846FFF7AEFE0746C7E7B6
:107D1000AA460027C4E794F900206378002A18DAFD
:107D2000002B7FF41CAF24792D6863060AD020460F
:107D3000FFF7EAFD00283FF412AF96F8BA30002BA7
:107D40003FF40DAF2946204601F032FF00236B704F
:107D5000F2E6012B08D0032B7FF401AF6388002BE0
:107D60007FF4FDAE012103E0618800297FF4F7AEC6
:107D7000A088FFF751FE00287FF4E3AEEFE600BFD6
:107D8000DC07002096080020022829607FF4F4AE6A
:107D90004B883B60D5E694F9000062780028BFF676
:107DA00071AF002A3FF466AF0A2A7FF4D8AE2A7872
:107DB000002A3FF4D4AE697804297FF461AFA97832
:107DC0008B427FF45DAF072B96BF9B19002393F87E
:107DD000BB308CF80030D4E613B5164C237DF3B9D4
:107DE000E268A168019201AB802008F056FB019A7D
:107DF000A3681344A360E3689B1AE3606BB962B1A4
:107E00002369E2889A4208DD94F8C82093FBF2F1D6
:107E100002FB11330BB90123237502B010BD0023FF
:107E20001A4619468020237502B0BDE8104001F0C3
:107E300005BF00BFDC07002030B585B00023024637
:107E40000D460193002858D1002935D108220B4650
:107E50000DEB020108F029FE002804DA802001F071
:107E60005FFE05B030BD2A4C029A2260039A626020
:107E700004F13802A2609DF90820BDF80E30257586
:107E8000002AC4E903550ADB802B04D9802001F0C5
:107E900047FE0020E3E713B1C4E90333E1E7FFF74E
:107EA0004FFD0028DAD0E28823699A42D4BFE2600D
:107EB000E360FFF791FFD4E7154CD4E90215002DDC
:107EC00001AB04DC08F0F1FD0028CADAC6E72A4657
:107ED00008F0EBFD0028D9DB019AA3681344A360E6
:107EE000E3689B1AE360002BBBD104F13803A36065
:107EF000FFF726FD0028DCD1B0E78028B1D1044B84
:107F0000DA68002AD5D11B7D002BD2D1A9E700BFAA
:107F1000DC070020044B93F8C3300BB108F0D4BD4C
:107F20006FF00C00704700BFDC070020054B064ACD
:107F30009A62064ADA62064A1A63064A58629A61E7
:107F400000207047DC070020ED7A0200F177020084
:107F500091780200317802002DE9F3410446474D43
:107F600047484FF0FF334FF0FF3204F0D9FD95F84A
:107F7000B830002B7BD16B6A83B142482C62E86138
:107F80006E6A01F075FF01F063FD041E10DA3C48D3
:107F900004F03EFE204602B0BDE8F08100F0BEF8DD
:107FA000FFF7C4FF6B6A002BE7D14FF0FF34EEE719
:107FB00000F07CFA041EEADB7378012B5AD1F379C6
:107FC000002B57D00026684685F8C830ADF802303F
:107FD0008DF804608DF8006001F07EFD041ED6DB94
:107FE000802768468DF8007001F076FD041ECEDB18
:107FF0002549304601F028FF041EC8DB22493846D7
:1080000001F022FF041EC2DB204CDFF884804445CF
:108010001AD3002001F0E8FD041EB8DBD5F8C43007
:10802000802043F00103C5F8C43001F0DDFD041EDB
:10803000ADDBD5F8C43043F48033C5F8C430012338
:1080400085F8B8300024A2E7276A0026227FF3B221
:108050009A4201D82434DAE707EBC30257F8331009
:10806000107901F0F1FE01360028EFD09DE76FF0A6
:1080700077048CE76FF0150489E700BFDC07002068
:10808000880100206D790200397E020088020020FC
:10809000AC02002030B51F4B8BB005AA03F11005D0
:1080A00018685968144603C40833AB422246F7D116
:1080B0001B7823701022002101A809F0F5FC122280
:1080C0000021154809F0F0FC102101A808F08BFEF2
:1080D00000281BDD0828B8BF0820093801AB0E496D
:1080E0001A18002012F8013F0AAC04EB131403F035
:1080F0000F0328336B44013014F8144C13F8143C6C
:108100000C7008284B7001F10201EBD102480BB052
:1081100030BD00BFCE280300141600202DE9F04F1B
:10812000724B93F800B087B0BBF1000F03D07048DA
:1081300007B0BDE8F08F6E4C00264FF0011AB04634
:108140003546B14623783BB96A4B02349C42F3D1A1
:10815000664A01231370EAE76378052B1BD8DFE832
:1081600003F08E03C38E1D39402304A88DF810B090
:10817000ADF812308DF814B008F069FC40B1082356
:1081800004A8ADF8123008F062FC08B1ADF812B0E6
:10819000BDF81230E37123781C44D3E7E378002B59
:1081A000F9D1A3786BB108F101085FFA88F8F2E71A
:1081B0006B689C4207D024354F4B9D42F8D300207A
:1081C000B6E74E4DF8E7AB68002BECD041462046B1
:1081D0009847E8E7002DF2D000222B7F9A42EED29A
:1081E000296AA07801EBC2010B79984201D00132D3
:1081F000F3E70127E07800F003008DF81400207900
:1082000094F805C040EA0C20ADF8120094F9020081
:108210000028FBB228DA07F110004FF0010C0CFA2D
:1082200000F010EA0A0F26D143F080008DF810000C
:1082300004A8CDE90213019208F009FCDDE901214F
:10824000039BC0B99DF81020A27012F0800F18BFD8
:1082500010330A7118BFDBB24FF0010214BF9A400D
:10826000BA404AEA020A96E70120B84010EA0A0F2B
:1082700001D11846DAE70137102FBBD1B7E7032E3B
:108280001AD1FFF707FF074650B1FDF75DFF024621
:1082900030B11028A8BF10223946A01C09F0F6FB07
:1082A00023786FF00201E218091B04EB5303D1425B
:1082B00013D50136F6B26EE7002EF1D1B9F1000FF9
:1082C0003FF47DAFA4EB090389F80230C3F3072321
:1082D00089F8033089F80480EBE702F801BC13F851
:1082E000010902F8020DE2E7A14654E71316002047
:1082F000F401002086020020AC0200208802002049
:1083000010B5094B00211A461C78844204D15C68E0
:1083100014B102EB811010BD0131042903F14003B7
:10832000F2D10020F7E700BFA80800202DE9F341B3
:1083300050F8283C10F82C6C103304460AD103691D
:1083400050F8202C980736D5D2B9590715D50023F7
:1083500044F8283C54F8283C10330BD054E90775F6
:1083600054F8148C09F08AF800284FD02E48214682
:1083700009F055F802B0BDE8F08143F00403236131
:1083800054F8241C01AB304608F087F810B16FF0A8
:108390001503DDE7019A54F8243C134444F8243CC7
:1083A00054F8203C9B1A44F8203C54F81C3C1344DD
:1083B00044F81C3CCEE754F8241C01AB304601F0D5
:1083C000B9FC0028E3D1019D54F8243C2B4444F827
:1083D000243C54F8203C5B1B44F8203C54F81C3CE3
:1083E0002B4444F81C3C002DB1D0304601F046FD32
:1083F000B5FBF0F303FB1055002DA8D154F8203C39
:10840000002BA4D0304601F0DDFCA3E744F8180CA3
:10841000A4F1100004F07EFC002DABD0424639469A
:108420003046A847A6E700BFD005002010B5EFF3FF
:108430001184202383F31288BFF36F8FFFF760FF4F
:1084400050B14368103307D16FF08B03436000F1E4
:108450002C01044808F0E3FF84F31188BFF36F8F09
:1084600010BD00BFD0050020F8B50E4C0425202714
:10847000EFF3118687F31288BFF36F8F63681033B1
:1084800007D16FF08B030848636004F12C0108F0FA
:10849000C6FF86F31188BFF36F8F013D04F14004DE
:1084A000E6D1F8BDA8080020D005002070B50A4C20
:1084B0000A4E00253146204608F095FF0122A4F11E
:1084C00010001146013508F010FF042D04F140049E
:1084D000F0D1002070BD00BFD40800202D83020021
:1084E0002DE9F0410F4B1C6805460E461746ACB10E
:1084F0004FF0FF324FF0FF330B4804F011FB63687D
:108500003246D3F8088029463B462046C0470446F9
:10851000054804F07DFB2046BDE8F0816FF00104C2
:10852000F9E700BFA80900207401002000230360C0
:10853000044B5A6812B9C3E90000704710605860D4
:10854000704700BFAC090020014B1860704700BFA6
:10855000A809002030B585B000230546CDE90233D7
:1085600001904FF0FF330C484FF0FF3204F0D8FA7F
:108570000A4B1C684CB9284600F06EF804460648C1
:1085800004F046FB204605B030BD636820461B68FA
:1085900001A998472468EDE774010020AC09002088
:1085A000024B0022C3E90022704700BFAC09002043
:1085B000024B0022C3E90022FFF7F2BFB4090020FA
:1085C0002DE9F74307460C4609B100230B601F4D08
:1085D000DFF8809000264D450FD31D4B1D6885B3F5
:1085E00055F8188C01AA41463846183D07F0A4FFFB
:1085F00010B3D6B914BB2E461EE0D5F8008001AAF0
:108600004146384607F098FF50B116B954B92E4686
:1086100006E031680022404607F08EFF0028F5D1C1
:108620001835D8E7019B2360F1E731680022404606
:1086300007F082FF0028DDD1AD69D0E7019B236000
:10864000D9E7304603B0BDE8F08300BF90200300B7
:10865000B4090020D82003002DE9F047DFF8B090DE
:10866000DFF8B0A080464FF000470026274C3D467B
:108670004C450DD3DAF80040002C42D0183CB8F13C
:10868000000F25D122695ABBA469F5E72F46EDE713
:10869000B8F1000F03D122694AB91834E8E720681D
:1086A0000022414607F048FF0028F4D1F5E763684F
:1086B000BB4205DDAF4209D09D42A8BF1D46ECE795
:1086C000EBD19047002E08BF0646E6E71D46E4E7DB
:1086D00020680022414607F02FFF0028D2D1D3E7BF
:1086E0006368BB4205DDBD4209D09D42A8BF1D465F
:1086F000CAE7C9D19047002E08BF0646C4E71D4609
:10870000C2E7AF42C2D13046BDE8F08790200300F7
:10871000D8200300B409002038B50C4D0C484FF0A8
:10872000FF334FF0FF3204F0FBF92B783BB9FFF732
:108730003FFF00F06DF8044610B901232B700024B0
:10874000034804F065FA204638BD00BF2616002015
:10875000740100202DE9F047048FDFF8B0A0013448
:1087600098B006468946A4B200F10807651EADB26E
:10877000B5F5004F47D04A2305AA2946384607F0E9
:1087800021FE04F57F543F34A4B2804621460123E4
:108790000DF10B02384607F015FEB8F1000F014647
:1087A00010DC002810DC338FAB4209D132466B1E3F
:1087B00022F8383F4FF400410223384607F0D0FC3E
:1087C0002C46D3E7002808DC2946384607F096FDFA
:1087D0002146384607F092FDE5E708F160030DEB0E
:1087E0000308002308F84C3C5246CDF8009003AB38
:1087F00005A80397ADF8104007F0C2FE0028DFD0AF
:1088000018B0BDE8F0870020FAE700BFEF050300CD
:108810007FB50123694602200193FEF7A9FF0446B4
:1088200060BB02AA01A9022007F010FE044610B1A5
:1088300010F10C0F22D10399B1F5803F23D2009A99
:10884000002394681846084484421AD30133082B45
:10885000F9D10E4DA982EB825368AB602846D368EC
:10886000EB6307F05CFF044640B9094E6E60284692
:10887000FFF75CFE28466E60FFF766FE204604B0F8
:1088800070BD9BB2E5E76FF02004F7E7BC0900205C
:108890002800002030BFFFF7FDBF00BF2DE9F041E9
:1088A0000B4EDFF8348006EB0807CC1B054632463A
:1088B0000849204609F0EAF8A01942460021083C80
:1088C00009F0F2F82C6707F10800BDE8F08100BF5D
:1088D00000000000D820030004000000054B9A6946
:1088E0009B689A421FBF044A536843F08053536009
:1088F000704700BFCC15002000ED00E0134B9A6AD2
:1089000012F0007F9A6A14BF1E201D2012F0807F93
:108910009A6A18BF1F2012F4002F9A6A18BF2120EC
:1089200012F4802F9A6A18BF222012F4003F9A6A2C
:1089300018BF232012F4803F9A6A6FEA02426FEA5E
:1089400012429A6218BF2420704700BF00ED00E079
:1089500010B5194B0246986A9C6A10F4805F14BFE8
:108960001720162014F4006F9C6A18BF1820A40565
:1089700009D5986B986A000404D51AB19A6A22F452
:1089800000429A6219200C4B9A6A12F4806F9A6A1C
:1089900018BF1A20D2050CD49B6A13F4005F18BFCD
:1089A0001C20054A936A43F47F43936200230B70B3
:1089B00010BD1B20F5E700BF00ED00E010B51C4B1B
:1089C0000246986A9C6A10F0100F14BF1120102004
:1089D00014F0080F9C6A18BF1220A40709D5586B21
:1089E000986A000604D51AB19A6A22F080029A6247
:1089F00013200F4B9A6A12F0010F9A6A18BF1420C5
:108A000012F0200F9A6A18BF1520D40658BF9B6A2F
:108A1000074B9A6A920642BF5A6A22F400525A627F
:108A20009A6A42F0FF029A6200230B7010BD00BFE9
:108A300000ED00E070B5444B5B689CB00646C3F3A4
:108A40000803002585F31188BFF36F8F02F07F4084
:108A5000B0F17F4F11D102F00C0008280DD01007A3
:108A60004CBF0E4601250022033B8DF80720032B47
:108A700005D8DFE803F01E5C60592E46F3E70024BA
:108A80009DF807309BB96822314602A808F0FEFF26
:108A9000099B002D53D0C3F3080222B96FEA532378
:108AA0006FEA4323099302A9204607F06DFE1CB02C
:108AB00070BD254BDA6A9107E1D4DA6A002ADEDB61
:108AC000DA6A5200DBD55A69B16942F480725A61A0
:108AD000BFF34F8FBFF36F8F5A6931F8021C22F436
:108AE00080725A61BFF34F8FBFF36F8F4DF60272E2
:108AF000914209D09A6AD2B242B10DF10701012028
:108B0000FFF75CFF0446BBE73468B9E79A6A12F4E2
:108B10007F4F05D00DF107010120FFF719FFF1E7A5
:108B20009B6AB3F5803FAAD3FFF7E8FEEAE70DF1B1
:108B300007010020E4E70DF107010020EDE723F431
:108B4000FF7323F00103ADE700ED00E0044B5A6929
:108B500042F010025A615A6922F008025A617047C5
:108B600000ED00E0EFF30880EFF3098101B57246F4
:108B7000FFF760FF01BD00BF02F0A0FE202080F3E0
:108B8000118808484FF40061401880F30988EFF31A
:108B900014800221084380F31488BFF36F8F00F024
:108BA000CDF80000381A0020BFF34F8F0549064B5F
:108BB000CA6802F4E0621343CB60BFF34F8F00BF7B
:108BC000FDE700BF00ED00E00400FA05084B9B68DC
:108BD00083420BD1EFF3058343B1064B5A6842F051
:108BE00080525A605A6A22F400425A6204F0AEBDC2
:108BF000CC15002000ED00E020498A6882F8BDE035
:108C00004FF030001044EFF3098C80E8F01F1EF0A5
:108C1000100F03D102F17C0080EC108A202080F339
:108C20001288BFF36F8F164F4FF000668A698A6013
:108C30003E60106F134C206092F9BDE0506F00232E
:108C4000536780F311881EF0100F03D00023E1EE6C
:108C5000103A03E002F17C0090EC108AEFF31483E9
:108C600023F0040383F31488BFF36F8F02F1300005
:108C700090E8F01F8CF3098870470000CC150020A5
:108C800004ED00E0FC0900201EF0040F0CBFEFF320
:108C90000880EFF30980816911F8021C0229FFD0D6
:108CA00001B5724607F076FD01BD00BF40B2002855
:108CB00007DB044A4109012300F01F00834042F80A
:108CC0002130704700E100E040B200280CDB43098E
:108CD000064900F01F0020330122824041F8232082
:108CE000BFF34F8FBFF36F8F704700BF00E100E00D
:108CF000054B420900F01F0053F82220012303FA1C
:108D000000F01040704700BF00E100E040B20028D2
:108D1000A8BF00F1604001F10101B8BF064B4FEA66
:108D20004111ACBF00F5614000F00F00C9B2B4BF03
:108D3000195480F80013704714ED00E0144A08B588
:108D4000144B22F07F029A60BFF34F8FBFF36F8FF7
:108D5000D3F8882022F47002C3F88820D3F8882042
:108D600042F4A002C3F888204FF04042C3F83422F6
:108D7000BFF34F8FBFF36F8F0023E1EE103A03F084
:108D80002DFD04F01BFE00F07BF803F067FD00BF33
:108D90000060020000ED00E042F8203C009B42F839
:108DA0001C3C019B42F8183C0A49029B42F8143CC7
:108DB0004FF0807342F8043C21F00101002342F897
:108DC000081C203A43674FF47D430265C0F8BC306D
:108DD000704700BF6D710200104B9B6883421AD12F
:108DE000EFF30580B8B9EFF31181202282F31288E6
:108DF000BFF36F8F1A7B22F002021A73EFF3148312
:108E000023F0040383F31488BFF36F8F81F3118879
:108E1000BFF36F8F70476FF015007047CC150020BF
:108E200000B50E4615460023E1EE103AEFF3148329
:108E300023F0040383F31488BFF36F8FBFF36F8FA6
:108E4000084B026F9860084B1A602C4686F309881D
:108E50000020064B98472046002100220023044CA6
:108E6000204700BFCC150020FC090020B3070300F9
:108E70006D710200014B10221A61704700ED00E095
:108E8000044800232021C2180133302B82F800133C
:108E9000F9D1704700E100E008B5EFF30583064A19
:108EA000103B02EBC30152F8330049688847BDE824
:108EB0000840FFF713BD00BFA81E0300024B034A82
:108EC0000348012100F066B80000042000000020E3
:108ED000C8240300084AC2F898000B6823F01F0357
:108EE000034343F01003C2F89C308B6843F0010346
:108EF000C2F8A030704700BF00ED00E02DE9F0435C
:108F0000DFF8608085B00E461F4604464FF000092A
:108F1000B14523DA6068D8B13FB1411E08421BD188
:108F20001F2819D92368194216D12368019307F025
:108F300063FCA36803430393D8F89050C5F3072557
:108F4000D0B2013DA84207D801A9FFF7C3FF421CD8
:108F500009F101090C34DBE76FF01502104605B08A
:108F6000BDE8F08300ED00E0044B0522C3F8942037
:108F7000BFF34F8FBFF36F8F704700BF00ED00E06E
:108F8000BFF35F8F024B0022C3F89420704700BFED
:108F900000ED00E010B5034C01232278FFF7AEFF8F
:108FA000207010BD271600202DE9F043534B544C80
:108FB000D3F890302568C3F307239D4285B000F2B3
:108FC0009A80FFF7DDFF00200C2685421AD14D4C18
:108FD0004D4F25706846FEF7C5FBDFF82081DFF8AE
:108FE0002C9106460025AE4213D123784349002038
:108FF000D1F89020C2F30722934276DBFFF7B4FF4B
:10900000002042E0616806FB0011FFF763FF0130BA
:10901000DBE7009800EB05114FEA051CCB683B40ED
:10902000B3F5000F48D00AD8B3F5001F30D0B3F520
:10903000800F36D0B3F5801F10D00135D3E7B3F1E0
:10904000807F42D0B3F1007FF7D150F80C308868B0
:109050004A6807F0D1FB40F4802009E050F80C305A
:1090600088684A6807F0C8FB40F0885040F4302018
:10907000CDE901230390D8F890302078C3F307237B
:10908000013B98422AD96FF0150005B0BDE8F08386
:1090900050F80C3088684A6807F0AEFB40EA0900D7
:1090A000E6E750F80C3088684A6807F0A5FB40F006
:1090B000007040F40030DBE750F80C3088684A68F4
:1090C00007F09AFB40F08270D2E750F80C308868C5
:1090D0004A6807F091FB40F08870C9E701A9FFF7E3
:1090E000F9FE237801332370A7E7C1F89830C1F85F
:1090F000A00001337CE74FF0FF30C6E700ED00E051
:10910000D4240300271600200000F0FF00000811FF
:1091100008B5024804F072FEFEE700BFEE28030027
:1091200008B5024B1B689847002008BD000A0020C4
:1091300008B50649064821F00701C1F1005202F5C1
:10914000802206F067FC002008BD00BF2F320020FF
:10915000040A00200E4A0123C2F840354FF0804235
:109160004FF08051C2F87835D1F83001082808D185
:10917000D1F83411052904D80648415C09B1C2F878
:1091800038364FF080430122C3F880250020704715
:1091900000E00140F328030020B1034B800143F0BD
:1091A00001031847704700BFF020030010B50C46BC
:1091B0000146084807F0A3F950B1022C08D150F835
:1091C000083C2BB11B691BB1BDE810400068184773
:1091D00010BD00BF280A0020F8B590F90030002B20
:1091E00004460D46174602DB6FF01500F8BD0388F4
:1091F00023F0E0039BB240F201629342F4D146882F
:1092000001791248360A07F06CF90028ECD0212EBB
:1092100004D0222E0FD06FF08500E7E70368E188C5
:109220005B685B6813F8092F914294BF29602A603C
:109230003B600020DAE7E38850F80C2C9A4294BF98
:109240002A602B6050F8103CF2E700BF280A00208B
:109250002DE9F04104460E4601791448174607F0FF
:1092600040F90546D0B194F9002000686378002ADF
:109270000DDA012B16D155F8083C9BB11D688DB154
:109280003B4632462146AC46BDE8F0416047092BDB
:1092900008D155F8083C2BB15D68F0E76FF012007B
:1092A000BDE8F0816FF08500FAE700BF280A0020D2
:1092B00010B50C4601460F4807F007F950B1611E82
:1092C000052907D8DFE801F0070603070D0F012382
:1092D00000F8043C10BD002300F8043C00F8033CF7
:1092E000F8E70123FAE710F8033C002BF2D0002343
:1092F000F4E700BF280A002010B50469C4E9001291
:10930000A36000236361064B2061596804F11402D5
:1093100011B9C3E9002210BD0A605A60FBE700BF23
:10932000280A0020054B1B7833B14FF0FF324FF075
:10933000FF33043003F0F4BB704700BF3016002049
:10934000034B1B7813B1043003F062BC704700BFBD
:109350003016002007B501238DF807000DF1070234
:109360000021034807F0A3FA03B05DF804FB00BF37
:109370006C1E0300020600F07F0312D5082B05D1F6
:10938000010700F00F0306D50E48704710F0780F64
:1093900012D100F00F034C2000EB43100A4B18448D
:1093A0007047082B05D1020700F00F0306D50748C8
:1093B000704710F0780FF6D000207047044800EB9B
:1093C00043107047AC0B0020600A0020CC0C00203A
:1093D000CC0B00200149024808F021B8880A00207F
:1093E000100300200146014807F074BFE40100208B
:1093F00002480022002303F05BBC00BFE401002010
:1094000013B5124800F0FCFE114B98421AD11148D6
:1094100003F090F80024104803F0D2F80F491048E8
:1094200000944FF0FF334FF4806203F0EDFD0D49DF
:109430000B4808F029F80C480C4907F0D4FF2046E7
:1094400002B010BD6FF00400FAE700BF55960200AD
:109450000000AD0B1329030040250300381600203F
:109460001003002005290300880A002071970200DC
:1094700010B50E49BFF35B8F002351E8002F012A7E
:1094800003D141E800300028F7D1BFF35B8F0CD146
:1094900051F8044C1439204606F001FC783004D110
:1094A0002046BDE8104006F0D6BB10BD800A002063
:1094B00038B5002464F07F00C0B2FFF75BFF0134D1
:1094C00007F0AEFA082CF5D10E4D0024E0B2FFF7FC
:1094D00051FF036903B90561013407F0A1FA082CB3
:1094E00005F14005F2D1084807F09AFA074BD3F886
:1094F0007C2212B9064AC3F87C22064807F090FA8B
:10950000002038BDF0100020AC0B0020600A0020C5
:10951000F00C0020CC0C002010B5054CFFF768FFC4
:1095200020B14168204607F0F6FDF7E710BD00BF07
:109530005801002007B500230E48002201A903F0BE
:1095400007FA90B1FFF7E8FF0A480022002301A9BB
:1095500003F0FEF938B90198042340600374FFF763
:1095600041FFFFF737FF002001E00198406003B0A2
:109570005DF804FB58010020022810B511D8094BF2
:109580001C5CFFF7D7FF60B1002202740472FFF782
:1095900029FF054B93F824301BB1BDE81040FFF7BD
:1095A00019BF10BD10290300600A0020F8B58778A4
:1095B00006463846FFF7DEFE3B06F578044612D530
:1095C000002D43D1FFF7B6FF034600283ED001220D
:1095D000A5770274032202739C60FFF703FFBDE8C6
:1095E000F840FFF7F7BE4DB1012D2FD1FFF7A2FFD5
:1095F000034658B3657705740573EDE7FFF79AFFE7
:1096000020B3B278124B12F0800F02F0080111D093
:1096100041B1D3F8A836E360012303740223037336
:109620008460DAE702F00F02142101FB0233D3F861
:109630000836F0E711B1D3F8A837ECE702F00F02D3
:10964000142101FB0233D3F80837E4E7F8BD00BF6B
:1096500000700240F0B5064689B01422002103A82C
:1096600008F022FA3378013B052B21D8DFE803F01C
:109670007A0314146A1603238DF814300024FFF7BC
:1096800059FF0346A0B1047400F10802DDE90501A9
:1096900082E8030018461DE00423EDE7B77838465A
:1096A000FFF768FE837A044623B1013B022B43D9BE
:1096B00009B0F0BD3B06F57813D5002DF8D1FFF7C2
:1096C00039FF03460028F3D00122A5770274032254
:1096D00002739C60FFF786FE09B0BDE8F040FFF71B
:1096E00079BE55B1012DE3D1FFF724FF03460028D1
:1096F000DED0657705740573EBE7FFF71BFF0746C0
:109700000028D5D00123037402230373846004F17D
:109710000C01B07807F0EEF9134AE168B2F88C3228
:109720008B4206D95B1AA2F88C3201F0B7F83846A2
:10973000D0E7A2F88C52FAE7304609B0BDE8F04015
:10974000FFF734BF01A801F087F89DF80530052B1D
:1097500004D19DF8043013F0600FA9D0034B05939A
:1097600001248CE702248AE7600A0020CC0B002049
:109770002DE9F043A64CDFF89C9285B08046FFF7B8
:1097800037FE074610B905B0BDE8F08394F82530E0
:109790003A7C3BB9002A00F0868079689D4807F042
:1097A000BAFCECE7042A42D8DFE812F07D0005009D
:1097B0000001160140013B7BBD68032B37D8DFE871
:1097C00003F0023D5A5F6E69934B00223260726073
:1097D000D3F880143170D3F884147170D3F88814DE
:1097E000D3F88C0441EA00217180D3F89014D3F8A7
:1097F000940441EA0021B180D3F89814D3F89C3442
:1098000041EA0323F3800823EB6030687168834BDF
:1098100003C311462B68687A984796F90030002BED
:1098200008DBF38833B1A4F88C3201F037F879689B
:109830004846B4E70023A4F88C32F8E76B7F002B8E
:10984000F5D02B7F002BF2D000266E774FF0FF3241
:1098500073482E774FF0FF3307F0F5F86B690193EB
:109860006B68CDE9023601A9687A00F01FFD6C48EB
:1098700007F0EBF8DBE72B680121687A9847D6E719
:10988000AB7A6BB9EB7F5BB965484FF0FF324FF0B5
:10989000FF3307F0D8F801F007F8614807F0D5F872
:1098A0002B680221E9E73A7A042AC0D8DFE802F0FF
:1098B00059032367730000F02BFC05460028B6D13E
:1098C00000F066FBBFF35B8F5649012351E8002F80
:1098D000002A03D141E800300028F7D1BFF35B8FA5
:1098E000A5D141F8085C41F8105CE0696361143966
:1098F00006F05AF99BE7002565F07F00C0B2FFF73C
:1099000039FD037A13B1407A01F032F90135082D9F
:10991000F2D194F854311BB194F8550101F028F9B3
:109920000025E8B2FFF726FD037A13B1407A01F073
:109930001FF90135082DF4D194F874321BB194F855
:10994000750201F015F9002000F0C6FB012384F830
:1099500025302368002B3FF46AAF0021022098478E
:1099600065E7002584F8255001F068F8FFF780FDD1
:109970002368002B3FF45BAF29460420EFE7002B60
:109980003FF455AF00F0CEFB2368002B3FF44FAF00
:1099900000210520E3E72268002A3FF448AF002BAE
:1099A0003FF445AF00210620904740E708F110053D
:1099B0004FF0FF334FF0FF32284607F044F8FFF72F
:1099C00077FD284607F041F858F8283C002B3FF473
:1099D0002EAF00210120C2E794F874327BB101253B
:1099E00084F8895284F88852FFF7A4FD38B10E4AF2
:1099F000057405738260FFF7F5FCFFF7EBFC58F880
:109A0000283C002B3FF413AF00210A20A7E700BF3A
:109A1000600A00205801002000700240640A002003
:109A2000980A0020800A0020CC0C002007F013FBCD
:109A300001F004F800F0A2FAFFF76EFDFFF738FD21
:109A400007F002FB014800F0DBFBF0E65596020050
:109A500038B5164D95F824402CBB05F1380007F0B9
:109A6000B1FB204601F0D8F922460121E861272008
:109A7000FFF74CF907F0E8FAFFF71AFD044610B9B2
:109A8000012385F824300A4B1B680BB1FFF7A2FCB9
:109A90004FF08043D3F83834DB0702D50020FFF7BE
:109AA0006BFD204638BD0024FBE700BF600A0020A4
:109AB000E4010020074B93F824203AB193F82530B5
:109AC000002B14BF00206FF0120070476FF01200DF
:109AD000704700BF600A002038B5104B93F824305F
:109AE0000446C3B105782846FFF744FC10B96FF06F
:109AF000150038BD457223798372638843602078EE
:109B0000618810F0080F02D14B1E0B42EFD106F016
:109B1000ECFF0020EDE76FF01200EAE7600A00209A
:109B200038B5124B93F824200546CAB193F8253076
:109B3000B3B1FFF71FFC0446A8B1837A012B12D002
:109B400007D9023B012B07D96369A3610020E060BC
:109B500038BD00F0AFFEF7E7284600F051FEF3E70E
:109B60006FF01200F4E76FF01500F1E7600A0020D3
:109B700038B50E4B93F82420054682B193F8253072
:109B80006BB1FFF7F7FB68B115F008040AD128465E
:109B900000F058FE284601F023F8204638BD6FF04B
:109BA0001200FBE76FF01500F8E700BF600A002025
:109BB00038B50C4B93F8242005460C4662B193F857
:109BC00025304BB1FFF7D6FB48B144B1284600F031
:109BD0001FFE2070002038BD6FF01200FBE76FF011
:109BE0001500F8E7600A002070B5134E96F824308F
:109BF0000446C3B1FFF7BEFB0546B8B1230705D441
:109C0000204600F01FFE204600F0EAFF2B7A83B9C1
:109C100001232B7296F825300BB9002070BD204629
:109C200000F0A6FFF9E76FF01200F7E76FF01500FC
:109C3000F4E76FF07700F1E7600A00202DE9F043C8
:109C4000DFF8EC801E4698F8243085B00746894638
:109C50001546002B61D098F82530002B5DD0030607
:109C60005ED5FFF787FB0446002859D0037A002B06
:109C700056D04FF0FF334FF0FF3208F1380006F0B6
:109C8000E2FEA37F4BB108F1380006F0DEFE6FF074
:109C90000A04204605B0BDE8F083A37AC5B13BB302
:109CA0000123A3774FF0000801A93846CDE90195BB
:109CB000CDF80C8000F0FAFA1B4B984229D084F8BA
:109CC0001E801EBB6FF00404184806F0BEFEE0E7DD
:109CD000E27F02B1E577002BE2D100F0F1FD87428F
:109CE000DED000F0E1FD114806F0AFFE0024D0E721
:109CF000B8F80A30AB42F0D96268B5FBF2F302FB68
:109D00001353002BE9D10123E377E6E7C6F800807F
:109D1000D8E706B135600024D6E76FF01204B8E743
:109D20006FF01504B5E700BF0000AD0B980A0020E6
:109D3000600A00202DE9F0411D46204B174693F89C
:109D400024200E46002A33D093F8253083B303062F
:109D500031D401B97FBBFFF70DFB044658B3037A3A
:109D60004BB34FF0FF3316484FF0FF3206F06BFE57
:109D7000E368BB42984628BFB84646B93FB905B12B
:109D80002B600F4806F061FE0020BDE8F081A1695C
:109D90004246304607F07AFEA3694344A361E36874
:109DA000A3EB0803E360002DEBD0C5F80080E8E7E3
:109DB0006FF01200E9E76FF01500E6E7600A002097
:109DC000980A002070B51E4D95F82420034682B3F2
:109DD00095F825206AB31B062ED4FFF7CBFA04466C
:109DE00050B3037A43B34FF0FF334FF0FF3205F126
:109DF000380006F028FEE368B3B9012663692677C8
:109E0000A361637F83B1FFF795FB30B905F138009B
:109E100006F01BFE6FF00B0070BD067484600673C5
:109E2000FFF7E0FAFFF7D6FA064806F00EFE00202C
:109E3000F2E76FF01200EFE76FF01500ECE700BFFC
:109E4000600A0020980A002010B5084B93F82430CF
:109E50000C462BB1FFF78EFA28B10460002010BD2C
:109E60006FF01200FBE76FF01500F8E7600A0020C2
:109E7000014B1860704700BF600A002008B5074B0F
:109E800093F8243023B1FFF775FA20B1406808BD7C
:109E90006FF01200FBE76FF01500F8E7600A002092
:109EA0004FF08053D3F83021082A06D1D3F834314B
:109EB000052B04D8034AD05C70470020704701206E
:109EC000704700BF14290300064B10F0800FA3F168
:109ED000D80208BF134600F00F00182202FB003022
:109EE000704700BF08140020EFF31180202383F394
:109EF0001288BFF36F8F0A4BD3F8001C032261B99D
:109F000049F27531C3F8001CC3F8142DC3F8001CC6
:109F100080F31188BFF36F8F7047C3F8142DF7E7F4
:109F200000E00640EFF31180202383F31288BFF393
:109F30006F8F0A4BD3F8001C61B949F27532C3F830
:109F4000002CC3F8141DC3F8002C80F31188BFF354
:109F50006F8F70470022C3F8142DF6E700E006402B
:109F60004FF08053D3F83031082B02BF024B002250
:109F7000C3F81C2C704700BF00700240024A002347
:109F80001360024A13707047E81400202C1600205A
:109F900008B54A4B4FF40062C3F80024FFF780FF76
:109FA00008B1FFF7A1FF4FF08053D3F83031082BF1
:109FB00018D1EFF31180202383F31288BFF36F8F42
:109FC0003F4BD3F8001CC02200296ED149F27531F5
:109FD000C3F8001CC3F8142CC3F8001C80F31188CC
:109FE000BFF36F8F354B0122C3F80025D3F800244F
:109FF0001205FBD54FF40062C3F800244FF08053E4
:10A00000D3F83031082B17D1EFF31180202383F3DD
:10A010001288BFF36F8F2A4BD3F8001C002947D159
:10A0200049F27532C3F8002CC3F8141CC3F8002C95
:10A0300080F31188BFF36F8FFFF732FF30B1FFF766
:10A0400071FFFFF72DFF08B1FFF74EFF4FF0805370
:10A05000D3F83031082B194B0AD140F2E372C3F820
:10A0600000284022C3F80428BFF36F8FBFF34F8F3F
:10A070008022C3F81C250122C3F83025114B40F281
:10A08000FF121A60104B00211960104B1970FFF776
:10A0900067FF0F4B19700F4B02221A70FFF700FF7A
:10A0A00050B1BDE80840FFF73DBFC3F8142C95E759
:10A0B0000022C3F8142CBBE708BD00BF00700240AB
:10A0C00000E00640E4140020E014002028160020E0
:10A0D0002A1600202C160020094B002210B51A70F9
:10A0E000084A094B094C002808BF1346C4F800333E
:10A0F0002720FEF7DBFD0123C4F8043510BD00BFA7
:10A100002B160020FDFFDF01FDFFFF010070024064
:10A11000034B1878012894BF00200120704700BF2E
:10A120002C16002010B54FF0FF324FF0FF331548CA
:10A1300002F024FEEFF31181202383F31288BFF392
:10A140006F8F114B1B7803F0FF0483B10F4BD3F8D3
:10A15000002412F400720AD10120C3F82C05D3F8B0
:10A160002C05D3F80004800502D5C3F82C25002463
:10A1700081F31188BFF36F8F024802F0CBFD2046B8
:10A1800010BD00BFC40100202B160020007002404B
:10A1900010B5EFF31184202383F31288BFF36F8F80
:10A1A000144B1B7803F0FF00CBB1134AD2F82C35C7
:10A1B000EBB10023C2F82C354FF08053D3F8303187
:10A1C000082B0CD10D4BD3F8001CC02261B949F209
:10A1D0007531C3F8001CC3F8142CC3F8001C84F3B9
:10A1E0001188BFF36F8F10BDC3F8142CF7E7184622
:10A1F000F5E700BF2B1600200070024000E006408B
:10A20000F8B51C4B1C7894BB1B4A106001221A70D5
:10A2100040F2FF17264664F07F0514F0080FEDB2F8
:10A2200014BF39464021284606F05FFC2846FFF758
:10A230004BFE0134092C867506730661EBD10024B0
:10A2400040F2FF17254614F0080FE6B214BF394656
:10A250004021304606F049FC3046FFF735FE013418
:10A26000092C857505730561EDD10448F8BD0448D6
:10A27000FCE700BF2C160020E81400200000AD0B06
:10A280000500AD0B084B10F0800F00F00F0114BF5C
:10A29000D3F81025D3F8142501238B40134214BFA3
:10A2A00001200020704700BF007002402DE9F843F4
:10A2B0000246EFF31187202383F31288BFF36F8FD9
:10A2C000030703D1184B1B78834229D1174B184E33
:10A2D0001C683568104606F000FCE443A4B24FF059
:10A2E00001092C4309FA00F814EA08041AD11046AF
:10A2F000FFF7EAFD80F80C90034607C91C6183E86C
:10A3000007009C750B4B0C4845EA08058022356018
:10A31000C3F8042187F31188BFF36F8FBDE8F8837A
:10A320000648F7E70648F5E72A160020E41400205F
:10A33000E014002000E100E00000AD0B0A00AD0BCE
:10A340000B00AD0B10F0080F074B06D0D3F8C0047C
:10A3500010F4803F18BF0020704700F00F0000F598
:10A36000947053F820007047007002402DE9F74FB9
:10A37000AB4BAC4ED3F85421DAB10022C3F85421D0
:10A38000D3F80413890214D58DF80420D3F82025BE
:10A39000ADF80620D3F8C034002B336814BF4FF05B
:10A3A00001224FF48072134333609F4B01A81B6856
:10A3B00098479B4BD3F8604134B10022C3F8602129
:10A3C000D3F86C44C3F86C44D3F828214AB1002276
:10A3D000C3F82821954B187806F07FFB01238340B2
:10A3E0001C43DFF86482924F98F8005098F900906F
:10A3F00015F0080143D1B9F1000F05F00F032EDA73
:10A400008C4A52F8230020B342F8231014225343FD
:10A4100003F1804303F51C33D3F80836864A1178DC
:10A4200003F001034B401370FFF79AFD834802F0DD
:10A4300071FC2846FFF748FD837D032B37D1284662
:10A4400006F04BFB012303FA00F03B6823EA00030C
:10A450003B60DFF8D4A101254FF006095DE0784AA2
:10A4600052F823000028F4D042F82310142253435A
:10A4700003F1804303F51C33D3F80837CEE7B9F175
:10A48000000F674B09DBD3F85021002AE1D00022EE
:10A49000C3F85021D3F8A837C0E7D3F82C21002AFD
:10A4A000D7D00022C3F82C21D3F8A836B6E7037B17
:10A4B000DBB9284606F011FB012303FA00F03B68E4
:10A4C000B9F1000F23EA00033B6001DA882DC0D107
:10A4D00006238DF8043000238DF80730524B8DF899
:10A4E00006501B6801A89847B3E7002DB1D14C4B2B
:10A4F0000122DA64ADE794FAA4F03268B0FA80F091
:10A5000005FA00F31A430F28326024EA03043A687C
:10A5100040F39C80134200F0A980002CEBD1404B0B
:10A52000D3F800215AB1C3F80041464B1C703F4B91
:10A530001C70012301933C4B01A81B689847384BC2
:10A54000D3F85821002A2ED00022C3F85821D3F87E
:10A550000044C3F80044E30508D53A4B01221A70C1
:10A5600002230193304B01A81B689847A50508D525
:10A57000344B00221A70032301932B4B01A81B6854
:10A58000984760050FD52F4B1A7862B100221A70D8
:10A59000234B0122C3F808259A6504230193224B1B
:10A5A00001A81B6898471E4BD3F85C3103B3234BBB
:10A5B0009B681BB998F80030590619D0184B002237
:10A5C000C3F85C21D3F88034184A23F07F0313705A
:10A5D0003B6823F001133B60336823F4803343F07E
:10A5E00001033360052301930F4B01A81B689847B3
:10A5F0003A6833681A4200F0EB80104800220023CA
:10A6000002F0BCFB002840F0E380054BD3F82C356A
:10A61000002B7BD0094803B0BDE8F04F02F07ABBB5
:10A6200000700240E4140020E81400202A160020E4
:10A63000E01400200871024028160020C401002008
:10A64000307102402B1600202916002013407FF4A1
:10A6500064AF60F07F018DF804908DF806108DF8DE
:10A660000730DAF8003001A8984756E7A0F110014A
:10A670008DF804908DF806108DF80750F1E749F039
:10A6800080052846FFF720FC4368B0F814A0016855
:10A690009A4528BF9A4601F06043B3F1005F044633
:10A6A00004D05448524607F0F1F9524922686368D1
:10A6B00052442260A268A3EB0A03D20768B2636027
:10A6C00053D5BAF1000F52D1002323734FE0114646
:10A6D0004FF0000A604545D1003B18BF0123002A16
:10A6E00042D0504540D9012303FA09F32BEA030372
:10A6F0003B6006238DF804303F4B8DF80650022254
:10A700001B68A2758DF8072001A89847D7F800B0FC
:10A7100033681BEA03093FF47DAF19F0012314BF2E
:10A7200093FAA3F999FAA9F9B9FA89F9B9F10F0FCE
:10A73000A5D9A9F11005EDB22846FFF7C5FB0446DF
:10A740002846FFF7FFFD6368B4F814C022689842FA
:10A75000BDD81B1A00EB020E11466360C4F800E07E
:10A760008246B7E70023BAE768B2002BACD04FF0BF
:10A770008053D3F83031082B02BF204B8222C3F81C
:10A780001C2C336888F80050012202FA09F923EAE8
:10A7900009033360236915F0080F53442361174BF5
:10A7A00019D1002805F00F054FF0140000FB05300B
:10A7B000A9BF0A3503EB8503C0F80017C0F804A74A
:10A7C000AFBF43F82520C0F80016C0F804A65A60B1
:10A7D00003B0BDE8F08F0028B5BFC3F8A016C3F8DA
:10A7E000A017C3F8A4A6C3F8A4A7B4BF5A629A647A
:10A7F000EEE700BFF0120020E814002000700240D5
:10A80000024B40F48070C3F8180570470070024096
:10A81000030713D400F00F0310F0800F084A0BBF9A
:10A8200003F5887303F5847302EB830252F8230067
:10A8300008BF5068003818BF0120704700207047DB
:10A8400000700240034BC3F80C0540F48070C3F85D
:10A850000C057047007002400023036043600E4BFC
:10A86000D3F880240270D3F884244270D3F888246B
:10A87000D3F88C1442EA01224280D3F89024D3F812
:10A88000941442EA01228280D3F89824D3F89C34AD
:10A8900042EA0323C380704700700240014B01224B
:10A8A000DA64704700700240014B01221A6570475C
:10A8B00000700240014B01225A657047007002404F
:10A8C000014B1878704700BF2A16002010B50246C9
:10A8D000EFF31184202383F31288BFF36F8F06F008
:10A8E000FCF80B49012303FA00F00B6823EA00038C
:10A8F0000B6012F0080101BF02F00F02054B02F5D8
:10A90000947243F8221084F31188BFF36F8F10BD47
:10A91000E414002000700240F7B50146EFF3118502
:10A92000202383F31288BFF36F8FFFF7CDFA06461B
:10A93000084606F0D2F8012211F0800F02FA00F268
:10A940002D4818D1036832EA03040AD00846FFF7FD
:10A95000BDFF0323B37585F31188BFF36F8F03B079
:10A96000F0BD2649347323EA020303600B6823EA2F
:10A9700002030B60EDE70B0715D48029204B2FD085
:10A9800001F00F0404F2DA346400C3F80048D3F88D
:10A990000448D3F80478E4B244F002043C43C3F81A
:10A9A0000448D3F80438154F04683B6864EA030C84
:10A9B0001CEA020FCFD013433B6000233373032301
:10A9C000B3758DF807300F4B8DF8061024EA02049A
:10A9D000062204601B688DF8042001A89847BAE796
:10A9E00040F2B474C3F80048D3F80448D3F80478AC
:10A9F000E4B244F00404D1E7E0140020E4140020A1
:10AA000000700240E814002038B50446094D4FF0AC
:10AA1000FF324FF0FF33284602F0B0F92046FFF72F
:10AA20007BFF284602F076F9034B8022C3F804210D
:10AA300038BD00BFC401002000E100E0F8B54FF0D0
:10AA4000FF324FF0FF332B4802F098F92A4B802257
:10AA5000C3F884212720FEF74BF998B1274E284BE5
:10AA600034681B68240C24041C43012764BB254D57
:10AA700040F2FF1333602720C5F80445FEF724F9A0
:10AA8000C5F80043204A13788BB11E4B0021C3F850
:10AA900008110121C3F80026C3F804165960D3F841
:10AAA00008110029FBD00021C3F808111170154BC3
:10AAB0000022C3F80025FFF753FA0E4802F02AF9E6
:10AAC000124B01221A70F8BD94FAA4F5B5FA85F577
:10AAD0000F2D2846C6BFA5F11000C0B240F080007F
:10AAE000030701D4FFF718FF07FA05F524EA050468
:10AAF000BCE700BFC401002000E100E0E414002036
:10AB0000E014002000700240281600202C160020BF
:10AB100010B504464FF0FF324FF0FF33114802F0FA
:10AB20002DF92046FFF7F8FE04F00F0201239340B1
:10AB30000D4A14F0800F14BFD2F81015D2F8141576
:10AB40006FEA030315BF0B400B40C2F81035C2F883
:10AB50001435044802F0DEF8044B8022C3F80421C7
:10AB600010BD00BFC40100200070024000E100E001
:10AB700070B50446FFF786FB68B904F00F020125A3
:10AB800014F0800F144B05FA02F205D0D3F810151B
:10AB90000A43C3F8102570BDD3F814150A43C3F84F
:10ABA0001425631E062BF6D8EFF31186202383F3BA
:10ABB0001288BFF36F8F2046FFF788FE204605F00E
:10ABC0008CFF064A1368854023EA0503136086F369
:10ABD0001188BFF36F8FDEE700700240E0140020A1
:10ABE000030610B5044605D4FFF712FE10B1204647
:10ABF000FFF76CFE014BC3F8184510BD0070024012
:10AC0000084B70B5C31A0D4607499B1004465943BB
:10AC10000648402205F08DFF2B4601462046BDE840
:10AC20007040184700150020B76DDBB6681D0300A3
:10AC300073B50C4C0C4A4023041B00930D460B4685
:10AC40000A49A41061430646094805F09EFF011E0B
:10AC500005DA30462B4602B0BDE87040184702B016
:10AC600070BD00BF00150020F50B0300B76DDBB60B
:10AC7000681D030010B5EFF31184202383F31288BD
:10AC8000BFF36F8F074A136823F00201DB071160DF
:10AC900002D4012006F03CF984F31188BFF36F8FD2
:10ACA00010BD00BF50150020002270B501210446E0
:10ACB0001046FEF72BF80F4800F062FF0E4B98424B
:10ACC00015D100F06DFF26690C49304604F059FF9C
:10ACD00000280BDB012535642469084904F11C00B8
:10ACE00004F04FFF002801DBE564002070BD6FF029
:10ACF0000400FBE7FDAD02000000AD0B442503009E
:10AD00001FB500220123CDE90223094ACDF800D066
:10AD10006B46CDF804D005F066FF002805DB4FF444
:10AD200080420023684602F029F805B05DF804FB74
:10AD3000150C030030B4104B0C2202FB003301460B
:10AD40000020D3E90E529863EFF31180202484F39E
:10AD50001288BFF36F8F1C6C04F0C00444F002042F
:10AD60001C6480F31188BFF36F8F1DB12B4603481D
:10AD700030BC184730BC704700150020681D030028
:10AD800010B4EFF31182202383F31288BFF36F8F87
:10AD90001848016841F002040460C80708D482F32F
:10ADA0001188BFF36F8F01205DF8044B00F010BFD6
:10ADB0004FF08041D1F80C04D1F80C14C907EED53E
:10ADC000EFF3118083F31288BFF36F8F0A490B6C86
:10ADD00003F0C00343F002030B6480F31188BFF358
:10ADE0006F8F82F31188BFF36F8F00205DF8044BE3
:10ADF000FFF7A0BF501500200015002010B101285A
:10AE000004D07047034B1B6C5B0701D1FFF792BF67
:10AE1000704700BF00150020024AC3B21C2003FB8C
:10AE200000207047001500202DE9F0413849BFF39C
:10AE30005B8F0746012251E8003F41E800200028CF
:10AE4000F9D1BFF35B8F33B9324933484B60CB60E4
:10AE50008A6004F0A9FE7B1E012B2BD8012F07D19D
:10AE60004FF08043D3F81C3403F00303012B21D0AF
:10AE700006F004FB0546F8B9284B1B78E3B14FF008
:10AE800080430222C3F808230646DFF894804FF07F
:10AE90008044D4F81824D4F81834D20315D503F01C
:10AEA0000303012B01D0012F0FD155B386F3118875
:10AEB000BFF36F8FBDE8F081EFF31186202383F39A
:10AEC0001288BFF36F8F0125DFE7ADB1304605F083
:10AED00084FCD4F81835002BDBD1D4F80421002AE7
:10AEE000D7D0C4F80431D4F804310123C4F818359C
:10AEF000C8F88031A360CCE70021212006F05EFB7A
:10AF0000E7E74FF080430222C3F80423D2E700BFF3
:10AF1000FC140020EC1400201C150020301600202A
:10AF200000E100E0024B0B6001231360704700BF9B
:10AF300054150020004870476025030010B5012219
:10AF400011460648064C06F0D0F906F06DF8206070
:10AF500006F066F86060002010BD00BF5C150020A0
:10AF6000541500204FF08042D2F81015D2F8103559
:10AF700001F01E0123F01F030B4343F00103C2F84D
:10AF80001035024B00221A70704700BF2D160020AA
:10AF90004FF08053D3F83031082B20D14FF080424E
:10AFA000D2F81015CB071AD5D2F8103501F01E01D2
:10AFB00023F01F030B43C2F81035D2F808315BB100
:10AFC000D2F8103523F01F030B4343F00103C2F8FE
:10AFD00010356FF08B007047024B01221A70002071
:10AFE000704700BF2D1600202DE9F0410D46164692
:10AFF00006F016F831460746284605F07AFE78B383
:10B00000B5FBF7F307FB135353BBB6FBF7F407FB92
:10B0100014642CBBB7421DD84FF0FF324FF0FF3302
:10B020001148DFF8488001F0A9FE05F0F9FF074656
:10B03000FFF7AEFF044680B9284601F04DFA98F8B4
:10B0400000300BB1FFF78EFFF61B3D44F0D10648F0
:10B0500001F060FE2046BDE8F0816FF08B04F6E75A
:10B060006FF01504F6E700BF5C1500202D160020D8
:10B070002DE9F8430E463046194617461C4605F0A2
:10B0800038FE88B346EA040515F003052CD1BCB19F
:10B090001748DFF864904FF0FF324FF0FF3301F0B4
:10B0A0006DFE24F00304AC4206EB05080BD1114AF7
:10B0B000D2F80034DB07FBD500240D4801F02AFE4E
:10B0C0002046BDE8F883FFF763FF50B97959404641
:10B0D00001F022FA99F800300BB1FFF743FF043575
:10B0E000E1E76FF08B04E8E76FF01504E8E700BFD5
:10B0F0005C15002000E001402D160020F0B54068EE
:10B10000057B01F01F0444EA4514056987B0002D52
:10B1100064D0B2F5001F00F1100506D12146284683
:10B1200005F076FF002007B0F0BD01AE0027B2F5B4
:10B13000800F0197776039D1B3F1007F14BF0523E9
:10B1400004238DF804300023CDE90463039383685E
:10B1500023FA01F111F001011AD1B2F1A07F17D148
:10B1600004F01F03620903F5E0732AD0012A3BD1E2
:10B170001F4A52F82330DB070AD40DF1030632468A
:10B180002146284601F002F81A4B98421CD002963C
:10B1900003AA2146284600F0BBFE174B984220D157
:10B1A00001222146284601F055F8BBE7B3F1C06FF4
:10B1B00005D0B3F1007F14BF01230223C1E70323AD
:10B1C000BFE74FF0A042D4E73146284601F03CF8F3
:10B1D000094B9842DBD06FF00B00A4E76FF08500BD
:10B1E000A1E76FF015009EE751F82330FFDE00BFA6
:10B1F000000300500400AD0B0000AD0B38B54568EE
:10B200002B69B3B11035284601F00EF8044680B919
:10B210000146284600F0D4FF084B98420BD108495C
:10B220002246284600F0ACFF224605210620FDF705
:10B230006DFD002038BD6FF00400FBE70000AD0B92
:10B2400045B20200420970B5034602D0012A17D068
:10B2500070BD0D4E326951680029F9D003F01F030B
:10B2600001250C689D400029F2D08A682A4002D04E
:10B270004B68304698472CB1236821461C46F2E7BC
:10B28000024EE7E72346F8E7901D03007C1D03000C
:10B290002DE9F043466840F20635D006337B87B08F
:10B2A00002EA050554BFC2F34010032001F01F0756
:10B2B000B5F5837F144647EA43178DF8030045D060
:10B2C0000FD8062D18D007D8B5B1022D40D06FF099
:10B2D000150007B0BDE8F083B5F5807FF7D10125F3
:10B2E0000AE040F20222954234D0B5F5407F33D0D7
:10B2F000B5F5007FEBD102250123220303FA01F10A
:10B300002CD57368C3F80815326982BB07F01F0398
:10B310007F0929D0012F77D13E4A02EB830284F4C2
:10B320008033D2F80017C3F30043C4F3404444EA27
:10B33000430421F4E16144EA800421F0070144EA76
:10B3400005230B43C2F800370020C2E70725D3E7E7
:10B350000425D1E70525CFE70325CDE7630344BFE7
:10B360007368C3F80C15CFE74FF0A042D5E710364D
:10B370000DF102023946304600F008FF14F4403F58
:10B3800080460CD13946304605F040FE224B9845A8
:10B39000DAD19DF80210304600F050FFD4E701AB3F
:10B3A0004FF0000903AA39463046CDE90439CDE90A
:10B3B0000199CDF80C9000F0ABFD174B984286D167
:10B3C00014F4003315D09DF803308DF80E3084F45A
:10B3D0008034C4F300444B4603AA394630468DF806
:10B3E0000C508DF80D4000F04DFE0B4B9842CDD027
:10B3F0006DE7CDE9043303AA0DF103033946304666
:10B40000039300F085FDF0E703F5E07352F8233075
:10B41000FFDE00BF000300500000AD0B08B503695C
:10B420000349986303F1080006F009F8002008BDFD
:10B430002F0E030070B5012383400E4ABFF35B8FCC
:10B44000DC4352E8001F01EA040542E80056002EE2
:10B45000F7D1BFF35B8F4FF4803282400648C0F8CB
:10B460000823BFF35F8FBFF36F8F0B4214BF012020
:10B47000002070BDB01500200010014070B40E49CE
:10B48000D1E90034D01AC31844F1000422F07F46F9
:10B49000C1E90034A6F50013B3F5400F09D2074BFC
:10B4A0001B681A0A1B069C19054B42F10005C3E9EB
:10B4B000004570BC02F042BB40040020B4150020DF
:10B4C0004804002011B3BFF35B8F0123104A83406F
:10B4D00052E800CF4CEA030C42E800C10029F7D142
:10B4E000BFF35B8F0B4A4FF480338340C2F80433C1
:10B4F000094BBFF35B8F1B68BFF35B8FC340DB0758
:10B5000042BF064B4FF40032C3F80021704700BF22
:10B51000B015002000100140AC15002000E100E053
:10B520000D4B1868010A0006BFF35F8F0B4BD3F871
:10B530000435181841F10001B3F5801F0AD2084BF9
:10B54000D3E90023904271EB030303D210F1807022
:10B5500041F10001704700BFB41500200010014008
:10B56000480400202DE9F04F85B016461F469DF88F
:10B5700040A00446FFF75EFF0190FFF7D1FFB04205
:10B5800071EB070354D23E4B301A67EB010198422E
:10B5900071F100014FD23B4B03EB0413D3E90223BB
:10B5A0009F4208BF96425ED037494FF4803804F17D
:10B5B000500508FA04F8AD00C1F848832046ADB242
:10B5C00005F097FC26F07F4B05F1804504F5A87344
:10B5D00005F58835DC464FF003090293029A2CF0FA
:10B5E0007F4341F82230C1F84483D1F80435274A1B
:10B5F0006FF00200C01A604420F07F40904232D9C0
:10B60000286868B1D1F804350393A3EB0B0020F050
:10B610007F40B0F5000F26D9204605F06AFC039B59
:10B62000BAF1000F07D109EB030C09F10109D5E7C5
:10B63000BAF1000F09D06FF0150520460199FFF708
:10B6400041FF284605B0BDE8F08F0123104ABFF343
:10B650005B8FA34052E8000F184342E80001002925
:10B66000F8D1BFF35B8F07490E98230101EB041259
:10B67000C8500F9B5360C2E902670025DDE700BF99
:10B68000010080003004002000100140FDFF7F0019
:10B69000AC1500207FB51C4C1C4BC4F80833C4F813
:10B6A00048331B4B00254FF0FF304FF0FF31C4F8FB
:10B6B0000855C3E902014FF48033C4F80433154B35
:10B6C00002264FF400320121C4F804631120C3F8AC
:10B6D00080212A46FDF71AFB1120FDF7E7FA0E4AF2
:10B6E0000123A360236013600C4B0D4A0093CDE946
:10B6F000015500232846FFF735FF3046FFF794FB3E
:10B70000284604B070BD00BF0010014003000F00C8
:10B710003004002000E100E0B01500207DB40200FC
:10B72000FFFF7F002DE9F7432F4CD4F8043399072E
:10B730000BD5D4F8043143B12C4A0023C4F80431AA
:10B74000D4F80431136801331360D4F80433DA03F6
:10B7500029D5BFF35B8F264B53E8002F22F0010160
:10B7600043E800100028F7D1BFF35B8FD30702D462
:10B77000D4F84031BBB10025C4F84051D4F8403171
:10B78000FFF7CEFEEFF31182202383F31288BFF37D
:10B790006F8F184BD3E90267B042B94106D282F3EA
:10B7A0001188BFF36F8F03B0BDE8F0834FF0FF380F
:10B7B0004FF0FF39C3E90289D3E900101D604FF44F
:10B7C0008033C4F84833C4F84051D4F8403182F390
:10B7D0001188BFF36F8F0029E5D0009032463B46B9
:10B7E00028468847DFE700BF00100140B41500205D
:10B7F000AC1500203004002030B5431C124C85B03D
:10B8000005D08442A8BF0446012CB8BF0124FFF72D
:10B8100087FE0E4B0C4DD3E90013401AB0F5000F14
:10B8200010D22218AA4228BF2A4652184FF0000010
:10B8300007490091CDE9010043F10003FFF792FEB3
:10B8400005B030BD2A46F0E7FFFF7F00400400202E
:10B850007DB4020008B5FFF763FE024B1B68C01AF7
:10B8600008BD00BF4004002010B5084C01236360F0
:10B870001120FDF729FA064BC4F80833C4F8483301
:10B88000044B4FF40032C3F8802110BD001001407A
:10B8900003000F0000E100E04FF08053D3F83021A7
:10B8A000082A06D1D3F83431052B02D8024AD05CDD
:10B8B00070470020704700BFA029030008B54FF073
:10B8C0008053D3F83021082A4ED14FF08042002116
:10B8D000C2F80C11C2F81011C2F8381502F5404236
:10B8E000D3F80414C2F82015D3F80814C2F82415AC
:10B8F000D3F80C14C2F82815D3F81014C2F82C157C
:10B90000D3F81414C2F83015D3F81814C2F834154B
:10B91000D3F81C14C2F84015D3F82014C2F844150B
:10B92000D3F82414C2F84815D3F82814C2F84C15DB
:10B93000D3F82C14C2F85015D3F83014C2F85415AB
:10B94000D3F83414C2F86015D3F83814C2F864156B
:10B95000D3F83C14C2F86815D3F84014C2F86C153B
:10B96000D3F84434C2F87035FFF796FF18B12B4B6B
:10B970002B4AC3F88C26FFF78FFF18B1294BFB2207
:10B98000C3F81825FFF788FF70B14FF080414FF0E2
:10B990008053D1F8E42ED3F8583222F00F0203F08E
:10B9A0000F031343C1F8E43EFFF776FF20B11E4BAF
:10B9B0004FF40072C3F840264FF08053D3F8303173
:10B9C000082B09D14FF08043D3F80024D20744BF9D
:10B9D0006FF00102C3F80024144AD2F8883043F40F
:10B9E0007003C2F88830BFF34F8FBFF36F8F4FF0F3
:10B9F0008053D3F83021082A0ED1D3F83431052BE7
:10BA000002D80B4AD35C3BB14FF01023D3F8082285
:10BA10004FF08043C3F8582508BD00BF00500040D8
:10BA20004881030000F000400090024000ED00E07B
:10BA30009A29030030B50468CCB1BFF35B8FB4FA28
:10BA400084F3C3F11F03DBB201229A4024EA02020D
:10BA500050E8005FA54204D140E8002CBCF1000F83
:10BA6000F6D1BFF35B8FE6D102480B7030BD0248C0
:10BA7000FCE700BF0000AD0B0200AD0B10B5036882
:10BA8000CB40DB0714D401238B400268BFF35B8FEC
:10BA900043EA020150E8004F944204D140E8001C00
:10BAA000BCF1000FF6D1BFF35B8FEED1014810BDA2
:10BAB0000148FCE70000AD0B0400AD0BF7B50546EF
:10BAC000F8B101281BD104224FF4807301464FF0D6
:10BAD000804003440244C0F808130026012111608D
